{
	"tc_arb.sol": {
		"tc_arb": {
			"abi": [
				{
					"inputs": [],
					"stateMutability": "nonpayable",
					"type": "constructor"
				},
				{
					"anonymous": false,
					"inputs": [
						{
							"indexed": false,
							"internalType": "string",
							"name": "date",
							"type": "string"
						},
						{
							"indexed": false,
							"internalType": "string",
							"name": "delivery_date",
							"type": "string"
						},
						{
							"indexed": false,
							"internalType": "string",
							"name": "product",
							"type": "string"
						},
						{
							"indexed": false,
							"internalType": "string",
							"name": "price",
							"type": "string"
						},
						{
							"indexed": false,
							"internalType": "string",
							"name": "code",
							"type": "string"
						},
						{
							"indexed": false,
							"internalType": "string",
							"name": "cel_number",
							"type": "string"
						},
						{
							"indexed": false,
							"internalType": "int8",
							"name": "status",
							"type": "int8"
						},
						{
							"indexed": false,
							"internalType": "address",
							"name": "wallet",
							"type": "address"
						}
					],
					"name": "newData",
					"type": "event"
				},
				{
					"inputs": [],
					"name": "data",
					"outputs": [
						{
							"internalType": "string",
							"name": "date",
							"type": "string"
						},
						{
							"internalType": "string",
							"name": "delivery_date",
							"type": "string"
						},
						{
							"internalType": "string",
							"name": "product",
							"type": "string"
						},
						{
							"internalType": "string",
							"name": "price",
							"type": "string"
						},
						{
							"internalType": "string",
							"name": "code",
							"type": "string"
						},
						{
							"internalType": "string",
							"name": "cel_number",
							"type": "string"
						},
						{
							"internalType": "int8",
							"name": "status",
							"type": "int8"
						},
						{
							"internalType": "address",
							"name": "wallet",
							"type": "address"
						}
					],
					"stateMutability": "view",
					"type": "function"
				},
				{
					"inputs": [],
					"name": "getBalance",
					"outputs": [
						{
							"internalType": "uint256",
							"name": "",
							"type": "uint256"
						}
					],
					"stateMutability": "view",
					"type": "function"
				},
				{
					"inputs": [],
					"name": "owner",
					"outputs": [
						{
							"internalType": "address payable",
							"name": "",
							"type": "address"
						}
					],
					"stateMutability": "view",
					"type": "function"
				},
				{
					"inputs": [
						{
							"internalType": "string",
							"name": "_date",
							"type": "string"
						},
						{
							"internalType": "string",
							"name": "_delivery_date",
							"type": "string"
						},
						{
							"internalType": "string",
							"name": "_product",
							"type": "string"
						},
						{
							"internalType": "string",
							"name": "_price",
							"type": "string"
						},
						{
							"internalType": "string",
							"name": "_code",
							"type": "string"
						},
						{
							"internalType": "string",
							"name": "_cel_number",
							"type": "string"
						},
						{
							"internalType": "int8",
							"name": "_status",
							"type": "int8"
						}
					],
					"name": "pushData",
					"outputs": [],
					"stateMutability": "payable",
					"type": "function"
				},
				{
					"inputs": [],
					"name": "withdraw",
					"outputs": [],
					"stateMutability": "nonpayable",
					"type": "function"
				}
			],
			"devdoc": {
				"kind": "dev",
				"methods": {},
				"version": 1
			},
			"evm": {
				"assembly": "    /* \"tc_arb.sol\":63:3162  contract tc_arb {... */\n  mstore(0x40, 0x80)\n    /* \"tc_arb.sol\":1654:1717  constructor(){... */\n  callvalue\n  dup1\n  iszero\n  tag_1\n  jumpi\n  0x00\n  dup1\n  revert\ntag_1:\n  pop\n    /* \"tc_arb.sol\":1694:1704  msg.sender */\n  caller\n    /* \"tc_arb.sol\":1678:1683  owner */\n  0x00\n  dup1\n    /* \"tc_arb.sol\":1678:1705  owner = payable(msg.sender) */\n  0x0100\n  exp\n  dup2\n  sload\n  dup2\n  0xffffffffffffffffffffffffffffffffffffffff\n  mul\n  not\n  and\n  swap1\n  dup4\n  0xffffffffffffffffffffffffffffffffffffffff\n  and\n  mul\n  or\n  swap1\n  sstore\n  pop\n    /* \"tc_arb.sol\":63:3162  contract tc_arb {... */\n  dataSize(sub_0)\n  dup1\n  dataOffset(sub_0)\n  0x00\n  codecopy\n  0x00\n  return\nstop\n\nsub_0: assembly {\n        /* \"tc_arb.sol\":63:3162  contract tc_arb {... */\n      mstore(0x40, 0x80)\n      jumpi(tag_1, lt(calldatasize, 0x04))\n      shr(0xe0, calldataload(0x00))\n      dup1\n      0x12065fe0\n      eq\n      tag_2\n      jumpi\n      dup1\n      0x3ccfd60b\n      eq\n      tag_3\n      jumpi\n      dup1\n      0x73d4a13a\n      eq\n      tag_4\n      jumpi\n      dup1\n      0x782154df\n      eq\n      tag_5\n      jumpi\n      dup1\n      0x8da5cb5b\n      eq\n      tag_6\n      jumpi\n    tag_1:\n      0x00\n      dup1\n      revert\n        /* \"tc_arb.sol\":3058:3157  function getBalance() public view returns (uint256) {... */\n    tag_2:\n      callvalue\n      dup1\n      iszero\n      tag_7\n      jumpi\n      0x00\n      dup1\n      revert\n    tag_7:\n      pop\n      tag_8\n      tag_9\n      jump\t// in\n    tag_8:\n      mload(0x40)\n      tag_10\n      swap2\n      swap1\n      tag_11\n      jump\t// in\n    tag_10:\n      mload(0x40)\n      dup1\n      swap2\n      sub\n      swap1\n      return\n        /* \"tc_arb.sol\":2800:2993  function withdraw() public onlyOwner {... */\n    tag_3:\n      callvalue\n      dup1\n      iszero\n      tag_12\n      jumpi\n      0x00\n      dup1\n      revert\n    tag_12:\n      pop\n      tag_13\n      tag_14\n      jump\t// in\n    tag_13:\n      stop\n        /* \"tc_arb.sol\":842:858  Data public data */\n    tag_4:\n      callvalue\n      dup1\n      iszero\n      tag_15\n      jumpi\n      0x00\n      dup1\n      revert\n    tag_15:\n      pop\n      tag_16\n      tag_17\n      jump\t// in\n    tag_16:\n      mload(0x40)\n      tag_18\n      swap9\n      swap8\n      swap7\n      swap6\n      swap5\n      swap4\n      swap3\n      swap2\n      swap1\n      tag_19\n      jump\t// in\n    tag_18:\n      mload(0x40)\n      dup1\n      swap2\n      sub\n      swap1\n      return\n        /* \"tc_arb.sol\":1725:2737  function pushData(string memory _date,... */\n    tag_5:\n      tag_20\n      0x04\n      dup1\n      calldatasize\n      sub\n      dup2\n      add\n      swap1\n      tag_21\n      swap2\n      swap1\n      tag_22\n      jump\t// in\n    tag_21:\n      tag_23\n      jump\t// in\n    tag_20:\n      stop\n        /* \"tc_arb.sol\":163:191  address payable public owner */\n    tag_6:\n      callvalue\n      dup1\n      iszero\n      tag_24\n      jumpi\n      0x00\n      dup1\n      revert\n    tag_24:\n      pop\n      tag_25\n      tag_26\n      jump\t// in\n    tag_25:\n      mload(0x40)\n      tag_27\n      swap2\n      swap1\n      tag_28\n      jump\t// in\n    tag_27:\n      mload(0x40)\n      dup1\n      swap2\n      sub\n      swap1\n      return\n        /* \"tc_arb.sol\":3058:3157  function getBalance() public view returns (uint256) {... */\n    tag_9:\n        /* \"tc_arb.sol\":3101:3108  uint256 */\n      0x00\n        /* \"tc_arb.sol\":3128:3149  address(this).balance */\n      selfbalance\n        /* \"tc_arb.sol\":3121:3149  return address(this).balance */\n      swap1\n      pop\n        /* \"tc_arb.sol\":3058:3157  function getBalance() public view returns (uint256) {... */\n      swap1\n      jump\t// out\n        /* \"tc_arb.sol\":2800:2993  function withdraw() public onlyOwner {... */\n    tag_14:\n        /* \"tc_arb.sol\":1286:1291  owner */\n      0x00\n      dup1\n      sload\n      swap1\n      0x0100\n      exp\n      swap1\n      div\n      0xffffffffffffffffffffffffffffffffffffffff\n      and\n        /* \"tc_arb.sol\":1272:1291  msg.sender == owner */\n      0xffffffffffffffffffffffffffffffffffffffff\n      and\n        /* \"tc_arb.sol\":1272:1282  msg.sender */\n      caller\n        /* \"tc_arb.sol\":1272:1291  msg.sender == owner */\n      0xffffffffffffffffffffffffffffffffffffffff\n      and\n      eq\n        /* \"tc_arb.sol\":1264:1340  require(msg.sender == owner, \"Solo el propietario puede retirar los fondos\") */\n      tag_31\n      jumpi\n      mload(0x40)\n      0x08c379a000000000000000000000000000000000000000000000000000000000\n      dup2\n      mstore\n      0x04\n      add\n      tag_32\n      swap1\n      tag_33\n      jump\t// in\n    tag_32:\n      mload(0x40)\n      dup1\n      swap2\n      sub\n      swap1\n      revert\n    tag_31:\n        /* \"tc_arb.sol\":2848:2860  uint balance */\n      0x00\n        /* \"tc_arb.sol\":2863:2884  address(this).balance */\n      selfbalance\n        /* \"tc_arb.sol\":2848:2884  uint balance = address(this).balance */\n      swap1\n      pop\n        /* \"tc_arb.sol\":2913:2914  0 */\n      0x00\n        /* \"tc_arb.sol\":2903:2910  balance */\n      dup2\n        /* \"tc_arb.sol\":2903:2914  balance > 0 */\n      gt\n        /* \"tc_arb.sol\":2895:2951  require(balance > 0, \"El contrato no cuenta con fondos\") */\n      tag_35\n      jumpi\n      mload(0x40)\n      0x08c379a000000000000000000000000000000000000000000000000000000000\n      dup2\n      mstore\n      0x04\n      add\n      tag_36\n      swap1\n      tag_37\n      jump\t// in\n    tag_36:\n      mload(0x40)\n      dup1\n      swap2\n      sub\n      swap1\n      revert\n    tag_35:\n        /* \"tc_arb.sol\":2962:2967  owner */\n      0x00\n      dup1\n      sload\n      swap1\n      0x0100\n      exp\n      swap1\n      div\n      0xffffffffffffffffffffffffffffffffffffffff\n      and\n        /* \"tc_arb.sol\":2962:2976  owner.transfer */\n      0xffffffffffffffffffffffffffffffffffffffff\n      and\n        /* \"tc_arb.sol\":2962:2985  owner.transfer(balance) */\n      0x08fc\n        /* \"tc_arb.sol\":2977:2984  balance */\n      dup3\n        /* \"tc_arb.sol\":2962:2985  owner.transfer(balance) */\n      swap1\n      dup2\n      iszero\n      mul\n      swap1\n      mload(0x40)\n      0x00\n      mload(0x40)\n      dup1\n      dup4\n      sub\n      dup2\n      dup6\n      dup9\n      dup9\n      call\n      swap4\n      pop\n      pop\n      pop\n      pop\n      iszero\n      dup1\n      iszero\n      tag_39\n      jumpi\n      returndatasize\n      0x00\n      dup1\n      returndatacopy\n      revert(0x00, returndatasize)\n    tag_39:\n      pop\n        /* \"tc_arb.sol\":2837:2993  {... */\n      pop\n        /* \"tc_arb.sol\":2800:2993  function withdraw() public onlyOwner {... */\n      jump\t// out\n        /* \"tc_arb.sol\":842:858  Data public data */\n    tag_17:\n      0x01\n      dup1\n      0x00\n      add\n      dup1\n      sload\n      tag_40\n      swap1\n      tag_41\n      jump\t// in\n    tag_40:\n      dup1\n      0x1f\n      add\n      0x20\n      dup1\n      swap2\n      div\n      mul\n      0x20\n      add\n      mload(0x40)\n      swap1\n      dup2\n      add\n      0x40\n      mstore\n      dup1\n      swap3\n      swap2\n      swap1\n      dup2\n      dup2\n      mstore\n      0x20\n      add\n      dup3\n      dup1\n      sload\n      tag_42\n      swap1\n      tag_41\n      jump\t// in\n    tag_42:\n      dup1\n      iszero\n      tag_43\n      jumpi\n      dup1\n      0x1f\n      lt\n      tag_44\n      jumpi\n      0x0100\n      dup1\n      dup4\n      sload\n      div\n      mul\n      dup4\n      mstore\n      swap2\n      0x20\n      add\n      swap2\n      jump(tag_43)\n    tag_44:\n      dup3\n      add\n      swap2\n      swap1\n      0x00\n      mstore\n      keccak256(0x00, 0x20)\n      swap1\n    tag_45:\n      dup2\n      sload\n      dup2\n      mstore\n      swap1\n      0x01\n      add\n      swap1\n      0x20\n      add\n      dup1\n      dup4\n      gt\n      tag_45\n      jumpi\n      dup3\n      swap1\n      sub\n      0x1f\n      and\n      dup3\n      add\n      swap2\n    tag_43:\n      pop\n      pop\n      pop\n      pop\n      pop\n      swap1\n      dup1\n      0x01\n      add\n      dup1\n      sload\n      tag_46\n      swap1\n      tag_41\n      jump\t// in\n    tag_46:\n      dup1\n      0x1f\n      add\n      0x20\n      dup1\n      swap2\n      div\n      mul\n      0x20\n      add\n      mload(0x40)\n      swap1\n      dup2\n      add\n      0x40\n      mstore\n      dup1\n      swap3\n      swap2\n      swap1\n      dup2\n      dup2\n      mstore\n      0x20\n      add\n      dup3\n      dup1\n      sload\n      tag_47\n      swap1\n      tag_41\n      jump\t// in\n    tag_47:\n      dup1\n      iszero\n      tag_48\n      jumpi\n      dup1\n      0x1f\n      lt\n      tag_49\n      jumpi\n      0x0100\n      dup1\n      dup4\n      sload\n      div\n      mul\n      dup4\n      mstore\n      swap2\n      0x20\n      add\n      swap2\n      jump(tag_48)\n    tag_49:\n      dup3\n      add\n      swap2\n      swap1\n      0x00\n      mstore\n      keccak256(0x00, 0x20)\n      swap1\n    tag_50:\n      dup2\n      sload\n      dup2\n      mstore\n      swap1\n      0x01\n      add\n      swap1\n      0x20\n      add\n      dup1\n      dup4\n      gt\n      tag_50\n      jumpi\n      dup3\n      swap1\n      sub\n      0x1f\n      and\n      dup3\n      add\n      swap2\n    tag_48:\n      pop\n      pop\n      pop\n      pop\n      pop\n      swap1\n      dup1\n      0x02\n      add\n      dup1\n      sload\n      tag_51\n      swap1\n      tag_41\n      jump\t// in\n    tag_51:\n      dup1\n      0x1f\n      add\n      0x20\n      dup1\n      swap2\n      div\n      mul\n      0x20\n      add\n      mload(0x40)\n      swap1\n      dup2\n      add\n      0x40\n      mstore\n      dup1\n      swap3\n      swap2\n      swap1\n      dup2\n      dup2\n      mstore\n      0x20\n      add\n      dup3\n      dup1\n      sload\n      tag_52\n      swap1\n      tag_41\n      jump\t// in\n    tag_52:\n      dup1\n      iszero\n      tag_53\n      jumpi\n      dup1\n      0x1f\n      lt\n      tag_54\n      jumpi\n      0x0100\n      dup1\n      dup4\n      sload\n      div\n      mul\n      dup4\n      mstore\n      swap2\n      0x20\n      add\n      swap2\n      jump(tag_53)\n    tag_54:\n      dup3\n      add\n      swap2\n      swap1\n      0x00\n      mstore\n      keccak256(0x00, 0x20)\n      swap1\n    tag_55:\n      dup2\n      sload\n      dup2\n      mstore\n      swap1\n      0x01\n      add\n      swap1\n      0x20\n      add\n      dup1\n      dup4\n      gt\n      tag_55\n      jumpi\n      dup3\n      swap1\n      sub\n      0x1f\n      and\n      dup3\n      add\n      swap2\n    tag_53:\n      pop\n      pop\n      pop\n      pop\n      pop\n      swap1\n      dup1\n      0x03\n      add\n      dup1\n      sload\n      tag_56\n      swap1\n      tag_41\n      jump\t// in\n    tag_56:\n      dup1\n      0x1f\n      add\n      0x20\n      dup1\n      swap2\n      div\n      mul\n      0x20\n      add\n      mload(0x40)\n      swap1\n      dup2\n      add\n      0x40\n      mstore\n      dup1\n      swap3\n      swap2\n      swap1\n      dup2\n      dup2\n      mstore\n      0x20\n      add\n      dup3\n      dup1\n      sload\n      tag_57\n      swap1\n      tag_41\n      jump\t// in\n    tag_57:\n      dup1\n      iszero\n      tag_58\n      jumpi\n      dup1\n      0x1f\n      lt\n      tag_59\n      jumpi\n      0x0100\n      dup1\n      dup4\n      sload\n      div\n      mul\n      dup4\n      mstore\n      swap2\n      0x20\n      add\n      swap2\n      jump(tag_58)\n    tag_59:\n      dup3\n      add\n      swap2\n      swap1\n      0x00\n      mstore\n      keccak256(0x00, 0x20)\n      swap1\n    tag_60:\n      dup2\n      sload\n      dup2\n      mstore\n      swap1\n      0x01\n      add\n      swap1\n      0x20\n      add\n      dup1\n      dup4\n      gt\n      tag_60\n      jumpi\n      dup3\n      swap1\n      sub\n      0x1f\n      and\n      dup3\n      add\n      swap2\n    tag_58:\n      pop\n      pop\n      pop\n      pop\n      pop\n      swap1\n      dup1\n      0x04\n      add\n      dup1\n      sload\n      tag_61\n      swap1\n      tag_41\n      jump\t// in\n    tag_61:\n      dup1\n      0x1f\n      add\n      0x20\n      dup1\n      swap2\n      div\n      mul\n      0x20\n      add\n      mload(0x40)\n      swap1\n      dup2\n      add\n      0x40\n      mstore\n      dup1\n      swap3\n      swap2\n      swap1\n      dup2\n      dup2\n      mstore\n      0x20\n      add\n      dup3\n      dup1\n      sload\n      tag_62\n      swap1\n      tag_41\n      jump\t// in\n    tag_62:\n      dup1\n      iszero\n      tag_63\n      jumpi\n      dup1\n      0x1f\n      lt\n      tag_64\n      jumpi\n      0x0100\n      dup1\n      dup4\n      sload\n      div\n      mul\n      dup4\n      mstore\n      swap2\n      0x20\n      add\n      swap2\n      jump(tag_63)\n    tag_64:\n      dup3\n      add\n      swap2\n      swap1\n      0x00\n      mstore\n      keccak256(0x00, 0x20)\n      swap1\n    tag_65:\n      dup2\n      sload\n      dup2\n      mstore\n      swap1\n      0x01\n      add\n      swap1\n      0x20\n      add\n      dup1\n      dup4\n      gt\n      tag_65\n      jumpi\n      dup3\n      swap1\n      sub\n      0x1f\n      and\n      dup3\n      add\n      swap2\n    tag_63:\n      pop\n      pop\n      pop\n      pop\n      pop\n      swap1\n      dup1\n      0x05\n      add\n      dup1\n      sload\n      tag_66\n      swap1\n      tag_41\n      jump\t// in\n    tag_66:\n      dup1\n      0x1f\n      add\n      0x20\n      dup1\n      swap2\n      div\n      mul\n      0x20\n      add\n      mload(0x40)\n      swap1\n      dup2\n      add\n      0x40\n      mstore\n      dup1\n      swap3\n      swap2\n      swap1\n      dup2\n      dup2\n      mstore\n      0x20\n      add\n      dup3\n      dup1\n      sload\n      tag_67\n      swap1\n      tag_41\n      jump\t// in\n    tag_67:\n      dup1\n      iszero\n      tag_68\n      jumpi\n      dup1\n      0x1f\n      lt\n      tag_69\n      jumpi\n      0x0100\n      dup1\n      dup4\n      sload\n      div\n      mul\n      dup4\n      mstore\n      swap2\n      0x20\n      add\n      swap2\n      jump(tag_68)\n    tag_69:\n      dup3\n      add\n      swap2\n      swap1\n      0x00\n      mstore\n      keccak256(0x00, 0x20)\n      swap1\n    tag_70:\n      dup2\n      sload\n      dup2\n      mstore\n      swap1\n      0x01\n      add\n      swap1\n      0x20\n      add\n      dup1\n      dup4\n      gt\n      tag_70\n      jumpi\n      dup3\n      swap1\n      sub\n      0x1f\n      and\n      dup3\n      add\n      swap2\n    tag_68:\n      pop\n      pop\n      pop\n      pop\n      pop\n      swap1\n      dup1\n      0x06\n      add\n      0x00\n      swap1\n      sload\n      swap1\n      0x0100\n      exp\n      swap1\n      div\n      0x00\n      signextend\n      swap1\n      dup1\n      0x06\n      add\n      0x01\n      swap1\n      sload\n      swap1\n      0x0100\n      exp\n      swap1\n      div\n      0xffffffffffffffffffffffffffffffffffffffff\n      and\n      swap1\n      pop\n      dup9\n      jump\t// out\n        /* \"tc_arb.sol\":1725:2737  function pushData(string memory _date,... */\n    tag_23:\n        /* \"tc_arb.sol\":2065:2081  1000000000000000 */\n      0x038d7ea4c68000\n        /* \"tc_arb.sol\":1519:1525  amount */\n      dup1\n        /* \"tc_arb.sol\":1506:1515  msg.value */\n      callvalue\n        /* \"tc_arb.sol\":1506:1525  msg.value >= amount */\n      lt\n      iszero\n        /* \"tc_arb.sol\":1498:1565  require(msg.value >= amount, \"No tiene saldo en ARB para ejecutar\") */\n      tag_72\n      jumpi\n      mload(0x40)\n      0x08c379a000000000000000000000000000000000000000000000000000000000\n      dup2\n      mstore\n      0x04\n      add\n      tag_73\n      swap1\n      tag_74\n      jump\t// in\n    tag_73:\n      mload(0x40)\n      dup1\n      swap2\n      sub\n      swap1\n      revert\n    tag_72:\n        /* \"tc_arb.sol\":2107:2376  Data (_date,... */\n      mload(0x40)\n      dup1\n      0x0100\n      add\n      0x40\n      mstore\n      dup1\n        /* \"tc_arb.sol\":2113:2118  _date */\n      dup10\n        /* \"tc_arb.sol\":2107:2376  Data (_date,... */\n      dup2\n      mstore\n      0x20\n      add\n        /* \"tc_arb.sol\":2146:2160  _delivery_date */\n      dup9\n        /* \"tc_arb.sol\":2107:2376  Data (_date,... */\n      dup2\n      mstore\n      0x20\n      add\n        /* \"tc_arb.sol\":2188:2196  _product */\n      dup8\n        /* \"tc_arb.sol\":2107:2376  Data (_date,... */\n      dup2\n      mstore\n      0x20\n      add\n        /* \"tc_arb.sol\":2224:2230  _price */\n      dup7\n        /* \"tc_arb.sol\":2107:2376  Data (_date,... */\n      dup2\n      mstore\n      0x20\n      add\n        /* \"tc_arb.sol\":2258:2263  _code */\n      dup6\n        /* \"tc_arb.sol\":2107:2376  Data (_date,... */\n      dup2\n      mstore\n      0x20\n      add\n        /* \"tc_arb.sol\":2291:2302  _cel_number */\n      dup5\n        /* \"tc_arb.sol\":2107:2376  Data (_date,... */\n      dup2\n      mstore\n      0x20\n      add\n        /* \"tc_arb.sol\":2330:2337  _status */\n      dup4\n        /* \"tc_arb.sol\":2107:2376  Data (_date,... */\n      0x00\n      signextend\n      dup2\n      mstore\n      0x20\n      add\n        /* \"tc_arb.sol\":2365:2375  msg.sender */\n      caller\n        /* \"tc_arb.sol\":2107:2376  Data (_date,... */\n      0xffffffffffffffffffffffffffffffffffffffff\n      and\n      dup2\n      mstore\n      pop\n        /* \"tc_arb.sol\":2100:2104  data */\n      0x01\n        /* \"tc_arb.sol\":2100:2376  data = Data (_date,... */\n      0x00\n      dup3\n      add\n      mload\n      dup2\n      0x00\n      add\n      swap1\n      dup2\n      tag_76\n      swap2\n      swap1\n      tag_77\n      jump\t// in\n    tag_76:\n      pop\n      0x20\n      dup3\n      add\n      mload\n      dup2\n      0x01\n      add\n      swap1\n      dup2\n      tag_78\n      swap2\n      swap1\n      tag_77\n      jump\t// in\n    tag_78:\n      pop\n      0x40\n      dup3\n      add\n      mload\n      dup2\n      0x02\n      add\n      swap1\n      dup2\n      tag_79\n      swap2\n      swap1\n      tag_77\n      jump\t// in\n    tag_79:\n      pop\n      0x60\n      dup3\n      add\n      mload\n      dup2\n      0x03\n      add\n      swap1\n      dup2\n      tag_80\n      swap2\n      swap1\n      tag_77\n      jump\t// in\n    tag_80:\n      pop\n      0x80\n      dup3\n      add\n      mload\n      dup2\n      0x04\n      add\n      swap1\n      dup2\n      tag_81\n      swap2\n      swap1\n      tag_77\n      jump\t// in\n    tag_81:\n      pop\n      0xa0\n      dup3\n      add\n      mload\n      dup2\n      0x05\n      add\n      swap1\n      dup2\n      tag_82\n      swap2\n      swap1\n      tag_77\n      jump\t// in\n    tag_82:\n      pop\n      0xc0\n      dup3\n      add\n      mload\n      dup2\n      0x06\n      add\n      exp(0x0100, 0x00)\n      dup2\n      sload\n      dup2\n      0xff\n      mul\n      not\n      and\n      swap1\n      dup4\n      0x00\n      signextend\n      0xff\n      and\n      mul\n      or\n      swap1\n      sstore\n      pop\n      0xe0\n      dup3\n      add\n      mload\n      dup2\n      0x06\n      add\n      exp(0x0100, 0x01)\n      dup2\n      sload\n      dup2\n      0xffffffffffffffffffffffffffffffffffffffff\n      mul\n      not\n      and\n      swap1\n      dup4\n      0xffffffffffffffffffffffffffffffffffffffff\n      and\n      mul\n      or\n      swap1\n      sstore\n      pop\n      swap1\n      pop\n      pop\n        /* \"tc_arb.sol\":2458:2729  newData(_date,... */\n      0x870247eb151fd35c4907322d059c22cbe7eb7930b7b7116d4a107cbbb5378d12\n        /* \"tc_arb.sol\":2466:2471  _date */\n      dup9\n        /* \"tc_arb.sol\":2499:2513  _delivery_date */\n      dup9\n        /* \"tc_arb.sol\":2541:2549  _product */\n      dup9\n        /* \"tc_arb.sol\":2577:2583  _price */\n      dup9\n        /* \"tc_arb.sol\":2611:2616  _code */\n      dup9\n        /* \"tc_arb.sol\":2644:2655  _cel_number */\n      dup9\n        /* \"tc_arb.sol\":2683:2690  _status */\n      dup9\n        /* \"tc_arb.sol\":2718:2728  msg.sender */\n      caller\n        /* \"tc_arb.sol\":2458:2729  newData(_date,... */\n      mload(0x40)\n      tag_83\n      swap9\n      swap8\n      swap7\n      swap6\n      swap5\n      swap4\n      swap3\n      swap2\n      swap1\n      tag_19\n      jump\t// in\n    tag_83:\n      mload(0x40)\n      dup1\n      swap2\n      sub\n      swap1\n      log1\n        /* \"tc_arb.sol\":1725:2737  function pushData(string memory _date,... */\n      pop\n      pop\n      pop\n      pop\n      pop\n      pop\n      pop\n      pop\n      jump\t// out\n        /* \"tc_arb.sol\":163:191  address payable public owner */\n    tag_26:\n      0x00\n      dup1\n      sload\n      swap1\n      0x0100\n      exp\n      swap1\n      div\n      0xffffffffffffffffffffffffffffffffffffffff\n      and\n      dup2\n      jump\t// out\n        /* \"#utility.yul\":7:84   */\n    tag_84:\n        /* \"#utility.yul\":44:51   */\n      0x00\n        /* \"#utility.yul\":73:78   */\n      dup2\n        /* \"#utility.yul\":62:78   */\n      swap1\n      pop\n        /* \"#utility.yul\":7:84   */\n      swap2\n      swap1\n      pop\n      jump\t// out\n        /* \"#utility.yul\":90:208   */\n    tag_85:\n        /* \"#utility.yul\":177:201   */\n      tag_137\n        /* \"#utility.yul\":195:200   */\n      dup2\n        /* \"#utility.yul\":177:201   */\n      tag_84\n      jump\t// in\n    tag_137:\n        /* \"#utility.yul\":172:175   */\n      dup3\n        /* \"#utility.yul\":165:202   */\n      mstore\n        /* \"#utility.yul\":90:208   */\n      pop\n      pop\n      jump\t// out\n        /* \"#utility.yul\":214:436   */\n    tag_11:\n        /* \"#utility.yul\":307:311   */\n      0x00\n        /* \"#utility.yul\":345:347   */\n      0x20\n        /* \"#utility.yul\":334:343   */\n      dup3\n        /* \"#utility.yul\":330:348   */\n      add\n        /* \"#utility.yul\":322:348   */\n      swap1\n      pop\n        /* \"#utility.yul\":358:429   */\n      tag_139\n        /* \"#utility.yul\":426:427   */\n      0x00\n        /* \"#utility.yul\":415:424   */\n      dup4\n        /* \"#utility.yul\":411:428   */\n      add\n        /* \"#utility.yul\":402:408   */\n      dup5\n        /* \"#utility.yul\":358:429   */\n      tag_85\n      jump\t// in\n    tag_139:\n        /* \"#utility.yul\":214:436   */\n      swap3\n      swap2\n      pop\n      pop\n      jump\t// out\n        /* \"#utility.yul\":442:541   */\n    tag_86:\n        /* \"#utility.yul\":494:500   */\n      0x00\n        /* \"#utility.yul\":528:533   */\n      dup2\n        /* \"#utility.yul\":522:534   */\n      mload\n        /* \"#utility.yul\":512:534   */\n      swap1\n      pop\n        /* \"#utility.yul\":442:541   */\n      swap2\n      swap1\n      pop\n      jump\t// out\n        /* \"#utility.yul\":547:716   */\n    tag_87:\n        /* \"#utility.yul\":631:642   */\n      0x00\n        /* \"#utility.yul\":665:671   */\n      dup3\n        /* \"#utility.yul\":660:663   */\n      dup3\n        /* \"#utility.yul\":653:672   */\n      mstore\n        /* \"#utility.yul\":705:709   */\n      0x20\n        /* \"#utility.yul\":700:703   */\n      dup3\n        /* \"#utility.yul\":696:710   */\n      add\n        /* \"#utility.yul\":681:710   */\n      swap1\n      pop\n        /* \"#utility.yul\":547:716   */\n      swap3\n      swap2\n      pop\n      pop\n      jump\t// out\n        /* \"#utility.yul\":722:968   */\n    tag_88:\n        /* \"#utility.yul\":803:804   */\n      0x00\n        /* \"#utility.yul\":813:926   */\n    tag_143:\n        /* \"#utility.yul\":827:833   */\n      dup4\n        /* \"#utility.yul\":824:825   */\n      dup2\n        /* \"#utility.yul\":821:834   */\n      lt\n        /* \"#utility.yul\":813:926   */\n      iszero\n      tag_145\n      jumpi\n        /* \"#utility.yul\":912:913   */\n      dup1\n        /* \"#utility.yul\":907:910   */\n      dup3\n        /* \"#utility.yul\":903:914   */\n      add\n        /* \"#utility.yul\":897:915   */\n      mload\n        /* \"#utility.yul\":893:894   */\n      dup2\n        /* \"#utility.yul\":888:891   */\n      dup5\n        /* \"#utility.yul\":884:895   */\n      add\n        /* \"#utility.yul\":877:916   */\n      mstore\n        /* \"#utility.yul\":849:851   */\n      0x20\n        /* \"#utility.yul\":846:847   */\n      dup2\n        /* \"#utility.yul\":842:852   */\n      add\n        /* \"#utility.yul\":837:852   */\n      swap1\n      pop\n        /* \"#utility.yul\":813:926   */\n      jump(tag_143)\n    tag_145:\n        /* \"#utility.yul\":960:961   */\n      0x00\n        /* \"#utility.yul\":951:957   */\n      dup5\n        /* \"#utility.yul\":946:949   */\n      dup5\n        /* \"#utility.yul\":942:958   */\n      add\n        /* \"#utility.yul\":935:962   */\n      mstore\n        /* \"#utility.yul\":784:968   */\n      pop\n        /* \"#utility.yul\":722:968   */\n      pop\n      pop\n      pop\n      jump\t// out\n        /* \"#utility.yul\":974:1076   */\n    tag_89:\n        /* \"#utility.yul\":1015:1021   */\n      0x00\n        /* \"#utility.yul\":1066:1068   */\n      0x1f\n        /* \"#utility.yul\":1062:1069   */\n      not\n        /* \"#utility.yul\":1057:1059   */\n      0x1f\n        /* \"#utility.yul\":1050:1055   */\n      dup4\n        /* \"#utility.yul\":1046:1060   */\n      add\n        /* \"#utility.yul\":1042:1070   */\n      and\n        /* \"#utility.yul\":1032:1070   */\n      swap1\n      pop\n        /* \"#utility.yul\":974:1076   */\n      swap2\n      swap1\n      pop\n      jump\t// out\n        /* \"#utility.yul\":1082:1459   */\n    tag_90:\n        /* \"#utility.yul\":1170:1173   */\n      0x00\n        /* \"#utility.yul\":1198:1237   */\n      tag_148\n        /* \"#utility.yul\":1231:1236   */\n      dup3\n        /* \"#utility.yul\":1198:1237   */\n      tag_86\n      jump\t// in\n    tag_148:\n        /* \"#utility.yul\":1253:1324   */\n      tag_149\n        /* \"#utility.yul\":1317:1323   */\n      dup2\n        /* \"#utility.yul\":1312:1315   */\n      dup6\n        /* \"#utility.yul\":1253:1324   */\n      tag_87\n      jump\t// in\n    tag_149:\n        /* \"#utility.yul\":1246:1324   */\n      swap4\n      pop\n        /* \"#utility.yul\":1333:1398   */\n      tag_150\n        /* \"#utility.yul\":1391:1397   */\n      dup2\n        /* \"#utility.yul\":1386:1389   */\n      dup6\n        /* \"#utility.yul\":1379:1383   */\n      0x20\n        /* \"#utility.yul\":1372:1377   */\n      dup7\n        /* \"#utility.yul\":1368:1384   */\n      add\n        /* \"#utility.yul\":1333:1398   */\n      tag_88\n      jump\t// in\n    tag_150:\n        /* \"#utility.yul\":1423:1452   */\n      tag_151\n        /* \"#utility.yul\":1445:1451   */\n      dup2\n        /* \"#utility.yul\":1423:1452   */\n      tag_89\n      jump\t// in\n    tag_151:\n        /* \"#utility.yul\":1418:1421   */\n      dup5\n        /* \"#utility.yul\":1414:1453   */\n      add\n        /* \"#utility.yul\":1407:1453   */\n      swap2\n      pop\n        /* \"#utility.yul\":1174:1459   */\n      pop\n        /* \"#utility.yul\":1082:1459   */\n      swap3\n      swap2\n      pop\n      pop\n      jump\t// out\n        /* \"#utility.yul\":1465:1554   */\n    tag_91:\n        /* \"#utility.yul\":1499:1506   */\n      0x00\n        /* \"#utility.yul\":1542:1547   */\n      dup2\n        /* \"#utility.yul\":1539:1540   */\n      0x00\n        /* \"#utility.yul\":1528:1548   */\n      signextend\n        /* \"#utility.yul\":1517:1548   */\n      swap1\n      pop\n        /* \"#utility.yul\":1465:1554   */\n      swap2\n      swap1\n      pop\n      jump\t// out\n        /* \"#utility.yul\":1560:1669   */\n    tag_92:\n        /* \"#utility.yul\":1641:1662   */\n      tag_154\n        /* \"#utility.yul\":1656:1661   */\n      dup2\n        /* \"#utility.yul\":1641:1662   */\n      tag_91\n      jump\t// in\n    tag_154:\n        /* \"#utility.yul\":1636:1639   */\n      dup3\n        /* \"#utility.yul\":1629:1663   */\n      mstore\n        /* \"#utility.yul\":1560:1669   */\n      pop\n      pop\n      jump\t// out\n        /* \"#utility.yul\":1675:1801   */\n    tag_93:\n        /* \"#utility.yul\":1712:1719   */\n      0x00\n        /* \"#utility.yul\":1752:1794   */\n      0xffffffffffffffffffffffffffffffffffffffff\n        /* \"#utility.yul\":1745:1750   */\n      dup3\n        /* \"#utility.yul\":1741:1795   */\n      and\n        /* \"#utility.yul\":1730:1795   */\n      swap1\n      pop\n        /* \"#utility.yul\":1675:1801   */\n      swap2\n      swap1\n      pop\n      jump\t// out\n        /* \"#utility.yul\":1807:1903   */\n    tag_94:\n        /* \"#utility.yul\":1844:1851   */\n      0x00\n        /* \"#utility.yul\":1873:1897   */\n      tag_157\n        /* \"#utility.yul\":1891:1896   */\n      dup3\n        /* \"#utility.yul\":1873:1897   */\n      tag_93\n      jump\t// in\n    tag_157:\n        /* \"#utility.yul\":1862:1897   */\n      swap1\n      pop\n        /* \"#utility.yul\":1807:1903   */\n      swap2\n      swap1\n      pop\n      jump\t// out\n        /* \"#utility.yul\":1909:2027   */\n    tag_95:\n        /* \"#utility.yul\":1996:2020   */\n      tag_159\n        /* \"#utility.yul\":2014:2019   */\n      dup2\n        /* \"#utility.yul\":1996:2020   */\n      tag_94\n      jump\t// in\n    tag_159:\n        /* \"#utility.yul\":1991:1994   */\n      dup3\n        /* \"#utility.yul\":1984:2021   */\n      mstore\n        /* \"#utility.yul\":1909:2027   */\n      pop\n      pop\n      jump\t// out\n        /* \"#utility.yul\":2033:3564   */\n    tag_19:\n        /* \"#utility.yul\":2436:2440   */\n      0x00\n        /* \"#utility.yul\":2474:2477   */\n      0x0100\n        /* \"#utility.yul\":2463:2472   */\n      dup3\n        /* \"#utility.yul\":2459:2478   */\n      add\n        /* \"#utility.yul\":2451:2478   */\n      swap1\n      pop\n        /* \"#utility.yul\":2524:2533   */\n      dup2\n        /* \"#utility.yul\":2518:2522   */\n      dup2\n        /* \"#utility.yul\":2514:2534   */\n      sub\n        /* \"#utility.yul\":2510:2511   */\n      0x00\n        /* \"#utility.yul\":2499:2508   */\n      dup4\n        /* \"#utility.yul\":2495:2512   */\n      add\n        /* \"#utility.yul\":2488:2535   */\n      mstore\n        /* \"#utility.yul\":2552:2630   */\n      tag_161\n        /* \"#utility.yul\":2625:2629   */\n      dup2\n        /* \"#utility.yul\":2616:2622   */\n      dup12\n        /* \"#utility.yul\":2552:2630   */\n      tag_90\n      jump\t// in\n    tag_161:\n        /* \"#utility.yul\":2544:2630   */\n      swap1\n      pop\n        /* \"#utility.yul\":2677:2686   */\n      dup2\n        /* \"#utility.yul\":2671:2675   */\n      dup2\n        /* \"#utility.yul\":2667:2687   */\n      sub\n        /* \"#utility.yul\":2662:2664   */\n      0x20\n        /* \"#utility.yul\":2651:2660   */\n      dup4\n        /* \"#utility.yul\":2647:2665   */\n      add\n        /* \"#utility.yul\":2640:2688   */\n      mstore\n        /* \"#utility.yul\":2705:2783   */\n      tag_162\n        /* \"#utility.yul\":2778:2782   */\n      dup2\n        /* \"#utility.yul\":2769:2775   */\n      dup11\n        /* \"#utility.yul\":2705:2783   */\n      tag_90\n      jump\t// in\n    tag_162:\n        /* \"#utility.yul\":2697:2783   */\n      swap1\n      pop\n        /* \"#utility.yul\":2830:2839   */\n      dup2\n        /* \"#utility.yul\":2824:2828   */\n      dup2\n        /* \"#utility.yul\":2820:2840   */\n      sub\n        /* \"#utility.yul\":2815:2817   */\n      0x40\n        /* \"#utility.yul\":2804:2813   */\n      dup4\n        /* \"#utility.yul\":2800:2818   */\n      add\n        /* \"#utility.yul\":2793:2841   */\n      mstore\n        /* \"#utility.yul\":2858:2936   */\n      tag_163\n        /* \"#utility.yul\":2931:2935   */\n      dup2\n        /* \"#utility.yul\":2922:2928   */\n      dup10\n        /* \"#utility.yul\":2858:2936   */\n      tag_90\n      jump\t// in\n    tag_163:\n        /* \"#utility.yul\":2850:2936   */\n      swap1\n      pop\n        /* \"#utility.yul\":2983:2992   */\n      dup2\n        /* \"#utility.yul\":2977:2981   */\n      dup2\n        /* \"#utility.yul\":2973:2993   */\n      sub\n        /* \"#utility.yul\":2968:2970   */\n      0x60\n        /* \"#utility.yul\":2957:2966   */\n      dup4\n        /* \"#utility.yul\":2953:2971   */\n      add\n        /* \"#utility.yul\":2946:2994   */\n      mstore\n        /* \"#utility.yul\":3011:3089   */\n      tag_164\n        /* \"#utility.yul\":3084:3088   */\n      dup2\n        /* \"#utility.yul\":3075:3081   */\n      dup9\n        /* \"#utility.yul\":3011:3089   */\n      tag_90\n      jump\t// in\n    tag_164:\n        /* \"#utility.yul\":3003:3089   */\n      swap1\n      pop\n        /* \"#utility.yul\":3137:3146   */\n      dup2\n        /* \"#utility.yul\":3131:3135   */\n      dup2\n        /* \"#utility.yul\":3127:3147   */\n      sub\n        /* \"#utility.yul\":3121:3124   */\n      0x80\n        /* \"#utility.yul\":3110:3119   */\n      dup4\n        /* \"#utility.yul\":3106:3125   */\n      add\n        /* \"#utility.yul\":3099:3148   */\n      mstore\n        /* \"#utility.yul\":3165:3243   */\n      tag_165\n        /* \"#utility.yul\":3238:3242   */\n      dup2\n        /* \"#utility.yul\":3229:3235   */\n      dup8\n        /* \"#utility.yul\":3165:3243   */\n      tag_90\n      jump\t// in\n    tag_165:\n        /* \"#utility.yul\":3157:3243   */\n      swap1\n      pop\n        /* \"#utility.yul\":3291:3300   */\n      dup2\n        /* \"#utility.yul\":3285:3289   */\n      dup2\n        /* \"#utility.yul\":3281:3301   */\n      sub\n        /* \"#utility.yul\":3275:3278   */\n      0xa0\n        /* \"#utility.yul\":3264:3273   */\n      dup4\n        /* \"#utility.yul\":3260:3279   */\n      add\n        /* \"#utility.yul\":3253:3302   */\n      mstore\n        /* \"#utility.yul\":3319:3397   */\n      tag_166\n        /* \"#utility.yul\":3392:3396   */\n      dup2\n        /* \"#utility.yul\":3383:3389   */\n      dup7\n        /* \"#utility.yul\":3319:3397   */\n      tag_90\n      jump\t// in\n    tag_166:\n        /* \"#utility.yul\":3311:3397   */\n      swap1\n      pop\n        /* \"#utility.yul\":3407:3474   */\n      tag_167\n        /* \"#utility.yul\":3469:3472   */\n      0xc0\n        /* \"#utility.yul\":3458:3467   */\n      dup4\n        /* \"#utility.yul\":3454:3473   */\n      add\n        /* \"#utility.yul\":3445:3451   */\n      dup6\n        /* \"#utility.yul\":3407:3474   */\n      tag_92\n      jump\t// in\n    tag_167:\n        /* \"#utility.yul\":3484:3557   */\n      tag_168\n        /* \"#utility.yul\":3552:3555   */\n      0xe0\n        /* \"#utility.yul\":3541:3550   */\n      dup4\n        /* \"#utility.yul\":3537:3556   */\n      add\n        /* \"#utility.yul\":3528:3534   */\n      dup5\n        /* \"#utility.yul\":3484:3557   */\n      tag_95\n      jump\t// in\n    tag_168:\n        /* \"#utility.yul\":2033:3564   */\n      swap10\n      swap9\n      pop\n      pop\n      pop\n      pop\n      pop\n      pop\n      pop\n      pop\n      pop\n      jump\t// out\n        /* \"#utility.yul\":3570:3645   */\n    tag_96:\n        /* \"#utility.yul\":3603:3609   */\n      0x00\n        /* \"#utility.yul\":3636:3638   */\n      0x40\n        /* \"#utility.yul\":3630:3639   */\n      mload\n        /* \"#utility.yul\":3620:3639   */\n      swap1\n      pop\n        /* \"#utility.yul\":3570:3645   */\n      swap1\n      jump\t// out\n        /* \"#utility.yul\":3651:3768   */\n    tag_97:\n        /* \"#utility.yul\":3760:3761   */\n      0x00\n        /* \"#utility.yul\":3757:3758   */\n      dup1\n        /* \"#utility.yul\":3750:3762   */\n      revert\n        /* \"#utility.yul\":3774:3891   */\n    tag_98:\n        /* \"#utility.yul\":3883:3884   */\n      0x00\n        /* \"#utility.yul\":3880:3881   */\n      dup1\n        /* \"#utility.yul\":3873:3885   */\n      revert\n        /* \"#utility.yul\":3897:4014   */\n    tag_99:\n        /* \"#utility.yul\":4006:4007   */\n      0x00\n        /* \"#utility.yul\":4003:4004   */\n      dup1\n        /* \"#utility.yul\":3996:4008   */\n      revert\n        /* \"#utility.yul\":4020:4137   */\n    tag_100:\n        /* \"#utility.yul\":4129:4130   */\n      0x00\n        /* \"#utility.yul\":4126:4127   */\n      dup1\n        /* \"#utility.yul\":4119:4131   */\n      revert\n        /* \"#utility.yul\":4143:4323   */\n    tag_101:\n        /* \"#utility.yul\":4191:4268   */\n      0x4e487b7100000000000000000000000000000000000000000000000000000000\n        /* \"#utility.yul\":4188:4189   */\n      0x00\n        /* \"#utility.yul\":4181:4269   */\n      mstore\n        /* \"#utility.yul\":4288:4292   */\n      0x41\n        /* \"#utility.yul\":4285:4286   */\n      0x04\n        /* \"#utility.yul\":4278:4293   */\n      mstore\n        /* \"#utility.yul\":4312:4316   */\n      0x24\n        /* \"#utility.yul\":4309:4310   */\n      0x00\n        /* \"#utility.yul\":4302:4317   */\n      revert\n        /* \"#utility.yul\":4329:4610   */\n    tag_102:\n        /* \"#utility.yul\":4412:4439   */\n      tag_176\n        /* \"#utility.yul\":4434:4438   */\n      dup3\n        /* \"#utility.yul\":4412:4439   */\n      tag_89\n      jump\t// in\n    tag_176:\n        /* \"#utility.yul\":4404:4410   */\n      dup2\n        /* \"#utility.yul\":4400:4440   */\n      add\n        /* \"#utility.yul\":4542:4548   */\n      dup2\n        /* \"#utility.yul\":4530:4540   */\n      dup2\n        /* \"#utility.yul\":4527:4549   */\n      lt\n        /* \"#utility.yul\":4506:4524   */\n      0xffffffffffffffff\n        /* \"#utility.yul\":4494:4504   */\n      dup3\n        /* \"#utility.yul\":4491:4525   */\n      gt\n        /* \"#utility.yul\":4488:4550   */\n      or\n        /* \"#utility.yul\":4485:4573   */\n      iszero\n      tag_177\n      jumpi\n        /* \"#utility.yul\":4553:4571   */\n      tag_178\n      tag_101\n      jump\t// in\n    tag_178:\n        /* \"#utility.yul\":4485:4573   */\n    tag_177:\n        /* \"#utility.yul\":4593:4603   */\n      dup1\n        /* \"#utility.yul\":4589:4591   */\n      0x40\n        /* \"#utility.yul\":4582:4604   */\n      mstore\n        /* \"#utility.yul\":4372:4610   */\n      pop\n        /* \"#utility.yul\":4329:4610   */\n      pop\n      pop\n      jump\t// out\n        /* \"#utility.yul\":4616:4745   */\n    tag_103:\n        /* \"#utility.yul\":4650:4656   */\n      0x00\n        /* \"#utility.yul\":4677:4697   */\n      tag_180\n      tag_96\n      jump\t// in\n    tag_180:\n        /* \"#utility.yul\":4667:4697   */\n      swap1\n      pop\n        /* \"#utility.yul\":4706:4739   */\n      tag_181\n        /* \"#utility.yul\":4734:4738   */\n      dup3\n        /* \"#utility.yul\":4726:4732   */\n      dup3\n        /* \"#utility.yul\":4706:4739   */\n      tag_102\n      jump\t// in\n    tag_181:\n        /* \"#utility.yul\":4616:4745   */\n      swap2\n      swap1\n      pop\n      jump\t// out\n        /* \"#utility.yul\":4751:5059   */\n    tag_104:\n        /* \"#utility.yul\":4813:4817   */\n      0x00\n        /* \"#utility.yul\":4903:4921   */\n      0xffffffffffffffff\n        /* \"#utility.yul\":4895:4901   */\n      dup3\n        /* \"#utility.yul\":4892:4922   */\n      gt\n        /* \"#utility.yul\":4889:4945   */\n      iszero\n      tag_183\n      jumpi\n        /* \"#utility.yul\":4925:4943   */\n      tag_184\n      tag_101\n      jump\t// in\n    tag_184:\n        /* \"#utility.yul\":4889:4945   */\n    tag_183:\n        /* \"#utility.yul\":4963:4992   */\n      tag_185\n        /* \"#utility.yul\":4985:4991   */\n      dup3\n        /* \"#utility.yul\":4963:4992   */\n      tag_89\n      jump\t// in\n    tag_185:\n        /* \"#utility.yul\":4955:4992   */\n      swap1\n      pop\n        /* \"#utility.yul\":5047:5051   */\n      0x20\n        /* \"#utility.yul\":5041:5045   */\n      dup2\n        /* \"#utility.yul\":5037:5052   */\n      add\n        /* \"#utility.yul\":5029:5052   */\n      swap1\n      pop\n        /* \"#utility.yul\":4751:5059   */\n      swap2\n      swap1\n      pop\n      jump\t// out\n        /* \"#utility.yul\":5065:5211   */\n    tag_105:\n        /* \"#utility.yul\":5162:5168   */\n      dup3\n        /* \"#utility.yul\":5157:5160   */\n      dup2\n        /* \"#utility.yul\":5152:5155   */\n      dup4\n        /* \"#utility.yul\":5139:5169   */\n      calldatacopy\n        /* \"#utility.yul\":5203:5204   */\n      0x00\n        /* \"#utility.yul\":5194:5200   */\n      dup4\n        /* \"#utility.yul\":5189:5192   */\n      dup4\n        /* \"#utility.yul\":5185:5201   */\n      add\n        /* \"#utility.yul\":5178:5205   */\n      mstore\n        /* \"#utility.yul\":5065:5211   */\n      pop\n      pop\n      pop\n      jump\t// out\n        /* \"#utility.yul\":5217:5642   */\n    tag_106:\n        /* \"#utility.yul\":5295:5300   */\n      0x00\n        /* \"#utility.yul\":5320:5386   */\n      tag_188\n        /* \"#utility.yul\":5336:5385   */\n      tag_189\n        /* \"#utility.yul\":5378:5384   */\n      dup5\n        /* \"#utility.yul\":5336:5385   */\n      tag_104\n      jump\t// in\n    tag_189:\n        /* \"#utility.yul\":5320:5386   */\n      tag_103\n      jump\t// in\n    tag_188:\n        /* \"#utility.yul\":5311:5386   */\n      swap1\n      pop\n        /* \"#utility.yul\":5409:5415   */\n      dup3\n        /* \"#utility.yul\":5402:5407   */\n      dup2\n        /* \"#utility.yul\":5395:5416   */\n      mstore\n        /* \"#utility.yul\":5447:5451   */\n      0x20\n        /* \"#utility.yul\":5440:5445   */\n      dup2\n        /* \"#utility.yul\":5436:5452   */\n      add\n        /* \"#utility.yul\":5485:5488   */\n      dup5\n        /* \"#utility.yul\":5476:5482   */\n      dup5\n        /* \"#utility.yul\":5471:5474   */\n      dup5\n        /* \"#utility.yul\":5467:5483   */\n      add\n        /* \"#utility.yul\":5464:5489   */\n      gt\n        /* \"#utility.yul\":5461:5573   */\n      iszero\n      tag_190\n      jumpi\n        /* \"#utility.yul\":5492:5571   */\n      tag_191\n      tag_100\n      jump\t// in\n    tag_191:\n        /* \"#utility.yul\":5461:5573   */\n    tag_190:\n        /* \"#utility.yul\":5582:5636   */\n      tag_192\n        /* \"#utility.yul\":5629:5635   */\n      dup5\n        /* \"#utility.yul\":5624:5627   */\n      dup3\n        /* \"#utility.yul\":5619:5622   */\n      dup6\n        /* \"#utility.yul\":5582:5636   */\n      tag_105\n      jump\t// in\n    tag_192:\n        /* \"#utility.yul\":5301:5642   */\n      pop\n        /* \"#utility.yul\":5217:5642   */\n      swap4\n      swap3\n      pop\n      pop\n      pop\n      jump\t// out\n        /* \"#utility.yul\":5662:6002   */\n    tag_107:\n        /* \"#utility.yul\":5718:5723   */\n      0x00\n        /* \"#utility.yul\":5767:5770   */\n      dup3\n        /* \"#utility.yul\":5760:5764   */\n      0x1f\n        /* \"#utility.yul\":5752:5758   */\n      dup4\n        /* \"#utility.yul\":5748:5765   */\n      add\n        /* \"#utility.yul\":5744:5771   */\n      slt\n        /* \"#utility.yul\":5734:5856   */\n      tag_194\n      jumpi\n        /* \"#utility.yul\":5775:5854   */\n      tag_195\n      tag_99\n      jump\t// in\n    tag_195:\n        /* \"#utility.yul\":5734:5856   */\n    tag_194:\n        /* \"#utility.yul\":5892:5898   */\n      dup2\n        /* \"#utility.yul\":5879:5899   */\n      calldataload\n        /* \"#utility.yul\":5917:5996   */\n      tag_196\n        /* \"#utility.yul\":5992:5995   */\n      dup5\n        /* \"#utility.yul\":5984:5990   */\n      dup3\n        /* \"#utility.yul\":5977:5981   */\n      0x20\n        /* \"#utility.yul\":5969:5975   */\n      dup7\n        /* \"#utility.yul\":5965:5982   */\n      add\n        /* \"#utility.yul\":5917:5996   */\n      tag_106\n      jump\t// in\n    tag_196:\n        /* \"#utility.yul\":5908:5996   */\n      swap2\n      pop\n        /* \"#utility.yul\":5724:6002   */\n      pop\n        /* \"#utility.yul\":5662:6002   */\n      swap3\n      swap2\n      pop\n      pop\n      jump\t// out\n        /* \"#utility.yul\":6008:6124   */\n    tag_108:\n        /* \"#utility.yul\":6078:6099   */\n      tag_198\n        /* \"#utility.yul\":6093:6098   */\n      dup2\n        /* \"#utility.yul\":6078:6099   */\n      tag_91\n      jump\t// in\n    tag_198:\n        /* \"#utility.yul\":6071:6076   */\n      dup2\n        /* \"#utility.yul\":6068:6100   */\n      eq\n        /* \"#utility.yul\":6058:6118   */\n      tag_199\n      jumpi\n        /* \"#utility.yul\":6114:6115   */\n      0x00\n        /* \"#utility.yul\":6111:6112   */\n      dup1\n        /* \"#utility.yul\":6104:6116   */\n      revert\n        /* \"#utility.yul\":6058:6118   */\n    tag_199:\n        /* \"#utility.yul\":6008:6124   */\n      pop\n      jump\t// out\n        /* \"#utility.yul\":6130:6263   */\n    tag_109:\n        /* \"#utility.yul\":6173:6178   */\n      0x00\n        /* \"#utility.yul\":6211:6217   */\n      dup2\n        /* \"#utility.yul\":6198:6218   */\n      calldataload\n        /* \"#utility.yul\":6189:6218   */\n      swap1\n      pop\n        /* \"#utility.yul\":6227:6257   */\n      tag_201\n        /* \"#utility.yul\":6251:6256   */\n      dup2\n        /* \"#utility.yul\":6227:6257   */\n      tag_108\n      jump\t// in\n    tag_201:\n        /* \"#utility.yul\":6130:6263   */\n      swap3\n      swap2\n      pop\n      pop\n      jump\t// out\n        /* \"#utility.yul\":6269:8546   */\n    tag_22:\n        /* \"#utility.yul\":6439:6445   */\n      0x00\n        /* \"#utility.yul\":6447:6453   */\n      dup1\n        /* \"#utility.yul\":6455:6461   */\n      0x00\n        /* \"#utility.yul\":6463:6469   */\n      dup1\n        /* \"#utility.yul\":6471:6477   */\n      0x00\n        /* \"#utility.yul\":6479:6485   */\n      dup1\n        /* \"#utility.yul\":6487:6493   */\n      0x00\n        /* \"#utility.yul\":6536:6539   */\n      0xe0\n        /* \"#utility.yul\":6524:6533   */\n      dup9\n        /* \"#utility.yul\":6515:6522   */\n      dup11\n        /* \"#utility.yul\":6511:6534   */\n      sub\n        /* \"#utility.yul\":6507:6540   */\n      slt\n        /* \"#utility.yul\":6504:6624   */\n      iszero\n      tag_203\n      jumpi\n        /* \"#utility.yul\":6543:6622   */\n      tag_204\n      tag_97\n      jump\t// in\n    tag_204:\n        /* \"#utility.yul\":6504:6624   */\n    tag_203:\n        /* \"#utility.yul\":6691:6692   */\n      0x00\n        /* \"#utility.yul\":6680:6689   */\n      dup9\n        /* \"#utility.yul\":6676:6693   */\n      add\n        /* \"#utility.yul\":6663:6694   */\n      calldataload\n        /* \"#utility.yul\":6721:6739   */\n      0xffffffffffffffff\n        /* \"#utility.yul\":6713:6719   */\n      dup2\n        /* \"#utility.yul\":6710:6740   */\n      gt\n        /* \"#utility.yul\":6707:6824   */\n      iszero\n      tag_205\n      jumpi\n        /* \"#utility.yul\":6743:6822   */\n      tag_206\n      tag_98\n      jump\t// in\n    tag_206:\n        /* \"#utility.yul\":6707:6824   */\n    tag_205:\n        /* \"#utility.yul\":6848:6911   */\n      tag_207\n        /* \"#utility.yul\":6903:6910   */\n      dup11\n        /* \"#utility.yul\":6894:6900   */\n      dup3\n        /* \"#utility.yul\":6883:6892   */\n      dup12\n        /* \"#utility.yul\":6879:6901   */\n      add\n        /* \"#utility.yul\":6848:6911   */\n      tag_107\n      jump\t// in\n    tag_207:\n        /* \"#utility.yul\":6838:6911   */\n      swap8\n      pop\n        /* \"#utility.yul\":6634:6921   */\n      pop\n        /* \"#utility.yul\":6988:6990   */\n      0x20\n        /* \"#utility.yul\":6977:6986   */\n      dup9\n        /* \"#utility.yul\":6973:6991   */\n      add\n        /* \"#utility.yul\":6960:6992   */\n      calldataload\n        /* \"#utility.yul\":7019:7037   */\n      0xffffffffffffffff\n        /* \"#utility.yul\":7011:7017   */\n      dup2\n        /* \"#utility.yul\":7008:7038   */\n      gt\n        /* \"#utility.yul\":7005:7122   */\n      iszero\n      tag_208\n      jumpi\n        /* \"#utility.yul\":7041:7120   */\n      tag_209\n      tag_98\n      jump\t// in\n    tag_209:\n        /* \"#utility.yul\":7005:7122   */\n    tag_208:\n        /* \"#utility.yul\":7146:7209   */\n      tag_210\n        /* \"#utility.yul\":7201:7208   */\n      dup11\n        /* \"#utility.yul\":7192:7198   */\n      dup3\n        /* \"#utility.yul\":7181:7190   */\n      dup12\n        /* \"#utility.yul\":7177:7199   */\n      add\n        /* \"#utility.yul\":7146:7209   */\n      tag_107\n      jump\t// in\n    tag_210:\n        /* \"#utility.yul\":7136:7209   */\n      swap7\n      pop\n        /* \"#utility.yul\":6931:7219   */\n      pop\n        /* \"#utility.yul\":7286:7288   */\n      0x40\n        /* \"#utility.yul\":7275:7284   */\n      dup9\n        /* \"#utility.yul\":7271:7289   */\n      add\n        /* \"#utility.yul\":7258:7290   */\n      calldataload\n        /* \"#utility.yul\":7317:7335   */\n      0xffffffffffffffff\n        /* \"#utility.yul\":7309:7315   */\n      dup2\n        /* \"#utility.yul\":7306:7336   */\n      gt\n        /* \"#utility.yul\":7303:7420   */\n      iszero\n      tag_211\n      jumpi\n        /* \"#utility.yul\":7339:7418   */\n      tag_212\n      tag_98\n      jump\t// in\n    tag_212:\n        /* \"#utility.yul\":7303:7420   */\n    tag_211:\n        /* \"#utility.yul\":7444:7507   */\n      tag_213\n        /* \"#utility.yul\":7499:7506   */\n      dup11\n        /* \"#utility.yul\":7490:7496   */\n      dup3\n        /* \"#utility.yul\":7479:7488   */\n      dup12\n        /* \"#utility.yul\":7475:7497   */\n      add\n        /* \"#utility.yul\":7444:7507   */\n      tag_107\n      jump\t// in\n    tag_213:\n        /* \"#utility.yul\":7434:7507   */\n      swap6\n      pop\n        /* \"#utility.yul\":7229:7517   */\n      pop\n        /* \"#utility.yul\":7584:7586   */\n      0x60\n        /* \"#utility.yul\":7573:7582   */\n      dup9\n        /* \"#utility.yul\":7569:7587   */\n      add\n        /* \"#utility.yul\":7556:7588   */\n      calldataload\n        /* \"#utility.yul\":7615:7633   */\n      0xffffffffffffffff\n        /* \"#utility.yul\":7607:7613   */\n      dup2\n        /* \"#utility.yul\":7604:7634   */\n      gt\n        /* \"#utility.yul\":7601:7718   */\n      iszero\n      tag_214\n      jumpi\n        /* \"#utility.yul\":7637:7716   */\n      tag_215\n      tag_98\n      jump\t// in\n    tag_215:\n        /* \"#utility.yul\":7601:7718   */\n    tag_214:\n        /* \"#utility.yul\":7742:7805   */\n      tag_216\n        /* \"#utility.yul\":7797:7804   */\n      dup11\n        /* \"#utility.yul\":7788:7794   */\n      dup3\n        /* \"#utility.yul\":7777:7786   */\n      dup12\n        /* \"#utility.yul\":7773:7795   */\n      add\n        /* \"#utility.yul\":7742:7805   */\n      tag_107\n      jump\t// in\n    tag_216:\n        /* \"#utility.yul\":7732:7805   */\n      swap5\n      pop\n        /* \"#utility.yul\":7527:7815   */\n      pop\n        /* \"#utility.yul\":7882:7885   */\n      0x80\n        /* \"#utility.yul\":7871:7880   */\n      dup9\n        /* \"#utility.yul\":7867:7886   */\n      add\n        /* \"#utility.yul\":7854:7887   */\n      calldataload\n        /* \"#utility.yul\":7914:7932   */\n      0xffffffffffffffff\n        /* \"#utility.yul\":7906:7912   */\n      dup2\n        /* \"#utility.yul\":7903:7933   */\n      gt\n        /* \"#utility.yul\":7900:8017   */\n      iszero\n      tag_217\n      jumpi\n        /* \"#utility.yul\":7936:8015   */\n      tag_218\n      tag_98\n      jump\t// in\n    tag_218:\n        /* \"#utility.yul\":7900:8017   */\n    tag_217:\n        /* \"#utility.yul\":8041:8104   */\n      tag_219\n        /* \"#utility.yul\":8096:8103   */\n      dup11\n        /* \"#utility.yul\":8087:8093   */\n      dup3\n        /* \"#utility.yul\":8076:8085   */\n      dup12\n        /* \"#utility.yul\":8072:8094   */\n      add\n        /* \"#utility.yul\":8041:8104   */\n      tag_107\n      jump\t// in\n    tag_219:\n        /* \"#utility.yul\":8031:8104   */\n      swap4\n      pop\n        /* \"#utility.yul\":7825:8114   */\n      pop\n        /* \"#utility.yul\":8181:8184   */\n      0xa0\n        /* \"#utility.yul\":8170:8179   */\n      dup9\n        /* \"#utility.yul\":8166:8185   */\n      add\n        /* \"#utility.yul\":8153:8186   */\n      calldataload\n        /* \"#utility.yul\":8213:8231   */\n      0xffffffffffffffff\n        /* \"#utility.yul\":8205:8211   */\n      dup2\n        /* \"#utility.yul\":8202:8232   */\n      gt\n        /* \"#utility.yul\":8199:8316   */\n      iszero\n      tag_220\n      jumpi\n        /* \"#utility.yul\":8235:8314   */\n      tag_221\n      tag_98\n      jump\t// in\n    tag_221:\n        /* \"#utility.yul\":8199:8316   */\n    tag_220:\n        /* \"#utility.yul\":8340:8403   */\n      tag_222\n        /* \"#utility.yul\":8395:8402   */\n      dup11\n        /* \"#utility.yul\":8386:8392   */\n      dup3\n        /* \"#utility.yul\":8375:8384   */\n      dup12\n        /* \"#utility.yul\":8371:8393   */\n      add\n        /* \"#utility.yul\":8340:8403   */\n      tag_107\n      jump\t// in\n    tag_222:\n        /* \"#utility.yul\":8330:8403   */\n      swap3\n      pop\n        /* \"#utility.yul\":8124:8413   */\n      pop\n        /* \"#utility.yul\":8452:8455   */\n      0xc0\n        /* \"#utility.yul\":8479:8529   */\n      tag_223\n        /* \"#utility.yul\":8521:8528   */\n      dup11\n        /* \"#utility.yul\":8512:8518   */\n      dup3\n        /* \"#utility.yul\":8501:8510   */\n      dup12\n        /* \"#utility.yul\":8497:8519   */\n      add\n        /* \"#utility.yul\":8479:8529   */\n      tag_109\n      jump\t// in\n    tag_223:\n        /* \"#utility.yul\":8469:8529   */\n      swap2\n      pop\n        /* \"#utility.yul\":8423:8539   */\n      pop\n        /* \"#utility.yul\":6269:8546   */\n      swap3\n      swap6\n      swap9\n      swap2\n      swap5\n      swap8\n      pop\n      swap3\n      swap6\n      pop\n      jump\t// out\n        /* \"#utility.yul\":8552:8656   */\n    tag_110:\n        /* \"#utility.yul\":8597:8604   */\n      0x00\n        /* \"#utility.yul\":8626:8650   */\n      tag_225\n        /* \"#utility.yul\":8644:8649   */\n      dup3\n        /* \"#utility.yul\":8626:8650   */\n      tag_93\n      jump\t// in\n    tag_225:\n        /* \"#utility.yul\":8615:8650   */\n      swap1\n      pop\n        /* \"#utility.yul\":8552:8656   */\n      swap2\n      swap1\n      pop\n      jump\t// out\n        /* \"#utility.yul\":8662:8804   */\n    tag_111:\n        /* \"#utility.yul\":8765:8797   */\n      tag_227\n        /* \"#utility.yul\":8791:8796   */\n      dup2\n        /* \"#utility.yul\":8765:8797   */\n      tag_110\n      jump\t// in\n    tag_227:\n        /* \"#utility.yul\":8760:8763   */\n      dup3\n        /* \"#utility.yul\":8753:8798   */\n      mstore\n        /* \"#utility.yul\":8662:8804   */\n      pop\n      pop\n      jump\t// out\n        /* \"#utility.yul\":8810:9064   */\n    tag_28:\n        /* \"#utility.yul\":8919:8923   */\n      0x00\n        /* \"#utility.yul\":8957:8959   */\n      0x20\n        /* \"#utility.yul\":8946:8955   */\n      dup3\n        /* \"#utility.yul\":8942:8960   */\n      add\n        /* \"#utility.yul\":8934:8960   */\n      swap1\n      pop\n        /* \"#utility.yul\":8970:9057   */\n      tag_229\n        /* \"#utility.yul\":9054:9055   */\n      0x00\n        /* \"#utility.yul\":9043:9052   */\n      dup4\n        /* \"#utility.yul\":9039:9056   */\n      add\n        /* \"#utility.yul\":9030:9036   */\n      dup5\n        /* \"#utility.yul\":8970:9057   */\n      tag_111\n      jump\t// in\n    tag_229:\n        /* \"#utility.yul\":8810:9064   */\n      swap3\n      swap2\n      pop\n      pop\n      jump\t// out\n        /* \"#utility.yul\":9070:9301   */\n    tag_112:\n        /* \"#utility.yul\":9210:9244   */\n      0x536f6c6f20656c2070726f706965746172696f20707565646520726574697261\n        /* \"#utility.yul\":9206:9207   */\n      0x00\n        /* \"#utility.yul\":9198:9204   */\n      dup3\n        /* \"#utility.yul\":9194:9208   */\n      add\n        /* \"#utility.yul\":9187:9245   */\n      mstore\n        /* \"#utility.yul\":9279:9293   */\n      0x72206c6f7320666f6e646f730000000000000000000000000000000000000000\n        /* \"#utility.yul\":9274:9276   */\n      0x20\n        /* \"#utility.yul\":9266:9272   */\n      dup3\n        /* \"#utility.yul\":9262:9277   */\n      add\n        /* \"#utility.yul\":9255:9294   */\n      mstore\n        /* \"#utility.yul\":9070:9301   */\n      pop\n      jump\t// out\n        /* \"#utility.yul\":9307:9673   */\n    tag_113:\n        /* \"#utility.yul\":9449:9452   */\n      0x00\n        /* \"#utility.yul\":9470:9537   */\n      tag_232\n        /* \"#utility.yul\":9534:9536   */\n      0x2c\n        /* \"#utility.yul\":9529:9532   */\n      dup4\n        /* \"#utility.yul\":9470:9537   */\n      tag_87\n      jump\t// in\n    tag_232:\n        /* \"#utility.yul\":9463:9537   */\n      swap2\n      pop\n        /* \"#utility.yul\":9546:9639   */\n      tag_233\n        /* \"#utility.yul\":9635:9638   */\n      dup3\n        /* \"#utility.yul\":9546:9639   */\n      tag_112\n      jump\t// in\n    tag_233:\n        /* \"#utility.yul\":9664:9666   */\n      0x40\n        /* \"#utility.yul\":9659:9662   */\n      dup3\n        /* \"#utility.yul\":9655:9667   */\n      add\n        /* \"#utility.yul\":9648:9667   */\n      swap1\n      pop\n        /* \"#utility.yul\":9307:9673   */\n      swap2\n      swap1\n      pop\n      jump\t// out\n        /* \"#utility.yul\":9679:10098   */\n    tag_33:\n        /* \"#utility.yul\":9845:9849   */\n      0x00\n        /* \"#utility.yul\":9883:9885   */\n      0x20\n        /* \"#utility.yul\":9872:9881   */\n      dup3\n        /* \"#utility.yul\":9868:9886   */\n      add\n        /* \"#utility.yul\":9860:9886   */\n      swap1\n      pop\n        /* \"#utility.yul\":9932:9941   */\n      dup2\n        /* \"#utility.yul\":9926:9930   */\n      dup2\n        /* \"#utility.yul\":9922:9942   */\n      sub\n        /* \"#utility.yul\":9918:9919   */\n      0x00\n        /* \"#utility.yul\":9907:9916   */\n      dup4\n        /* \"#utility.yul\":9903:9920   */\n      add\n        /* \"#utility.yul\":9896:9943   */\n      mstore\n        /* \"#utility.yul\":9960:10091   */\n      tag_235\n        /* \"#utility.yul\":10086:10090   */\n      dup2\n        /* \"#utility.yul\":9960:10091   */\n      tag_113\n      jump\t// in\n    tag_235:\n        /* \"#utility.yul\":9952:10091   */\n      swap1\n      pop\n        /* \"#utility.yul\":9679:10098   */\n      swap2\n      swap1\n      pop\n      jump\t// out\n        /* \"#utility.yul\":10104:10286   */\n    tag_114:\n        /* \"#utility.yul\":10244:10278   */\n      0x456c20636f6e747261746f206e6f206375656e746120636f6e20666f6e646f73\n        /* \"#utility.yul\":10240:10241   */\n      0x00\n        /* \"#utility.yul\":10232:10238   */\n      dup3\n        /* \"#utility.yul\":10228:10242   */\n      add\n        /* \"#utility.yul\":10221:10279   */\n      mstore\n        /* \"#utility.yul\":10104:10286   */\n      pop\n      jump\t// out\n        /* \"#utility.yul\":10292:10658   */\n    tag_115:\n        /* \"#utility.yul\":10434:10437   */\n      0x00\n        /* \"#utility.yul\":10455:10522   */\n      tag_238\n        /* \"#utility.yul\":10519:10521   */\n      0x20\n        /* \"#utility.yul\":10514:10517   */\n      dup4\n        /* \"#utility.yul\":10455:10522   */\n      tag_87\n      jump\t// in\n    tag_238:\n        /* \"#utility.yul\":10448:10522   */\n      swap2\n      pop\n        /* \"#utility.yul\":10531:10624   */\n      tag_239\n        /* \"#utility.yul\":10620:10623   */\n      dup3\n        /* \"#utility.yul\":10531:10624   */\n      tag_114\n      jump\t// in\n    tag_239:\n        /* \"#utility.yul\":10649:10651   */\n      0x20\n        /* \"#utility.yul\":10644:10647   */\n      dup3\n        /* \"#utility.yul\":10640:10652   */\n      add\n        /* \"#utility.yul\":10633:10652   */\n      swap1\n      pop\n        /* \"#utility.yul\":10292:10658   */\n      swap2\n      swap1\n      pop\n      jump\t// out\n        /* \"#utility.yul\":10664:11083   */\n    tag_37:\n        /* \"#utility.yul\":10830:10834   */\n      0x00\n        /* \"#utility.yul\":10868:10870   */\n      0x20\n        /* \"#utility.yul\":10857:10866   */\n      dup3\n        /* \"#utility.yul\":10853:10871   */\n      add\n        /* \"#utility.yul\":10845:10871   */\n      swap1\n      pop\n        /* \"#utility.yul\":10917:10926   */\n      dup2\n        /* \"#utility.yul\":10911:10915   */\n      dup2\n        /* \"#utility.yul\":10907:10927   */\n      sub\n        /* \"#utility.yul\":10903:10904   */\n      0x00\n        /* \"#utility.yul\":10892:10901   */\n      dup4\n        /* \"#utility.yul\":10888:10905   */\n      add\n        /* \"#utility.yul\":10881:10928   */\n      mstore\n        /* \"#utility.yul\":10945:11076   */\n      tag_241\n        /* \"#utility.yul\":11071:11075   */\n      dup2\n        /* \"#utility.yul\":10945:11076   */\n      tag_115\n      jump\t// in\n    tag_241:\n        /* \"#utility.yul\":10937:11076   */\n      swap1\n      pop\n        /* \"#utility.yul\":10664:11083   */\n      swap2\n      swap1\n      pop\n      jump\t// out\n        /* \"#utility.yul\":11089:11269   */\n    tag_116:\n        /* \"#utility.yul\":11137:11214   */\n      0x4e487b7100000000000000000000000000000000000000000000000000000000\n        /* \"#utility.yul\":11134:11135   */\n      0x00\n        /* \"#utility.yul\":11127:11215   */\n      mstore\n        /* \"#utility.yul\":11234:11238   */\n      0x22\n        /* \"#utility.yul\":11231:11232   */\n      0x04\n        /* \"#utility.yul\":11224:11239   */\n      mstore\n        /* \"#utility.yul\":11258:11262   */\n      0x24\n        /* \"#utility.yul\":11255:11256   */\n      0x00\n        /* \"#utility.yul\":11248:11263   */\n      revert\n        /* \"#utility.yul\":11275:11595   */\n    tag_41:\n        /* \"#utility.yul\":11319:11325   */\n      0x00\n        /* \"#utility.yul\":11356:11357   */\n      0x02\n        /* \"#utility.yul\":11350:11354   */\n      dup3\n        /* \"#utility.yul\":11346:11358   */\n      div\n        /* \"#utility.yul\":11336:11358   */\n      swap1\n      pop\n        /* \"#utility.yul\":11403:11404   */\n      0x01\n        /* \"#utility.yul\":11397:11401   */\n      dup3\n        /* \"#utility.yul\":11393:11405   */\n      and\n        /* \"#utility.yul\":11424:11442   */\n      dup1\n        /* \"#utility.yul\":11414:11495   */\n      tag_244\n      jumpi\n        /* \"#utility.yul\":11480:11484   */\n      0x7f\n        /* \"#utility.yul\":11472:11478   */\n      dup3\n        /* \"#utility.yul\":11468:11485   */\n      and\n        /* \"#utility.yul\":11458:11485   */\n      swap2\n      pop\n        /* \"#utility.yul\":11414:11495   */\n    tag_244:\n        /* \"#utility.yul\":11542:11544   */\n      0x20\n        /* \"#utility.yul\":11534:11540   */\n      dup3\n        /* \"#utility.yul\":11531:11545   */\n      lt\n        /* \"#utility.yul\":11511:11529   */\n      dup2\n        /* \"#utility.yul\":11508:11546   */\n      sub\n        /* \"#utility.yul\":11505:11589   */\n      tag_245\n      jumpi\n        /* \"#utility.yul\":11561:11579   */\n      tag_246\n      tag_116\n      jump\t// in\n    tag_246:\n        /* \"#utility.yul\":11505:11589   */\n    tag_245:\n        /* \"#utility.yul\":11326:11595   */\n      pop\n        /* \"#utility.yul\":11275:11595   */\n      swap2\n      swap1\n      pop\n      jump\t// out\n        /* \"#utility.yul\":11601:11823   */\n    tag_117:\n        /* \"#utility.yul\":11741:11775   */\n      0x4e6f207469656e652073616c646f20656e20415242207061726120656a656375\n        /* \"#utility.yul\":11737:11738   */\n      0x00\n        /* \"#utility.yul\":11729:11735   */\n      dup3\n        /* \"#utility.yul\":11725:11739   */\n      add\n        /* \"#utility.yul\":11718:11776   */\n      mstore\n        /* \"#utility.yul\":11810:11815   */\n      0x7461720000000000000000000000000000000000000000000000000000000000\n        /* \"#utility.yul\":11805:11807   */\n      0x20\n        /* \"#utility.yul\":11797:11803   */\n      dup3\n        /* \"#utility.yul\":11793:11808   */\n      add\n        /* \"#utility.yul\":11786:11816   */\n      mstore\n        /* \"#utility.yul\":11601:11823   */\n      pop\n      jump\t// out\n        /* \"#utility.yul\":11829:12195   */\n    tag_118:\n        /* \"#utility.yul\":11971:11974   */\n      0x00\n        /* \"#utility.yul\":11992:12059   */\n      tag_249\n        /* \"#utility.yul\":12056:12058   */\n      0x23\n        /* \"#utility.yul\":12051:12054   */\n      dup4\n        /* \"#utility.yul\":11992:12059   */\n      tag_87\n      jump\t// in\n    tag_249:\n        /* \"#utility.yul\":11985:12059   */\n      swap2\n      pop\n        /* \"#utility.yul\":12068:12161   */\n      tag_250\n        /* \"#utility.yul\":12157:12160   */\n      dup3\n        /* \"#utility.yul\":12068:12161   */\n      tag_117\n      jump\t// in\n    tag_250:\n        /* \"#utility.yul\":12186:12188   */\n      0x40\n        /* \"#utility.yul\":12181:12184   */\n      dup3\n        /* \"#utility.yul\":12177:12189   */\n      add\n        /* \"#utility.yul\":12170:12189   */\n      swap1\n      pop\n        /* \"#utility.yul\":11829:12195   */\n      swap2\n      swap1\n      pop\n      jump\t// out\n        /* \"#utility.yul\":12201:12620   */\n    tag_74:\n        /* \"#utility.yul\":12367:12371   */\n      0x00\n        /* \"#utility.yul\":12405:12407   */\n      0x20\n        /* \"#utility.yul\":12394:12403   */\n      dup3\n        /* \"#utility.yul\":12390:12408   */\n      add\n        /* \"#utility.yul\":12382:12408   */\n      swap1\n      pop\n        /* \"#utility.yul\":12454:12463   */\n      dup2\n        /* \"#utility.yul\":12448:12452   */\n      dup2\n        /* \"#utility.yul\":12444:12464   */\n      sub\n        /* \"#utility.yul\":12440:12441   */\n      0x00\n        /* \"#utility.yul\":12429:12438   */\n      dup4\n        /* \"#utility.yul\":12425:12442   */\n      add\n        /* \"#utility.yul\":12418:12465   */\n      mstore\n        /* \"#utility.yul\":12482:12613   */\n      tag_252\n        /* \"#utility.yul\":12608:12612   */\n      dup2\n        /* \"#utility.yul\":12482:12613   */\n      tag_118\n      jump\t// in\n    tag_252:\n        /* \"#utility.yul\":12474:12613   */\n      swap1\n      pop\n        /* \"#utility.yul\":12201:12620   */\n      swap2\n      swap1\n      pop\n      jump\t// out\n        /* \"#utility.yul\":12626:12767   */\n    tag_119:\n        /* \"#utility.yul\":12675:12679   */\n      0x00\n        /* \"#utility.yul\":12698:12701   */\n      dup2\n        /* \"#utility.yul\":12690:12701   */\n      swap1\n      pop\n        /* \"#utility.yul\":12721:12724   */\n      dup2\n        /* \"#utility.yul\":12718:12719   */\n      0x00\n        /* \"#utility.yul\":12711:12725   */\n      mstore\n        /* \"#utility.yul\":12755:12759   */\n      0x20\n        /* \"#utility.yul\":12752:12753   */\n      0x00\n        /* \"#utility.yul\":12742:12760   */\n      keccak256\n        /* \"#utility.yul\":12734:12760   */\n      swap1\n      pop\n        /* \"#utility.yul\":12626:12767   */\n      swap2\n      swap1\n      pop\n      jump\t// out\n        /* \"#utility.yul\":12773:12866   */\n    tag_120:\n        /* \"#utility.yul\":12810:12816   */\n      0x00\n        /* \"#utility.yul\":12857:12859   */\n      0x20\n        /* \"#utility.yul\":12852:12854   */\n      0x1f\n        /* \"#utility.yul\":12845:12850   */\n      dup4\n        /* \"#utility.yul\":12841:12855   */\n      add\n        /* \"#utility.yul\":12837:12860   */\n      div\n        /* \"#utility.yul\":12827:12860   */\n      swap1\n      pop\n        /* \"#utility.yul\":12773:12866   */\n      swap2\n      swap1\n      pop\n      jump\t// out\n        /* \"#utility.yul\":12872:12979   */\n    tag_121:\n        /* \"#utility.yul\":12916:12924   */\n      0x00\n        /* \"#utility.yul\":12966:12971   */\n      dup3\n        /* \"#utility.yul\":12960:12964   */\n      dup3\n        /* \"#utility.yul\":12956:12972   */\n      shl\n        /* \"#utility.yul\":12935:12972   */\n      swap1\n      pop\n        /* \"#utility.yul\":12872:12979   */\n      swap3\n      swap2\n      pop\n      pop\n      jump\t// out\n        /* \"#utility.yul\":12985:13378   */\n    tag_122:\n        /* \"#utility.yul\":13054:13060   */\n      0x00\n        /* \"#utility.yul\":13104:13105   */\n      0x08\n        /* \"#utility.yul\":13092:13102   */\n      dup4\n        /* \"#utility.yul\":13088:13106   */\n      mul\n        /* \"#utility.yul\":13127:13224   */\n      tag_257\n        /* \"#utility.yul\":13157:13223   */\n      0xffffffffffffffffffffffffffffffffffffffffffffffffffffffffffffffff\n        /* \"#utility.yul\":13146:13155   */\n      dup3\n        /* \"#utility.yul\":13127:13224   */\n      tag_121\n      jump\t// in\n    tag_257:\n        /* \"#utility.yul\":13245:13284   */\n      tag_258\n        /* \"#utility.yul\":13275:13283   */\n      dup7\n        /* \"#utility.yul\":13264:13273   */\n      dup4\n        /* \"#utility.yul\":13245:13284   */\n      tag_121\n      jump\t// in\n    tag_258:\n        /* \"#utility.yul\":13233:13284   */\n      swap6\n      pop\n        /* \"#utility.yul\":13317:13321   */\n      dup1\n        /* \"#utility.yul\":13313:13322   */\n      not\n        /* \"#utility.yul\":13306:13311   */\n      dup5\n        /* \"#utility.yul\":13302:13323   */\n      and\n        /* \"#utility.yul\":13293:13323   */\n      swap4\n      pop\n        /* \"#utility.yul\":13366:13370   */\n      dup1\n        /* \"#utility.yul\":13356:13364   */\n      dup7\n        /* \"#utility.yul\":13352:13371   */\n      and\n        /* \"#utility.yul\":13345:13350   */\n      dup5\n        /* \"#utility.yul\":13342:13372   */\n      or\n        /* \"#utility.yul\":13332:13372   */\n      swap3\n      pop\n        /* \"#utility.yul\":13061:13378   */\n      pop\n      pop\n        /* \"#utility.yul\":12985:13378   */\n      swap4\n      swap3\n      pop\n      pop\n      pop\n      jump\t// out\n        /* \"#utility.yul\":13384:13444   */\n    tag_123:\n        /* \"#utility.yul\":13412:13415   */\n      0x00\n        /* \"#utility.yul\":13433:13438   */\n      dup2\n        /* \"#utility.yul\":13426:13438   */\n      swap1\n      pop\n        /* \"#utility.yul\":13384:13444   */\n      swap2\n      swap1\n      pop\n      jump\t// out\n        /* \"#utility.yul\":13450:13592   */\n    tag_124:\n        /* \"#utility.yul\":13500:13509   */\n      0x00\n        /* \"#utility.yul\":13533:13586   */\n      tag_261\n        /* \"#utility.yul\":13551:13585   */\n      tag_262\n        /* \"#utility.yul\":13560:13584   */\n      tag_263\n        /* \"#utility.yul\":13578:13583   */\n      dup5\n        /* \"#utility.yul\":13560:13584   */\n      tag_84\n      jump\t// in\n    tag_263:\n        /* \"#utility.yul\":13551:13585   */\n      tag_123\n      jump\t// in\n    tag_262:\n        /* \"#utility.yul\":13533:13586   */\n      tag_84\n      jump\t// in\n    tag_261:\n        /* \"#utility.yul\":13520:13586   */\n      swap1\n      pop\n        /* \"#utility.yul\":13450:13592   */\n      swap2\n      swap1\n      pop\n      jump\t// out\n        /* \"#utility.yul\":13598:13673   */\n    tag_125:\n        /* \"#utility.yul\":13641:13644   */\n      0x00\n        /* \"#utility.yul\":13662:13667   */\n      dup2\n        /* \"#utility.yul\":13655:13667   */\n      swap1\n      pop\n        /* \"#utility.yul\":13598:13673   */\n      swap2\n      swap1\n      pop\n      jump\t// out\n        /* \"#utility.yul\":13679:13948   */\n    tag_126:\n        /* \"#utility.yul\":13789:13828   */\n      tag_266\n        /* \"#utility.yul\":13820:13827   */\n      dup4\n        /* \"#utility.yul\":13789:13828   */\n      tag_124\n      jump\t// in\n    tag_266:\n        /* \"#utility.yul\":13850:13941   */\n      tag_267\n        /* \"#utility.yul\":13899:13940   */\n      tag_268\n        /* \"#utility.yul\":13923:13939   */\n      dup3\n        /* \"#utility.yul\":13899:13940   */\n      tag_125\n      jump\t// in\n    tag_268:\n        /* \"#utility.yul\":13891:13897   */\n      dup5\n        /* \"#utility.yul\":13884:13888   */\n      dup5\n        /* \"#utility.yul\":13878:13889   */\n      sload\n        /* \"#utility.yul\":13850:13941   */\n      tag_122\n      jump\t// in\n    tag_267:\n        /* \"#utility.yul\":13844:13848   */\n      dup3\n        /* \"#utility.yul\":13837:13942   */\n      sstore\n        /* \"#utility.yul\":13755:13948   */\n      pop\n        /* \"#utility.yul\":13679:13948   */\n      pop\n      pop\n      pop\n      jump\t// out\n        /* \"#utility.yul\":13954:14027   */\n    tag_127:\n        /* \"#utility.yul\":13999:14002   */\n      0x00\n        /* \"#utility.yul\":13954:14027   */\n      swap1\n      jump\t// out\n        /* \"#utility.yul\":14033:14222   */\n    tag_128:\n        /* \"#utility.yul\":14110:14142   */\n      tag_271\n      tag_127\n      jump\t// in\n    tag_271:\n        /* \"#utility.yul\":14151:14216   */\n      tag_272\n        /* \"#utility.yul\":14209:14215   */\n      dup2\n        /* \"#utility.yul\":14201:14207   */\n      dup5\n        /* \"#utility.yul\":14195:14199   */\n      dup5\n        /* \"#utility.yul\":14151:14216   */\n      tag_126\n      jump\t// in\n    tag_272:\n        /* \"#utility.yul\":14086:14222   */\n      pop\n        /* \"#utility.yul\":14033:14222   */\n      pop\n      pop\n      jump\t// out\n        /* \"#utility.yul\":14228:14414   */\n    tag_129:\n        /* \"#utility.yul\":14288:14408   */\n    tag_274:\n        /* \"#utility.yul\":14305:14308   */\n      dup2\n        /* \"#utility.yul\":14298:14303   */\n      dup2\n        /* \"#utility.yul\":14295:14309   */\n      lt\n        /* \"#utility.yul\":14288:14408   */\n      iszero\n      tag_276\n      jumpi\n        /* \"#utility.yul\":14359:14398   */\n      tag_277\n        /* \"#utility.yul\":14396:14397   */\n      0x00\n        /* \"#utility.yul\":14389:14394   */\n      dup3\n        /* \"#utility.yul\":14359:14398   */\n      tag_128\n      jump\t// in\n    tag_277:\n        /* \"#utility.yul\":14332:14333   */\n      0x01\n        /* \"#utility.yul\":14325:14330   */\n      dup2\n        /* \"#utility.yul\":14321:14334   */\n      add\n        /* \"#utility.yul\":14312:14334   */\n      swap1\n      pop\n        /* \"#utility.yul\":14288:14408   */\n      jump(tag_274)\n    tag_276:\n        /* \"#utility.yul\":14228:14414   */\n      pop\n      pop\n      jump\t// out\n        /* \"#utility.yul\":14420:14963   */\n    tag_130:\n        /* \"#utility.yul\":14521:14523   */\n      0x1f\n        /* \"#utility.yul\":14516:14519   */\n      dup3\n        /* \"#utility.yul\":14513:14524   */\n      gt\n        /* \"#utility.yul\":14510:14956   */\n      iszero\n      tag_279\n      jumpi\n        /* \"#utility.yul\":14555:14593   */\n      tag_280\n        /* \"#utility.yul\":14587:14592   */\n      dup2\n        /* \"#utility.yul\":14555:14593   */\n      tag_119\n      jump\t// in\n    tag_280:\n        /* \"#utility.yul\":14639:14668   */\n      tag_281\n        /* \"#utility.yul\":14657:14667   */\n      dup5\n        /* \"#utility.yul\":14639:14668   */\n      tag_120\n      jump\t// in\n    tag_281:\n        /* \"#utility.yul\":14629:14637   */\n      dup2\n        /* \"#utility.yul\":14625:14669   */\n      add\n        /* \"#utility.yul\":14822:14824   */\n      0x20\n        /* \"#utility.yul\":14810:14820   */\n      dup6\n        /* \"#utility.yul\":14807:14825   */\n      lt\n        /* \"#utility.yul\":14804:14853   */\n      iszero\n      tag_282\n      jumpi\n        /* \"#utility.yul\":14843:14851   */\n      dup2\n        /* \"#utility.yul\":14828:14851   */\n      swap1\n      pop\n        /* \"#utility.yul\":14804:14853   */\n    tag_282:\n        /* \"#utility.yul\":14866:14946   */\n      tag_283\n        /* \"#utility.yul\":14922:14944   */\n      tag_284\n        /* \"#utility.yul\":14940:14943   */\n      dup6\n        /* \"#utility.yul\":14922:14944   */\n      tag_120\n      jump\t// in\n    tag_284:\n        /* \"#utility.yul\":14912:14920   */\n      dup4\n        /* \"#utility.yul\":14908:14945   */\n      add\n        /* \"#utility.yul\":14895:14906   */\n      dup3\n        /* \"#utility.yul\":14866:14946   */\n      tag_129\n      jump\t// in\n    tag_283:\n        /* \"#utility.yul\":14525:14956   */\n      pop\n      pop\n        /* \"#utility.yul\":14510:14956   */\n    tag_279:\n        /* \"#utility.yul\":14420:14963   */\n      pop\n      pop\n      pop\n      jump\t// out\n        /* \"#utility.yul\":14969:15086   */\n    tag_131:\n        /* \"#utility.yul\":15023:15031   */\n      0x00\n        /* \"#utility.yul\":15073:15078   */\n      dup3\n        /* \"#utility.yul\":15067:15071   */\n      dup3\n        /* \"#utility.yul\":15063:15079   */\n      shr\n        /* \"#utility.yul\":15042:15079   */\n      swap1\n      pop\n        /* \"#utility.yul\":14969:15086   */\n      swap3\n      swap2\n      pop\n      pop\n      jump\t// out\n        /* \"#utility.yul\":15092:15261   */\n    tag_132:\n        /* \"#utility.yul\":15136:15142   */\n      0x00\n        /* \"#utility.yul\":15169:15220   */\n      tag_287\n        /* \"#utility.yul\":15217:15218   */\n      0x00\n        /* \"#utility.yul\":15213:15219   */\n      not\n        /* \"#utility.yul\":15205:15210   */\n      dup5\n        /* \"#utility.yul\":15202:15203   */\n      0x08\n        /* \"#utility.yul\":15198:15211   */\n      mul\n        /* \"#utility.yul\":15169:15220   */\n      tag_131\n      jump\t// in\n    tag_287:\n        /* \"#utility.yul\":15165:15221   */\n      not\n        /* \"#utility.yul\":15250:15254   */\n      dup1\n        /* \"#utility.yul\":15244:15248   */\n      dup4\n        /* \"#utility.yul\":15240:15255   */\n      and\n        /* \"#utility.yul\":15230:15255   */\n      swap2\n      pop\n        /* \"#utility.yul\":15143:15261   */\n      pop\n        /* \"#utility.yul\":15092:15261   */\n      swap3\n      swap2\n      pop\n      pop\n      jump\t// out\n        /* \"#utility.yul\":15266:15561   */\n    tag_133:\n        /* \"#utility.yul\":15342:15346   */\n      0x00\n        /* \"#utility.yul\":15488:15517   */\n      tag_289\n        /* \"#utility.yul\":15513:15516   */\n      dup4\n        /* \"#utility.yul\":15507:15511   */\n      dup4\n        /* \"#utility.yul\":15488:15517   */\n      tag_132\n      jump\t// in\n    tag_289:\n        /* \"#utility.yul\":15480:15517   */\n      swap2\n      pop\n        /* \"#utility.yul\":15550:15553   */\n      dup3\n        /* \"#utility.yul\":15547:15548   */\n      0x02\n        /* \"#utility.yul\":15543:15554   */\n      mul\n        /* \"#utility.yul\":15537:15541   */\n      dup3\n        /* \"#utility.yul\":15534:15555   */\n      or\n        /* \"#utility.yul\":15526:15555   */\n      swap1\n      pop\n        /* \"#utility.yul\":15266:15561   */\n      swap3\n      swap2\n      pop\n      pop\n      jump\t// out\n        /* \"#utility.yul\":15566:16961   */\n    tag_77:\n        /* \"#utility.yul\":15683:15720   */\n      tag_291\n        /* \"#utility.yul\":15716:15719   */\n      dup3\n        /* \"#utility.yul\":15683:15720   */\n      tag_86\n      jump\t// in\n    tag_291:\n        /* \"#utility.yul\":15785:15803   */\n      0xffffffffffffffff\n        /* \"#utility.yul\":15777:15783   */\n      dup2\n        /* \"#utility.yul\":15774:15804   */\n      gt\n        /* \"#utility.yul\":15771:15827   */\n      iszero\n      tag_292\n      jumpi\n        /* \"#utility.yul\":15807:15825   */\n      tag_293\n      tag_101\n      jump\t// in\n    tag_293:\n        /* \"#utility.yul\":15771:15827   */\n    tag_292:\n        /* \"#utility.yul\":15851:15889   */\n      tag_294\n        /* \"#utility.yul\":15883:15887   */\n      dup3\n        /* \"#utility.yul\":15877:15888   */\n      sload\n        /* \"#utility.yul\":15851:15889   */\n      tag_41\n      jump\t// in\n    tag_294:\n        /* \"#utility.yul\":15936:16003   */\n      tag_295\n        /* \"#utility.yul\":15996:16002   */\n      dup3\n        /* \"#utility.yul\":15988:15994   */\n      dup3\n        /* \"#utility.yul\":15982:15986   */\n      dup6\n        /* \"#utility.yul\":15936:16003   */\n      tag_130\n      jump\t// in\n    tag_295:\n        /* \"#utility.yul\":16030:16031   */\n      0x00\n        /* \"#utility.yul\":16054:16058   */\n      0x20\n        /* \"#utility.yul\":16041:16058   */\n      swap1\n      pop\n        /* \"#utility.yul\":16086:16088   */\n      0x1f\n        /* \"#utility.yul\":16078:16084   */\n      dup4\n        /* \"#utility.yul\":16075:16089   */\n      gt\n        /* \"#utility.yul\":16103:16104   */\n      0x01\n        /* \"#utility.yul\":16098:16716   */\n      dup2\n      eq\n      tag_297\n      jumpi\n        /* \"#utility.yul\":16760:16761   */\n      0x00\n        /* \"#utility.yul\":16777:16783   */\n      dup5\n        /* \"#utility.yul\":16774:16851   */\n      iszero\n      tag_298\n      jumpi\n        /* \"#utility.yul\":16826:16835   */\n      dup3\n        /* \"#utility.yul\":16821:16824   */\n      dup8\n        /* \"#utility.yul\":16817:16836   */\n      add\n        /* \"#utility.yul\":16811:16837   */\n      mload\n        /* \"#utility.yul\":16802:16837   */\n      swap1\n      pop\n        /* \"#utility.yul\":16774:16851   */\n    tag_298:\n        /* \"#utility.yul\":16877:16944   */\n      tag_299\n        /* \"#utility.yul\":16937:16943   */\n      dup6\n        /* \"#utility.yul\":16930:16935   */\n      dup3\n        /* \"#utility.yul\":16877:16944   */\n      tag_133\n      jump\t// in\n    tag_299:\n        /* \"#utility.yul\":16871:16875   */\n      dup7\n        /* \"#utility.yul\":16864:16945   */\n      sstore\n        /* \"#utility.yul\":16733:16955   */\n      pop\n        /* \"#utility.yul\":16068:16955   */\n      jump(tag_296)\n        /* \"#utility.yul\":16098:16716   */\n    tag_297:\n        /* \"#utility.yul\":16150:16154   */\n      0x1f\n        /* \"#utility.yul\":16146:16155   */\n      not\n        /* \"#utility.yul\":16138:16144   */\n      dup5\n        /* \"#utility.yul\":16134:16156   */\n      and\n        /* \"#utility.yul\":16184:16221   */\n      tag_300\n        /* \"#utility.yul\":16216:16220   */\n      dup7\n        /* \"#utility.yul\":16184:16221   */\n      tag_119\n      jump\t// in\n    tag_300:\n        /* \"#utility.yul\":16243:16244   */\n      0x00\n        /* \"#utility.yul\":16257:16465   */\n    tag_301:\n        /* \"#utility.yul\":16271:16278   */\n      dup3\n        /* \"#utility.yul\":16268:16269   */\n      dup2\n        /* \"#utility.yul\":16265:16279   */\n      lt\n        /* \"#utility.yul\":16257:16465   */\n      iszero\n      tag_303\n      jumpi\n        /* \"#utility.yul\":16350:16359   */\n      dup5\n        /* \"#utility.yul\":16345:16348   */\n      dup10\n        /* \"#utility.yul\":16341:16360   */\n      add\n        /* \"#utility.yul\":16335:16361   */\n      mload\n        /* \"#utility.yul\":16327:16333   */\n      dup3\n        /* \"#utility.yul\":16320:16362   */\n      sstore\n        /* \"#utility.yul\":16401:16402   */\n      0x01\n        /* \"#utility.yul\":16393:16399   */\n      dup3\n        /* \"#utility.yul\":16389:16403   */\n      add\n        /* \"#utility.yul\":16379:16403   */\n      swap2\n      pop\n        /* \"#utility.yul\":16448:16450   */\n      0x20\n        /* \"#utility.yul\":16437:16446   */\n      dup6\n        /* \"#utility.yul\":16433:16451   */\n      add\n        /* \"#utility.yul\":16420:16451   */\n      swap5\n      pop\n        /* \"#utility.yul\":16294:16298   */\n      0x20\n        /* \"#utility.yul\":16291:16292   */\n      dup2\n        /* \"#utility.yul\":16287:16299   */\n      add\n        /* \"#utility.yul\":16282:16299   */\n      swap1\n      pop\n        /* \"#utility.yul\":16257:16465   */\n      jump(tag_301)\n    tag_303:\n        /* \"#utility.yul\":16493:16499   */\n      dup7\n        /* \"#utility.yul\":16484:16491   */\n      dup4\n        /* \"#utility.yul\":16481:16500   */\n      lt\n        /* \"#utility.yul\":16478:16657   */\n      iszero\n      tag_304\n      jumpi\n        /* \"#utility.yul\":16551:16560   */\n      dup5\n        /* \"#utility.yul\":16546:16549   */\n      dup10\n        /* \"#utility.yul\":16542:16561   */\n      add\n        /* \"#utility.yul\":16536:16562   */\n      mload\n        /* \"#utility.yul\":16594:16642   */\n      tag_305\n        /* \"#utility.yul\":16636:16640   */\n      0x1f\n        /* \"#utility.yul\":16628:16634   */\n      dup10\n        /* \"#utility.yul\":16624:16641   */\n      and\n        /* \"#utility.yul\":16613:16622   */\n      dup3\n        /* \"#utility.yul\":16594:16642   */\n      tag_132\n      jump\t// in\n    tag_305:\n        /* \"#utility.yul\":16586:16592   */\n      dup4\n        /* \"#utility.yul\":16579:16643   */\n      sstore\n        /* \"#utility.yul\":16501:16657   */\n      pop\n        /* \"#utility.yul\":16478:16657   */\n    tag_304:\n        /* \"#utility.yul\":16703:16704   */\n      0x01\n        /* \"#utility.yul\":16699:16700   */\n      0x02\n        /* \"#utility.yul\":16691:16697   */\n      dup9\n        /* \"#utility.yul\":16687:16701   */\n      mul\n        /* \"#utility.yul\":16683:16705   */\n      add\n        /* \"#utility.yul\":16677:16681   */\n      dup9\n        /* \"#utility.yul\":16670:16706   */\n      sstore\n        /* \"#utility.yul\":16105:16716   */\n      pop\n      pop\n      pop\n        /* \"#utility.yul\":16068:16955   */\n    tag_296:\n      pop\n        /* \"#utility.yul\":15658:16961   */\n      pop\n      pop\n      pop\n        /* \"#utility.yul\":15566:16961   */\n      pop\n      pop\n      jump\t// out\n\n    auxdata: 0xa26469706673582212203beabf2c04b32eaede279833c28370f98600bfde336cf63c36360eec858df68964736f6c63430008180033\n}\n",
				"bytecode": {
					"linkReferences": {},
					"object": "608060405234801561000f575f80fd5b50335f806101000a81548173ffffffffffffffffffffffffffffffffffffffff021916908373ffffffffffffffffffffffffffffffffffffffff1602179055506110e98061005c5f395ff3fe608060405260043610610049575f3560e01c806312065fe01461004d5780633ccfd60b1461007757806373d4a13a1461008d578063782154df146100be5780638da5cb5b146100da575b5f80fd5b348015610058575f80fd5b50610061610104565b60405161006e91906107df565b60405180910390f35b348015610082575f80fd5b5061008b61010b565b005b348015610098575f80fd5b506100a1610244565b6040516100b59897969594939291906108db565b60405180910390f35b6100d860048036038101906100d39190610ae8565b6105c8565b005b3480156100e5575f80fd5b506100ee6107a4565b6040516100fb9190610c4d565b60405180910390f35b5f47905090565b5f8054906101000a900473ffffffffffffffffffffffffffffffffffffffff1673ffffffffffffffffffffffffffffffffffffffff163373ffffffffffffffffffffffffffffffffffffffff1614610198576040517f08c379a000000000000000000000000000000000000000000000000000000000815260040161018f90610cd6565b60405180910390fd5b5f4790505f81116101de576040517f08c379a00000000000000000000000000000000000000000000000000000000081526004016101d590610d3e565b60405180910390fd5b5f8054906101000a900473ffffffffffffffffffffffffffffffffffffffff1673ffffffffffffffffffffffffffffffffffffffff166108fc8290811502906040515f60405180830381858888f19350505050158015610240573d5f803e3d5ffd5b5050565b6001805f01805461025490610d89565b80601f016020809104026020016040519081016040528092919081815260200182805461028090610d89565b80156102cb5780601f106102a2576101008083540402835291602001916102cb565b820191905f5260205f20905b8154815290600101906020018083116102ae57829003601f168201915b5050505050908060010180546102e090610d89565b80601f016020809104026020016040519081016040528092919081815260200182805461030c90610d89565b80156103575780601f1061032e57610100808354040283529160200191610357565b820191905f5260205f20905b81548152906001019060200180831161033a57829003601f168201915b50505050509080600201805461036c90610d89565b80601f016020809104026020016040519081016040528092919081815260200182805461039890610d89565b80156103e35780601f106103ba576101008083540402835291602001916103e3565b820191905f5260205f20905b8154815290600101906020018083116103c657829003601f168201915b5050505050908060030180546103f890610d89565b80601f016020809104026020016040519081016040528092919081815260200182805461042490610d89565b801561046f5780601f106104465761010080835404028352916020019161046f565b820191905f5260205f20905b81548152906001019060200180831161045257829003601f168201915b50505050509080600401805461048490610d89565b80601f01602080910402602001604051908101604052809291908181526020018280546104b090610d89565b80156104fb5780601f106104d2576101008083540402835291602001916104fb565b820191905f5260205f20905b8154815290600101906020018083116104de57829003601f168201915b50505050509080600501805461051090610d89565b80601f016020809104026020016040519081016040528092919081815260200182805461053c90610d89565b80156105875780601f1061055e57610100808354040283529160200191610587565b820191905f5260205f20905b81548152906001019060200180831161056a57829003601f168201915b505050505090806006015f9054906101000a90045f0b908060060160019054906101000a900473ffffffffffffffffffffffffffffffffffffffff16905088565b66038d7ea4c6800080341015610613576040517f08c379a000000000000000000000000000000000000000000000000000000000815260040161060a90610e29565b60405180910390fd5b604051806101000160405280898152602001888152602001878152602001868152602001858152602001848152602001835f0b81526020013373ffffffffffffffffffffffffffffffffffffffff1681525060015f820151815f01908161067a9190610fe4565b5060208201518160010190816106909190610fe4565b5060408201518160020190816106a69190610fe4565b5060608201518160030190816106bc9190610fe4565b5060808201518160040190816106d29190610fe4565b5060a08201518160050190816106e89190610fe4565b5060c0820151816006015f6101000a81548160ff02191690835f0b60ff16021790555060e08201518160060160016101000a81548173ffffffffffffffffffffffffffffffffffffffff021916908373ffffffffffffffffffffffffffffffffffffffff1602179055509050507f870247eb151fd35c4907322d059c22cbe7eb7930b7b7116d4a107cbbb5378d1288888888888888336040516107929897969594939291906108db565b60405180910390a15050505050505050565b5f8054906101000a900473ffffffffffffffffffffffffffffffffffffffff1681565b5f819050919050565b6107d9816107c7565b82525050565b5f6020820190506107f25f8301846107d0565b92915050565b5f81519050919050565b5f82825260208201905092915050565b5f5b8381101561082f578082015181840152602081019050610814565b5f8484015250505050565b5f601f19601f8301169050919050565b5f610854826107f8565b61085e8185610802565b935061086e818560208601610812565b6108778161083a565b840191505092915050565b5f815f0b9050919050565b61089681610882565b82525050565b5f73ffffffffffffffffffffffffffffffffffffffff82169050919050565b5f6108c58261089c565b9050919050565b6108d5816108bb565b82525050565b5f610100820190508181035f8301526108f4818b61084a565b90508181036020830152610908818a61084a565b9050818103604083015261091c818961084a565b90508181036060830152610930818861084a565b90508181036080830152610944818761084a565b905081810360a0830152610958818661084a565b905061096760c083018561088d565b61097460e08301846108cc565b9998505050505050505050565b5f604051905090565b5f80fd5b5f80fd5b5f80fd5b5f80fd5b7f4e487b71000000000000000000000000000000000000000000000000000000005f52604160045260245ffd5b6109d08261083a565b810181811067ffffffffffffffff821117156109ef576109ee61099a565b5b80604052505050565b5f610a01610981565b9050610a0d82826109c7565b919050565b5f67ffffffffffffffff821115610a2c57610a2b61099a565b5b610a358261083a565b9050602081019050919050565b828183375f83830152505050565b5f610a62610a5d84610a12565b6109f8565b905082815260208101848484011115610a7e57610a7d610996565b5b610a89848285610a42565b509392505050565b5f82601f830112610aa557610aa4610992565b5b8135610ab5848260208601610a50565b91505092915050565b610ac781610882565b8114610ad1575f80fd5b50565b5f81359050610ae281610abe565b92915050565b5f805f805f805f60e0888a031215610b0357610b0261098a565b5b5f88013567ffffffffffffffff811115610b2057610b1f61098e565b5b610b2c8a828b01610a91565b975050602088013567ffffffffffffffff811115610b4d57610b4c61098e565b5b610b598a828b01610a91565b965050604088013567ffffffffffffffff811115610b7a57610b7961098e565b5b610b868a828b01610a91565b955050606088013567ffffffffffffffff811115610ba757610ba661098e565b5b610bb38a828b01610a91565b945050608088013567ffffffffffffffff811115610bd457610bd361098e565b5b610be08a828b01610a91565b93505060a088013567ffffffffffffffff811115610c0157610c0061098e565b5b610c0d8a828b01610a91565b92505060c0610c1e8a828b01610ad4565b91505092959891949750929550565b5f610c378261089c565b9050919050565b610c4781610c2d565b82525050565b5f602082019050610c605f830184610c3e565b92915050565b7f536f6c6f20656c2070726f706965746172696f207075656465207265746972615f8201527f72206c6f7320666f6e646f730000000000000000000000000000000000000000602082015250565b5f610cc0602c83610802565b9150610ccb82610c66565b604082019050919050565b5f6020820190508181035f830152610ced81610cb4565b9050919050565b7f456c20636f6e747261746f206e6f206375656e746120636f6e20666f6e646f735f82015250565b5f610d28602083610802565b9150610d3382610cf4565b602082019050919050565b5f6020820190508181035f830152610d5581610d1c565b9050919050565b7f4e487b71000000000000000000000000000000000000000000000000000000005f52602260045260245ffd5b5f6002820490506001821680610da057607f821691505b602082108103610db357610db2610d5c565b5b50919050565b7f4e6f207469656e652073616c646f20656e20415242207061726120656a6563755f8201527f7461720000000000000000000000000000000000000000000000000000000000602082015250565b5f610e13602383610802565b9150610e1e82610db9565b604082019050919050565b5f6020820190508181035f830152610e4081610e07565b9050919050565b5f819050815f5260205f209050919050565b5f6020601f8301049050919050565b5f82821b905092915050565b5f60088302610ea37fffffffffffffffffffffffffffffffffffffffffffffffffffffffffffffffff82610e68565b610ead8683610e68565b95508019841693508086168417925050509392505050565b5f819050919050565b5f610ee8610ee3610ede846107c7565b610ec5565b6107c7565b9050919050565b5f819050919050565b610f0183610ece565b610f15610f0d82610eef565b848454610e74565b825550505050565b5f90565b610f29610f1d565b610f34818484610ef8565b505050565b5b81811015610f5757610f4c5f82610f21565b600181019050610f3a565b5050565b601f821115610f9c57610f6d81610e47565b610f7684610e59565b81016020851015610f85578190505b610f99610f9185610e59565b830182610f39565b50505b505050565b5f82821c905092915050565b5f610fbc5f1984600802610fa1565b1980831691505092915050565b5f610fd48383610fad565b9150826002028217905092915050565b610fed826107f8565b67ffffffffffffffff8111156110065761100561099a565b5b6110108254610d89565b61101b828285610f5b565b5f60209050601f83116001811461104c575f841561103a578287015190505b6110448582610fc9565b8655506110ab565b601f19841661105a86610e47565b5f5b828110156110815784890151825560018201915060208501945060208101905061105c565b8683101561109e578489015161109a601f891682610fad565b8355505b6001600288020188555050505b50505050505056fea26469706673582212203beabf2c04b32eaede279833c28370f98600bfde336cf63c36360eec858df68964736f6c63430008180033",
					"opcodes": "PUSH1 0x80 PUSH1 0x40 MSTORE CALLVALUE DUP1 ISZERO PUSH2 0xF JUMPI PUSH0 DUP1 REVERT JUMPDEST POP CALLER PUSH0 DUP1 PUSH2 0x100 EXP DUP2 SLOAD DUP2 PUSH20 0xFFFFFFFFFFFFFFFFFFFFFFFFFFFFFFFFFFFFFFFF MUL NOT AND SWAP1 DUP4 PUSH20 0xFFFFFFFFFFFFFFFFFFFFFFFFFFFFFFFFFFFFFFFF AND MUL OR SWAP1 SSTORE POP PUSH2 0x10E9 DUP1 PUSH2 0x5C PUSH0 CODECOPY PUSH0 RETURN INVALID PUSH1 0x80 PUSH1 0x40 MSTORE PUSH1 0x4 CALLDATASIZE LT PUSH2 0x49 JUMPI PUSH0 CALLDATALOAD PUSH1 0xE0 SHR DUP1 PUSH4 0x12065FE0 EQ PUSH2 0x4D JUMPI DUP1 PUSH4 0x3CCFD60B EQ PUSH2 0x77 JUMPI DUP1 PUSH4 0x73D4A13A EQ PUSH2 0x8D JUMPI DUP1 PUSH4 0x782154DF EQ PUSH2 0xBE JUMPI DUP1 PUSH4 0x8DA5CB5B EQ PUSH2 0xDA JUMPI JUMPDEST PUSH0 DUP1 REVERT JUMPDEST CALLVALUE DUP1 ISZERO PUSH2 0x58 JUMPI PUSH0 DUP1 REVERT JUMPDEST POP PUSH2 0x61 PUSH2 0x104 JUMP JUMPDEST PUSH1 0x40 MLOAD PUSH2 0x6E SWAP2 SWAP1 PUSH2 0x7DF JUMP JUMPDEST PUSH1 0x40 MLOAD DUP1 SWAP2 SUB SWAP1 RETURN JUMPDEST CALLVALUE DUP1 ISZERO PUSH2 0x82 JUMPI PUSH0 DUP1 REVERT JUMPDEST POP PUSH2 0x8B PUSH2 0x10B JUMP JUMPDEST STOP JUMPDEST CALLVALUE DUP1 ISZERO PUSH2 0x98 JUMPI PUSH0 DUP1 REVERT JUMPDEST POP PUSH2 0xA1 PUSH2 0x244 JUMP JUMPDEST PUSH1 0x40 MLOAD PUSH2 0xB5 SWAP9 SWAP8 SWAP7 SWAP6 SWAP5 SWAP4 SWAP3 SWAP2 SWAP1 PUSH2 0x8DB JUMP JUMPDEST PUSH1 0x40 MLOAD DUP1 SWAP2 SUB SWAP1 RETURN JUMPDEST PUSH2 0xD8 PUSH1 0x4 DUP1 CALLDATASIZE SUB DUP2 ADD SWAP1 PUSH2 0xD3 SWAP2 SWAP1 PUSH2 0xAE8 JUMP JUMPDEST PUSH2 0x5C8 JUMP JUMPDEST STOP JUMPDEST CALLVALUE DUP1 ISZERO PUSH2 0xE5 JUMPI PUSH0 DUP1 REVERT JUMPDEST POP PUSH2 0xEE PUSH2 0x7A4 JUMP JUMPDEST PUSH1 0x40 MLOAD PUSH2 0xFB SWAP2 SWAP1 PUSH2 0xC4D JUMP JUMPDEST PUSH1 0x40 MLOAD DUP1 SWAP2 SUB SWAP1 RETURN JUMPDEST PUSH0 SELFBALANCE SWAP1 POP SWAP1 JUMP JUMPDEST PUSH0 DUP1 SLOAD SWAP1 PUSH2 0x100 EXP SWAP1 DIV PUSH20 0xFFFFFFFFFFFFFFFFFFFFFFFFFFFFFFFFFFFFFFFF AND PUSH20 0xFFFFFFFFFFFFFFFFFFFFFFFFFFFFFFFFFFFFFFFF AND CALLER PUSH20 0xFFFFFFFFFFFFFFFFFFFFFFFFFFFFFFFFFFFFFFFF AND EQ PUSH2 0x198 JUMPI PUSH1 0x40 MLOAD PUSH32 0x8C379A000000000000000000000000000000000000000000000000000000000 DUP2 MSTORE PUSH1 0x4 ADD PUSH2 0x18F SWAP1 PUSH2 0xCD6 JUMP JUMPDEST PUSH1 0x40 MLOAD DUP1 SWAP2 SUB SWAP1 REVERT JUMPDEST PUSH0 SELFBALANCE SWAP1 POP PUSH0 DUP2 GT PUSH2 0x1DE JUMPI PUSH1 0x40 MLOAD PUSH32 0x8C379A000000000000000000000000000000000000000000000000000000000 DUP2 MSTORE PUSH1 0x4 ADD PUSH2 0x1D5 SWAP1 PUSH2 0xD3E JUMP JUMPDEST PUSH1 0x40 MLOAD DUP1 SWAP2 SUB SWAP1 REVERT JUMPDEST PUSH0 DUP1 SLOAD SWAP1 PUSH2 0x100 EXP SWAP1 DIV PUSH20 0xFFFFFFFFFFFFFFFFFFFFFFFFFFFFFFFFFFFFFFFF AND PUSH20 0xFFFFFFFFFFFFFFFFFFFFFFFFFFFFFFFFFFFFFFFF AND PUSH2 0x8FC DUP3 SWAP1 DUP2 ISZERO MUL SWAP1 PUSH1 0x40 MLOAD PUSH0 PUSH1 0x40 MLOAD DUP1 DUP4 SUB DUP2 DUP6 DUP9 DUP9 CALL SWAP4 POP POP POP POP ISZERO DUP1 ISZERO PUSH2 0x240 JUMPI RETURNDATASIZE PUSH0 DUP1 RETURNDATACOPY RETURNDATASIZE PUSH0 REVERT JUMPDEST POP POP JUMP JUMPDEST PUSH1 0x1 DUP1 PUSH0 ADD DUP1 SLOAD PUSH2 0x254 SWAP1 PUSH2 0xD89 JUMP JUMPDEST DUP1 PUSH1 0x1F ADD PUSH1 0x20 DUP1 SWAP2 DIV MUL PUSH1 0x20 ADD PUSH1 0x40 MLOAD SWAP1 DUP2 ADD PUSH1 0x40 MSTORE DUP1 SWAP3 SWAP2 SWAP1 DUP2 DUP2 MSTORE PUSH1 0x20 ADD DUP3 DUP1 SLOAD PUSH2 0x280 SWAP1 PUSH2 0xD89 JUMP JUMPDEST DUP1 ISZERO PUSH2 0x2CB JUMPI DUP1 PUSH1 0x1F LT PUSH2 0x2A2 JUMPI PUSH2 0x100 DUP1 DUP4 SLOAD DIV MUL DUP4 MSTORE SWAP2 PUSH1 0x20 ADD SWAP2 PUSH2 0x2CB JUMP JUMPDEST DUP3 ADD SWAP2 SWAP1 PUSH0 MSTORE PUSH1 0x20 PUSH0 KECCAK256 SWAP1 JUMPDEST DUP2 SLOAD DUP2 MSTORE SWAP1 PUSH1 0x1 ADD SWAP1 PUSH1 0x20 ADD DUP1 DUP4 GT PUSH2 0x2AE JUMPI DUP3 SWAP1 SUB PUSH1 0x1F AND DUP3 ADD SWAP2 JUMPDEST POP POP POP POP POP SWAP1 DUP1 PUSH1 0x1 ADD DUP1 SLOAD PUSH2 0x2E0 SWAP1 PUSH2 0xD89 JUMP JUMPDEST DUP1 PUSH1 0x1F ADD PUSH1 0x20 DUP1 SWAP2 DIV MUL PUSH1 0x20 ADD PUSH1 0x40 MLOAD SWAP1 DUP2 ADD PUSH1 0x40 MSTORE DUP1 SWAP3 SWAP2 SWAP1 DUP2 DUP2 MSTORE PUSH1 0x20 ADD DUP3 DUP1 SLOAD PUSH2 0x30C SWAP1 PUSH2 0xD89 JUMP JUMPDEST DUP1 ISZERO PUSH2 0x357 JUMPI DUP1 PUSH1 0x1F LT PUSH2 0x32E JUMPI PUSH2 0x100 DUP1 DUP4 SLOAD DIV MUL DUP4 MSTORE SWAP2 PUSH1 0x20 ADD SWAP2 PUSH2 0x357 JUMP JUMPDEST DUP3 ADD SWAP2 SWAP1 PUSH0 MSTORE PUSH1 0x20 PUSH0 KECCAK256 SWAP1 JUMPDEST DUP2 SLOAD DUP2 MSTORE SWAP1 PUSH1 0x1 ADD SWAP1 PUSH1 0x20 ADD DUP1 DUP4 GT PUSH2 0x33A JUMPI DUP3 SWAP1 SUB PUSH1 0x1F AND DUP3 ADD SWAP2 JUMPDEST POP POP POP POP POP SWAP1 DUP1 PUSH1 0x2 ADD DUP1 SLOAD PUSH2 0x36C SWAP1 PUSH2 0xD89 JUMP JUMPDEST DUP1 PUSH1 0x1F ADD PUSH1 0x20 DUP1 SWAP2 DIV MUL PUSH1 0x20 ADD PUSH1 0x40 MLOAD SWAP1 DUP2 ADD PUSH1 0x40 MSTORE DUP1 SWAP3 SWAP2 SWAP1 DUP2 DUP2 MSTORE PUSH1 0x20 ADD DUP3 DUP1 SLOAD PUSH2 0x398 SWAP1 PUSH2 0xD89 JUMP JUMPDEST DUP1 ISZERO PUSH2 0x3E3 JUMPI DUP1 PUSH1 0x1F LT PUSH2 0x3BA JUMPI PUSH2 0x100 DUP1 DUP4 SLOAD DIV MUL DUP4 MSTORE SWAP2 PUSH1 0x20 ADD SWAP2 PUSH2 0x3E3 JUMP JUMPDEST DUP3 ADD SWAP2 SWAP1 PUSH0 MSTORE PUSH1 0x20 PUSH0 KECCAK256 SWAP1 JUMPDEST DUP2 SLOAD DUP2 MSTORE SWAP1 PUSH1 0x1 ADD SWAP1 PUSH1 0x20 ADD DUP1 DUP4 GT PUSH2 0x3C6 JUMPI DUP3 SWAP1 SUB PUSH1 0x1F AND DUP3 ADD SWAP2 JUMPDEST POP POP POP POP POP SWAP1 DUP1 PUSH1 0x3 ADD DUP1 SLOAD PUSH2 0x3F8 SWAP1 PUSH2 0xD89 JUMP JUMPDEST DUP1 PUSH1 0x1F ADD PUSH1 0x20 DUP1 SWAP2 DIV MUL PUSH1 0x20 ADD PUSH1 0x40 MLOAD SWAP1 DUP2 ADD PUSH1 0x40 MSTORE DUP1 SWAP3 SWAP2 SWAP1 DUP2 DUP2 MSTORE PUSH1 0x20 ADD DUP3 DUP1 SLOAD PUSH2 0x424 SWAP1 PUSH2 0xD89 JUMP JUMPDEST DUP1 ISZERO PUSH2 0x46F JUMPI DUP1 PUSH1 0x1F LT PUSH2 0x446 JUMPI PUSH2 0x100 DUP1 DUP4 SLOAD DIV MUL DUP4 MSTORE SWAP2 PUSH1 0x20 ADD SWAP2 PUSH2 0x46F JUMP JUMPDEST DUP3 ADD SWAP2 SWAP1 PUSH0 MSTORE PUSH1 0x20 PUSH0 KECCAK256 SWAP1 JUMPDEST DUP2 SLOAD DUP2 MSTORE SWAP1 PUSH1 0x1 ADD SWAP1 PUSH1 0x20 ADD DUP1 DUP4 GT PUSH2 0x452 JUMPI DUP3 SWAP1 SUB PUSH1 0x1F AND DUP3 ADD SWAP2 JUMPDEST POP POP POP POP POP SWAP1 DUP1 PUSH1 0x4 ADD DUP1 SLOAD PUSH2 0x484 SWAP1 PUSH2 0xD89 JUMP JUMPDEST DUP1 PUSH1 0x1F ADD PUSH1 0x20 DUP1 SWAP2 DIV MUL PUSH1 0x20 ADD PUSH1 0x40 MLOAD SWAP1 DUP2 ADD PUSH1 0x40 MSTORE DUP1 SWAP3 SWAP2 SWAP1 DUP2 DUP2 MSTORE PUSH1 0x20 ADD DUP3 DUP1 SLOAD PUSH2 0x4B0 SWAP1 PUSH2 0xD89 JUMP JUMPDEST DUP1 ISZERO PUSH2 0x4FB JUMPI DUP1 PUSH1 0x1F LT PUSH2 0x4D2 JUMPI PUSH2 0x100 DUP1 DUP4 SLOAD DIV MUL DUP4 MSTORE SWAP2 PUSH1 0x20 ADD SWAP2 PUSH2 0x4FB JUMP JUMPDEST DUP3 ADD SWAP2 SWAP1 PUSH0 MSTORE PUSH1 0x20 PUSH0 KECCAK256 SWAP1 JUMPDEST DUP2 SLOAD DUP2 MSTORE SWAP1 PUSH1 0x1 ADD SWAP1 PUSH1 0x20 ADD DUP1 DUP4 GT PUSH2 0x4DE JUMPI DUP3 SWAP1 SUB PUSH1 0x1F AND DUP3 ADD SWAP2 JUMPDEST POP POP POP POP POP SWAP1 DUP1 PUSH1 0x5 ADD DUP1 SLOAD PUSH2 0x510 SWAP1 PUSH2 0xD89 JUMP JUMPDEST DUP1 PUSH1 0x1F ADD PUSH1 0x20 DUP1 SWAP2 DIV MUL PUSH1 0x20 ADD PUSH1 0x40 MLOAD SWAP1 DUP2 ADD PUSH1 0x40 MSTORE DUP1 SWAP3 SWAP2 SWAP1 DUP2 DUP2 MSTORE PUSH1 0x20 ADD DUP3 DUP1 SLOAD PUSH2 0x53C SWAP1 PUSH2 0xD89 JUMP JUMPDEST DUP1 ISZERO PUSH2 0x587 JUMPI DUP1 PUSH1 0x1F LT PUSH2 0x55E JUMPI PUSH2 0x100 DUP1 DUP4 SLOAD DIV MUL DUP4 MSTORE SWAP2 PUSH1 0x20 ADD SWAP2 PUSH2 0x587 JUMP JUMPDEST DUP3 ADD SWAP2 SWAP1 PUSH0 MSTORE PUSH1 0x20 PUSH0 KECCAK256 SWAP1 JUMPDEST DUP2 SLOAD DUP2 MSTORE SWAP1 PUSH1 0x1 ADD SWAP1 PUSH1 0x20 ADD DUP1 DUP4 GT PUSH2 0x56A JUMPI DUP3 SWAP1 SUB PUSH1 0x1F AND DUP3 ADD SWAP2 JUMPDEST POP POP POP POP POP SWAP1 DUP1 PUSH1 0x6 ADD PUSH0 SWAP1 SLOAD SWAP1 PUSH2 0x100 EXP SWAP1 DIV PUSH0 SIGNEXTEND SWAP1 DUP1 PUSH1 0x6 ADD PUSH1 0x1 SWAP1 SLOAD SWAP1 PUSH2 0x100 EXP SWAP1 DIV PUSH20 0xFFFFFFFFFFFFFFFFFFFFFFFFFFFFFFFFFFFFFFFF AND SWAP1 POP DUP9 JUMP JUMPDEST PUSH7 0x38D7EA4C68000 DUP1 CALLVALUE LT ISZERO PUSH2 0x613 JUMPI PUSH1 0x40 MLOAD PUSH32 0x8C379A000000000000000000000000000000000000000000000000000000000 DUP2 MSTORE PUSH1 0x4 ADD PUSH2 0x60A SWAP1 PUSH2 0xE29 JUMP JUMPDEST PUSH1 0x40 MLOAD DUP1 SWAP2 SUB SWAP1 REVERT JUMPDEST PUSH1 0x40 MLOAD DUP1 PUSH2 0x100 ADD PUSH1 0x40 MSTORE DUP1 DUP10 DUP2 MSTORE PUSH1 0x20 ADD DUP9 DUP2 MSTORE PUSH1 0x20 ADD DUP8 DUP2 MSTORE PUSH1 0x20 ADD DUP7 DUP2 MSTORE PUSH1 0x20 ADD DUP6 DUP2 MSTORE PUSH1 0x20 ADD DUP5 DUP2 MSTORE PUSH1 0x20 ADD DUP4 PUSH0 SIGNEXTEND DUP2 MSTORE PUSH1 0x20 ADD CALLER PUSH20 0xFFFFFFFFFFFFFFFFFFFFFFFFFFFFFFFFFFFFFFFF AND DUP2 MSTORE POP PUSH1 0x1 PUSH0 DUP3 ADD MLOAD DUP2 PUSH0 ADD SWAP1 DUP2 PUSH2 0x67A SWAP2 SWAP1 PUSH2 0xFE4 JUMP JUMPDEST POP PUSH1 0x20 DUP3 ADD MLOAD DUP2 PUSH1 0x1 ADD SWAP1 DUP2 PUSH2 0x690 SWAP2 SWAP1 PUSH2 0xFE4 JUMP JUMPDEST POP PUSH1 0x40 DUP3 ADD MLOAD DUP2 PUSH1 0x2 ADD SWAP1 DUP2 PUSH2 0x6A6 SWAP2 SWAP1 PUSH2 0xFE4 JUMP JUMPDEST POP PUSH1 0x60 DUP3 ADD MLOAD DUP2 PUSH1 0x3 ADD SWAP1 DUP2 PUSH2 0x6BC SWAP2 SWAP1 PUSH2 0xFE4 JUMP JUMPDEST POP PUSH1 0x80 DUP3 ADD MLOAD DUP2 PUSH1 0x4 ADD SWAP1 DUP2 PUSH2 0x6D2 SWAP2 SWAP1 PUSH2 0xFE4 JUMP JUMPDEST POP PUSH1 0xA0 DUP3 ADD MLOAD DUP2 PUSH1 0x5 ADD SWAP1 DUP2 PUSH2 0x6E8 SWAP2 SWAP1 PUSH2 0xFE4 JUMP JUMPDEST POP PUSH1 0xC0 DUP3 ADD MLOAD DUP2 PUSH1 0x6 ADD PUSH0 PUSH2 0x100 EXP DUP2 SLOAD DUP2 PUSH1 0xFF MUL NOT AND SWAP1 DUP4 PUSH0 SIGNEXTEND PUSH1 0xFF AND MUL OR SWAP1 SSTORE POP PUSH1 0xE0 DUP3 ADD MLOAD DUP2 PUSH1 0x6 ADD PUSH1 0x1 PUSH2 0x100 EXP DUP2 SLOAD DUP2 PUSH20 0xFFFFFFFFFFFFFFFFFFFFFFFFFFFFFFFFFFFFFFFF MUL NOT AND SWAP1 DUP4 PUSH20 0xFFFFFFFFFFFFFFFFFFFFFFFFFFFFFFFFFFFFFFFF AND MUL OR SWAP1 SSTORE POP SWAP1 POP POP PUSH32 0x870247EB151FD35C4907322D059C22CBE7EB7930B7B7116D4A107CBBB5378D12 DUP9 DUP9 DUP9 DUP9 DUP9 DUP9 DUP9 CALLER PUSH1 0x40 MLOAD PUSH2 0x792 SWAP9 SWAP8 SWAP7 SWAP6 SWAP5 SWAP4 SWAP3 SWAP2 SWAP1 PUSH2 0x8DB JUMP JUMPDEST PUSH1 0x40 MLOAD DUP1 SWAP2 SUB SWAP1 LOG1 POP POP POP POP POP POP POP POP JUMP JUMPDEST PUSH0 DUP1 SLOAD SWAP1 PUSH2 0x100 EXP SWAP1 DIV PUSH20 0xFFFFFFFFFFFFFFFFFFFFFFFFFFFFFFFFFFFFFFFF AND DUP2 JUMP JUMPDEST PUSH0 DUP2 SWAP1 POP SWAP2 SWAP1 POP JUMP JUMPDEST PUSH2 0x7D9 DUP2 PUSH2 0x7C7 JUMP JUMPDEST DUP3 MSTORE POP POP JUMP JUMPDEST PUSH0 PUSH1 0x20 DUP3 ADD SWAP1 POP PUSH2 0x7F2 PUSH0 DUP4 ADD DUP5 PUSH2 0x7D0 JUMP JUMPDEST SWAP3 SWAP2 POP POP JUMP JUMPDEST PUSH0 DUP2 MLOAD SWAP1 POP SWAP2 SWAP1 POP JUMP JUMPDEST PUSH0 DUP3 DUP3 MSTORE PUSH1 0x20 DUP3 ADD SWAP1 POP SWAP3 SWAP2 POP POP JUMP JUMPDEST PUSH0 JUMPDEST DUP4 DUP2 LT ISZERO PUSH2 0x82F JUMPI DUP1 DUP3 ADD MLOAD DUP2 DUP5 ADD MSTORE PUSH1 0x20 DUP2 ADD SWAP1 POP PUSH2 0x814 JUMP JUMPDEST PUSH0 DUP5 DUP5 ADD MSTORE POP POP POP POP JUMP JUMPDEST PUSH0 PUSH1 0x1F NOT PUSH1 0x1F DUP4 ADD AND SWAP1 POP SWAP2 SWAP1 POP JUMP JUMPDEST PUSH0 PUSH2 0x854 DUP3 PUSH2 0x7F8 JUMP JUMPDEST PUSH2 0x85E DUP2 DUP6 PUSH2 0x802 JUMP JUMPDEST SWAP4 POP PUSH2 0x86E DUP2 DUP6 PUSH1 0x20 DUP7 ADD PUSH2 0x812 JUMP JUMPDEST PUSH2 0x877 DUP2 PUSH2 0x83A JUMP JUMPDEST DUP5 ADD SWAP2 POP POP SWAP3 SWAP2 POP POP JUMP JUMPDEST PUSH0 DUP2 PUSH0 SIGNEXTEND SWAP1 POP SWAP2 SWAP1 POP JUMP JUMPDEST PUSH2 0x896 DUP2 PUSH2 0x882 JUMP JUMPDEST DUP3 MSTORE POP POP JUMP JUMPDEST PUSH0 PUSH20 0xFFFFFFFFFFFFFFFFFFFFFFFFFFFFFFFFFFFFFFFF DUP3 AND SWAP1 POP SWAP2 SWAP1 POP JUMP JUMPDEST PUSH0 PUSH2 0x8C5 DUP3 PUSH2 0x89C JUMP JUMPDEST SWAP1 POP SWAP2 SWAP1 POP JUMP JUMPDEST PUSH2 0x8D5 DUP2 PUSH2 0x8BB JUMP JUMPDEST DUP3 MSTORE POP POP JUMP JUMPDEST PUSH0 PUSH2 0x100 DUP3 ADD SWAP1 POP DUP2 DUP2 SUB PUSH0 DUP4 ADD MSTORE PUSH2 0x8F4 DUP2 DUP12 PUSH2 0x84A JUMP JUMPDEST SWAP1 POP DUP2 DUP2 SUB PUSH1 0x20 DUP4 ADD MSTORE PUSH2 0x908 DUP2 DUP11 PUSH2 0x84A JUMP JUMPDEST SWAP1 POP DUP2 DUP2 SUB PUSH1 0x40 DUP4 ADD MSTORE PUSH2 0x91C DUP2 DUP10 PUSH2 0x84A JUMP JUMPDEST SWAP1 POP DUP2 DUP2 SUB PUSH1 0x60 DUP4 ADD MSTORE PUSH2 0x930 DUP2 DUP9 PUSH2 0x84A JUMP JUMPDEST SWAP1 POP DUP2 DUP2 SUB PUSH1 0x80 DUP4 ADD MSTORE PUSH2 0x944 DUP2 DUP8 PUSH2 0x84A JUMP JUMPDEST SWAP1 POP DUP2 DUP2 SUB PUSH1 0xA0 DUP4 ADD MSTORE PUSH2 0x958 DUP2 DUP7 PUSH2 0x84A JUMP JUMPDEST SWAP1 POP PUSH2 0x967 PUSH1 0xC0 DUP4 ADD DUP6 PUSH2 0x88D JUMP JUMPDEST PUSH2 0x974 PUSH1 0xE0 DUP4 ADD DUP5 PUSH2 0x8CC JUMP JUMPDEST SWAP10 SWAP9 POP POP POP POP POP POP POP POP POP JUMP JUMPDEST PUSH0 PUSH1 0x40 MLOAD SWAP1 POP SWAP1 JUMP JUMPDEST PUSH0 DUP1 REVERT JUMPDEST PUSH0 DUP1 REVERT JUMPDEST PUSH0 DUP1 REVERT JUMPDEST PUSH0 DUP1 REVERT JUMPDEST PUSH32 0x4E487B7100000000000000000000000000000000000000000000000000000000 PUSH0 MSTORE PUSH1 0x41 PUSH1 0x4 MSTORE PUSH1 0x24 PUSH0 REVERT JUMPDEST PUSH2 0x9D0 DUP3 PUSH2 0x83A JUMP JUMPDEST DUP2 ADD DUP2 DUP2 LT PUSH8 0xFFFFFFFFFFFFFFFF DUP3 GT OR ISZERO PUSH2 0x9EF JUMPI PUSH2 0x9EE PUSH2 0x99A JUMP JUMPDEST JUMPDEST DUP1 PUSH1 0x40 MSTORE POP POP POP JUMP JUMPDEST PUSH0 PUSH2 0xA01 PUSH2 0x981 JUMP JUMPDEST SWAP1 POP PUSH2 0xA0D DUP3 DUP3 PUSH2 0x9C7 JUMP JUMPDEST SWAP2 SWAP1 POP JUMP JUMPDEST PUSH0 PUSH8 0xFFFFFFFFFFFFFFFF DUP3 GT ISZERO PUSH2 0xA2C JUMPI PUSH2 0xA2B PUSH2 0x99A JUMP JUMPDEST JUMPDEST PUSH2 0xA35 DUP3 PUSH2 0x83A JUMP JUMPDEST SWAP1 POP PUSH1 0x20 DUP2 ADD SWAP1 POP SWAP2 SWAP1 POP JUMP JUMPDEST DUP3 DUP2 DUP4 CALLDATACOPY PUSH0 DUP4 DUP4 ADD MSTORE POP POP POP JUMP JUMPDEST PUSH0 PUSH2 0xA62 PUSH2 0xA5D DUP5 PUSH2 0xA12 JUMP JUMPDEST PUSH2 0x9F8 JUMP JUMPDEST SWAP1 POP DUP3 DUP2 MSTORE PUSH1 0x20 DUP2 ADD DUP5 DUP5 DUP5 ADD GT ISZERO PUSH2 0xA7E JUMPI PUSH2 0xA7D PUSH2 0x996 JUMP JUMPDEST JUMPDEST PUSH2 0xA89 DUP5 DUP3 DUP6 PUSH2 0xA42 JUMP JUMPDEST POP SWAP4 SWAP3 POP POP POP JUMP JUMPDEST PUSH0 DUP3 PUSH1 0x1F DUP4 ADD SLT PUSH2 0xAA5 JUMPI PUSH2 0xAA4 PUSH2 0x992 JUMP JUMPDEST JUMPDEST DUP2 CALLDATALOAD PUSH2 0xAB5 DUP5 DUP3 PUSH1 0x20 DUP7 ADD PUSH2 0xA50 JUMP JUMPDEST SWAP2 POP POP SWAP3 SWAP2 POP POP JUMP JUMPDEST PUSH2 0xAC7 DUP2 PUSH2 0x882 JUMP JUMPDEST DUP2 EQ PUSH2 0xAD1 JUMPI PUSH0 DUP1 REVERT JUMPDEST POP JUMP JUMPDEST PUSH0 DUP2 CALLDATALOAD SWAP1 POP PUSH2 0xAE2 DUP2 PUSH2 0xABE JUMP JUMPDEST SWAP3 SWAP2 POP POP JUMP JUMPDEST PUSH0 DUP1 PUSH0 DUP1 PUSH0 DUP1 PUSH0 PUSH1 0xE0 DUP9 DUP11 SUB SLT ISZERO PUSH2 0xB03 JUMPI PUSH2 0xB02 PUSH2 0x98A JUMP JUMPDEST JUMPDEST PUSH0 DUP9 ADD CALLDATALOAD PUSH8 0xFFFFFFFFFFFFFFFF DUP2 GT ISZERO PUSH2 0xB20 JUMPI PUSH2 0xB1F PUSH2 0x98E JUMP JUMPDEST JUMPDEST PUSH2 0xB2C DUP11 DUP3 DUP12 ADD PUSH2 0xA91 JUMP JUMPDEST SWAP8 POP POP PUSH1 0x20 DUP9 ADD CALLDATALOAD PUSH8 0xFFFFFFFFFFFFFFFF DUP2 GT ISZERO PUSH2 0xB4D JUMPI PUSH2 0xB4C PUSH2 0x98E JUMP JUMPDEST JUMPDEST PUSH2 0xB59 DUP11 DUP3 DUP12 ADD PUSH2 0xA91 JUMP JUMPDEST SWAP7 POP POP PUSH1 0x40 DUP9 ADD CALLDATALOAD PUSH8 0xFFFFFFFFFFFFFFFF DUP2 GT ISZERO PUSH2 0xB7A JUMPI PUSH2 0xB79 PUSH2 0x98E JUMP JUMPDEST JUMPDEST PUSH2 0xB86 DUP11 DUP3 DUP12 ADD PUSH2 0xA91 JUMP JUMPDEST SWAP6 POP POP PUSH1 0x60 DUP9 ADD CALLDATALOAD PUSH8 0xFFFFFFFFFFFFFFFF DUP2 GT ISZERO PUSH2 0xBA7 JUMPI PUSH2 0xBA6 PUSH2 0x98E JUMP JUMPDEST JUMPDEST PUSH2 0xBB3 DUP11 DUP3 DUP12 ADD PUSH2 0xA91 JUMP JUMPDEST SWAP5 POP POP PUSH1 0x80 DUP9 ADD CALLDATALOAD PUSH8 0xFFFFFFFFFFFFFFFF DUP2 GT ISZERO PUSH2 0xBD4 JUMPI PUSH2 0xBD3 PUSH2 0x98E JUMP JUMPDEST JUMPDEST PUSH2 0xBE0 DUP11 DUP3 DUP12 ADD PUSH2 0xA91 JUMP JUMPDEST SWAP4 POP POP PUSH1 0xA0 DUP9 ADD CALLDATALOAD PUSH8 0xFFFFFFFFFFFFFFFF DUP2 GT ISZERO PUSH2 0xC01 JUMPI PUSH2 0xC00 PUSH2 0x98E JUMP JUMPDEST JUMPDEST PUSH2 0xC0D DUP11 DUP3 DUP12 ADD PUSH2 0xA91 JUMP JUMPDEST SWAP3 POP POP PUSH1 0xC0 PUSH2 0xC1E DUP11 DUP3 DUP12 ADD PUSH2 0xAD4 JUMP JUMPDEST SWAP2 POP POP SWAP3 SWAP6 SWAP9 SWAP2 SWAP5 SWAP8 POP SWAP3 SWAP6 POP JUMP JUMPDEST PUSH0 PUSH2 0xC37 DUP3 PUSH2 0x89C JUMP JUMPDEST SWAP1 POP SWAP2 SWAP1 POP JUMP JUMPDEST PUSH2 0xC47 DUP2 PUSH2 0xC2D JUMP JUMPDEST DUP3 MSTORE POP POP JUMP JUMPDEST PUSH0 PUSH1 0x20 DUP3 ADD SWAP1 POP PUSH2 0xC60 PUSH0 DUP4 ADD DUP5 PUSH2 0xC3E JUMP JUMPDEST SWAP3 SWAP2 POP POP JUMP JUMPDEST PUSH32 0x536F6C6F20656C2070726F706965746172696F20707565646520726574697261 PUSH0 DUP3 ADD MSTORE PUSH32 0x72206C6F7320666F6E646F730000000000000000000000000000000000000000 PUSH1 0x20 DUP3 ADD MSTORE POP JUMP JUMPDEST PUSH0 PUSH2 0xCC0 PUSH1 0x2C DUP4 PUSH2 0x802 JUMP JUMPDEST SWAP2 POP PUSH2 0xCCB DUP3 PUSH2 0xC66 JUMP JUMPDEST PUSH1 0x40 DUP3 ADD SWAP1 POP SWAP2 SWAP1 POP JUMP JUMPDEST PUSH0 PUSH1 0x20 DUP3 ADD SWAP1 POP DUP2 DUP2 SUB PUSH0 DUP4 ADD MSTORE PUSH2 0xCED DUP2 PUSH2 0xCB4 JUMP JUMPDEST SWAP1 POP SWAP2 SWAP1 POP JUMP JUMPDEST PUSH32 0x456C20636F6E747261746F206E6F206375656E746120636F6E20666F6E646F73 PUSH0 DUP3 ADD MSTORE POP JUMP JUMPDEST PUSH0 PUSH2 0xD28 PUSH1 0x20 DUP4 PUSH2 0x802 JUMP JUMPDEST SWAP2 POP PUSH2 0xD33 DUP3 PUSH2 0xCF4 JUMP JUMPDEST PUSH1 0x20 DUP3 ADD SWAP1 POP SWAP2 SWAP1 POP JUMP JUMPDEST PUSH0 PUSH1 0x20 DUP3 ADD SWAP1 POP DUP2 DUP2 SUB PUSH0 DUP4 ADD MSTORE PUSH2 0xD55 DUP2 PUSH2 0xD1C JUMP JUMPDEST SWAP1 POP SWAP2 SWAP1 POP JUMP JUMPDEST PUSH32 0x4E487B7100000000000000000000000000000000000000000000000000000000 PUSH0 MSTORE PUSH1 0x22 PUSH1 0x4 MSTORE PUSH1 0x24 PUSH0 REVERT JUMPDEST PUSH0 PUSH1 0x2 DUP3 DIV SWAP1 POP PUSH1 0x1 DUP3 AND DUP1 PUSH2 0xDA0 JUMPI PUSH1 0x7F DUP3 AND SWAP2 POP JUMPDEST PUSH1 0x20 DUP3 LT DUP2 SUB PUSH2 0xDB3 JUMPI PUSH2 0xDB2 PUSH2 0xD5C JUMP JUMPDEST JUMPDEST POP SWAP2 SWAP1 POP JUMP JUMPDEST PUSH32 0x4E6F207469656E652073616C646F20656E20415242207061726120656A656375 PUSH0 DUP3 ADD MSTORE PUSH32 0x7461720000000000000000000000000000000000000000000000000000000000 PUSH1 0x20 DUP3 ADD MSTORE POP JUMP JUMPDEST PUSH0 PUSH2 0xE13 PUSH1 0x23 DUP4 PUSH2 0x802 JUMP JUMPDEST SWAP2 POP PUSH2 0xE1E DUP3 PUSH2 0xDB9 JUMP JUMPDEST PUSH1 0x40 DUP3 ADD SWAP1 POP SWAP2 SWAP1 POP JUMP JUMPDEST PUSH0 PUSH1 0x20 DUP3 ADD SWAP1 POP DUP2 DUP2 SUB PUSH0 DUP4 ADD MSTORE PUSH2 0xE40 DUP2 PUSH2 0xE07 JUMP JUMPDEST SWAP1 POP SWAP2 SWAP1 POP JUMP JUMPDEST PUSH0 DUP2 SWAP1 POP DUP2 PUSH0 MSTORE PUSH1 0x20 PUSH0 KECCAK256 SWAP1 POP SWAP2 SWAP1 POP JUMP JUMPDEST PUSH0 PUSH1 0x20 PUSH1 0x1F DUP4 ADD DIV SWAP1 POP SWAP2 SWAP1 POP JUMP JUMPDEST PUSH0 DUP3 DUP3 SHL SWAP1 POP SWAP3 SWAP2 POP POP JUMP JUMPDEST PUSH0 PUSH1 0x8 DUP4 MUL PUSH2 0xEA3 PUSH32 0xFFFFFFFFFFFFFFFFFFFFFFFFFFFFFFFFFFFFFFFFFFFFFFFFFFFFFFFFFFFFFFFF DUP3 PUSH2 0xE68 JUMP JUMPDEST PUSH2 0xEAD DUP7 DUP4 PUSH2 0xE68 JUMP JUMPDEST SWAP6 POP DUP1 NOT DUP5 AND SWAP4 POP DUP1 DUP7 AND DUP5 OR SWAP3 POP POP POP SWAP4 SWAP3 POP POP POP JUMP JUMPDEST PUSH0 DUP2 SWAP1 POP SWAP2 SWAP1 POP JUMP JUMPDEST PUSH0 PUSH2 0xEE8 PUSH2 0xEE3 PUSH2 0xEDE DUP5 PUSH2 0x7C7 JUMP JUMPDEST PUSH2 0xEC5 JUMP JUMPDEST PUSH2 0x7C7 JUMP JUMPDEST SWAP1 POP SWAP2 SWAP1 POP JUMP JUMPDEST PUSH0 DUP2 SWAP1 POP SWAP2 SWAP1 POP JUMP JUMPDEST PUSH2 0xF01 DUP4 PUSH2 0xECE JUMP JUMPDEST PUSH2 0xF15 PUSH2 0xF0D DUP3 PUSH2 0xEEF JUMP JUMPDEST DUP5 DUP5 SLOAD PUSH2 0xE74 JUMP JUMPDEST DUP3 SSTORE POP POP POP POP JUMP JUMPDEST PUSH0 SWAP1 JUMP JUMPDEST PUSH2 0xF29 PUSH2 0xF1D JUMP JUMPDEST PUSH2 0xF34 DUP2 DUP5 DUP5 PUSH2 0xEF8 JUMP JUMPDEST POP POP POP JUMP JUMPDEST JUMPDEST DUP2 DUP2 LT ISZERO PUSH2 0xF57 JUMPI PUSH2 0xF4C PUSH0 DUP3 PUSH2 0xF21 JUMP JUMPDEST PUSH1 0x1 DUP2 ADD SWAP1 POP PUSH2 0xF3A JUMP JUMPDEST POP POP JUMP JUMPDEST PUSH1 0x1F DUP3 GT ISZERO PUSH2 0xF9C JUMPI PUSH2 0xF6D DUP2 PUSH2 0xE47 JUMP JUMPDEST PUSH2 0xF76 DUP5 PUSH2 0xE59 JUMP JUMPDEST DUP2 ADD PUSH1 0x20 DUP6 LT ISZERO PUSH2 0xF85 JUMPI DUP2 SWAP1 POP JUMPDEST PUSH2 0xF99 PUSH2 0xF91 DUP6 PUSH2 0xE59 JUMP JUMPDEST DUP4 ADD DUP3 PUSH2 0xF39 JUMP JUMPDEST POP POP JUMPDEST POP POP POP JUMP JUMPDEST PUSH0 DUP3 DUP3 SHR SWAP1 POP SWAP3 SWAP2 POP POP JUMP JUMPDEST PUSH0 PUSH2 0xFBC PUSH0 NOT DUP5 PUSH1 0x8 MUL PUSH2 0xFA1 JUMP JUMPDEST NOT DUP1 DUP4 AND SWAP2 POP POP SWAP3 SWAP2 POP POP JUMP JUMPDEST PUSH0 PUSH2 0xFD4 DUP4 DUP4 PUSH2 0xFAD JUMP JUMPDEST SWAP2 POP DUP3 PUSH1 0x2 MUL DUP3 OR SWAP1 POP SWAP3 SWAP2 POP POP JUMP JUMPDEST PUSH2 0xFED DUP3 PUSH2 0x7F8 JUMP JUMPDEST PUSH8 0xFFFFFFFFFFFFFFFF DUP2 GT ISZERO PUSH2 0x1006 JUMPI PUSH2 0x1005 PUSH2 0x99A JUMP JUMPDEST JUMPDEST PUSH2 0x1010 DUP3 SLOAD PUSH2 0xD89 JUMP JUMPDEST PUSH2 0x101B DUP3 DUP3 DUP6 PUSH2 0xF5B JUMP JUMPDEST PUSH0 PUSH1 0x20 SWAP1 POP PUSH1 0x1F DUP4 GT PUSH1 0x1 DUP2 EQ PUSH2 0x104C JUMPI PUSH0 DUP5 ISZERO PUSH2 0x103A JUMPI DUP3 DUP8 ADD MLOAD SWAP1 POP JUMPDEST PUSH2 0x1044 DUP6 DUP3 PUSH2 0xFC9 JUMP JUMPDEST DUP7 SSTORE POP PUSH2 0x10AB JUMP JUMPDEST PUSH1 0x1F NOT DUP5 AND PUSH2 0x105A DUP7 PUSH2 0xE47 JUMP JUMPDEST PUSH0 JUMPDEST DUP3 DUP2 LT ISZERO PUSH2 0x1081 JUMPI DUP5 DUP10 ADD MLOAD DUP3 SSTORE PUSH1 0x1 DUP3 ADD SWAP2 POP PUSH1 0x20 DUP6 ADD SWAP5 POP PUSH1 0x20 DUP2 ADD SWAP1 POP PUSH2 0x105C JUMP JUMPDEST DUP7 DUP4 LT ISZERO PUSH2 0x109E JUMPI DUP5 DUP10 ADD MLOAD PUSH2 0x109A PUSH1 0x1F DUP10 AND DUP3 PUSH2 0xFAD JUMP JUMPDEST DUP4 SSTORE POP JUMPDEST PUSH1 0x1 PUSH1 0x2 DUP9 MUL ADD DUP9 SSTORE POP POP POP JUMPDEST POP POP POP POP POP POP JUMP INVALID LOG2 PUSH5 0x6970667358 0x22 SLT KECCAK256 EXTCODESIZE 0xEA 0xBF 0x2C DIV 0xB3 0x2E 0xAE 0xDE 0x27 SWAP9 CALLER 0xC2 DUP4 PUSH17 0xF98600BFDE336CF63C36360EEC858DF689 PUSH5 0x736F6C6343 STOP ADDMOD XOR STOP CALLER "
				},
				"gasEstimates": {
					"creation": {
						"codeDepositCost": "865800",
						"executionCost": "25166",
						"totalCost": "890966"
					},
					"external": {
						"data()": "infinite",
						"getBalance()": "312",
						"owner()": "2571",
						"pushData(string,string,string,string,string,string,int8)": "infinite",
						"withdraw()": "infinite"
					}
				},
				"methodIdentifiers": {
					"data()": "73d4a13a",
					"getBalance()": "12065fe0",
					"owner()": "8da5cb5b",
					"pushData(string,string,string,string,string,string,int8)": "782154df",
					"withdraw()": "3ccfd60b"
				}
			},
			"storageLayout": {
				"storage": [
					{
						"astId": 3,
						"contract": "tc_arb.sol:tc_arb",
						"label": "owner",
						"offset": 0,
						"slot": "0",
						"type": "t_address_payable"
					},
					{
						"astId": 23,
						"contract": "tc_arb.sol:tc_arb",
						"label": "data",
						"offset": 0,
						"slot": "1",
						"type": "t_struct(Data)20_storage"
					}
				],
				"types": {
					"t_address": {
						"encoding": "inplace",
						"label": "address",
						"numberOfBytes": "20"
					},
					"t_address_payable": {
						"encoding": "inplace",
						"label": "address payable",
						"numberOfBytes": "20"
					},
					"t_int8": {
						"encoding": "inplace",
						"label": "int8",
						"numberOfBytes": "1"
					},
					"t_string_storage": {
						"encoding": "bytes",
						"label": "string",
						"numberOfBytes": "32"
					},
					"t_struct(Data)20_storage": {
						"encoding": "inplace",
						"label": "struct tc_arb.Data",
						"members": [
							{
								"astId": 5,
								"contract": "tc_arb.sol:tc_arb",
								"label": "date",
								"offset": 0,
								"slot": "0",
								"type": "t_string_storage"
							},
							{
								"astId": 7,
								"contract": "tc_arb.sol:tc_arb",
								"label": "delivery_date",
								"offset": 0,
								"slot": "1",
								"type": "t_string_storage"
							},
							{
								"astId": 9,
								"contract": "tc_arb.sol:tc_arb",
								"label": "product",
								"offset": 0,
								"slot": "2",
								"type": "t_string_storage"
							},
							{
								"astId": 11,
								"contract": "tc_arb.sol:tc_arb",
								"label": "price",
								"offset": 0,
								"slot": "3",
								"type": "t_string_storage"
							},
							{
								"astId": 13,
								"contract": "tc_arb.sol:tc_arb",
								"label": "code",
								"offset": 0,
								"slot": "4",
								"type": "t_string_storage"
							},
							{
								"astId": 15,
								"contract": "tc_arb.sol:tc_arb",
								"label": "cel_number",
								"offset": 0,
								"slot": "5",
								"type": "t_string_storage"
							},
							{
								"astId": 17,
								"contract": "tc_arb.sol:tc_arb",
								"label": "status",
								"offset": 0,
								"slot": "6",
								"type": "t_int8"
							},
							{
								"astId": 19,
								"contract": "tc_arb.sol:tc_arb",
								"label": "wallet",
								"offset": 1,
								"slot": "6",
								"type": "t_address"
							}
						],
						"numberOfBytes": "224"
					}
				}
			},
			"userdoc": {
				"kind": "user",
				"methods": {},
				"version": 1
			}
		}
	}
}