{
	"variables_nativas.sol": {
		"variables_nativas": {
			"abi": [
				{
					"inputs": [
						{
							"internalType": "string",
							"name": "_fullname",
							"type": "string"
						}
					],
					"stateMutability": "nonpayable",
					"type": "constructor"
				},
				{
					"inputs": [],
					"name": "getName",
					"outputs": [
						{
							"internalType": "string",
							"name": "",
							"type": "string"
						}
					],
					"stateMutability": "view",
					"type": "function"
				}
			],
			"devdoc": {
				"kind": "dev",
				"methods": {},
				"version": 1
			},
			"evm": {
				"assembly": "    /* \"variables_nativas.sol\":62:350  contract variables_nativas {... */\n  mstore(0x40, 0x80)\n    /* \"variables_nativas.sol\":130:243  constructor(string memory _fullname) {... */\n  callvalue\n  dup1\n  iszero\n  tag_1\n  jumpi\n  0x00\n  dup1\n  revert\ntag_1:\n  pop\n  mload(0x40)\n  sub(codesize, bytecodeSize)\n  dup1\n  bytecodeSize\n  dup4\n  codecopy\n  dup2\n  dup2\n  add\n  0x40\n  mstore\n  dup2\n  add\n  swap1\n  tag_2\n  swap2\n  swap1\n  tag_3\n  jump\t// in\ntag_2:\n    /* \"variables_nativas.sol\":225:234  _fullname */\n  dup1\n    /* \"variables_nativas.sol\":189:235  string.concat(\"Mi nombre es:\", \" \", _fullname) */\n  add(0x20, mload(0x40))\n  tag_6\n  swap2\n  swap1\n  tag_7\n  jump\t// in\ntag_6:\n  mload(0x40)\n  0x20\n  dup2\n  dup4\n  sub\n  sub\n  dup2\n  mstore\n  swap1\n  0x40\n  mstore\n    /* \"variables_nativas.sol\":178:186  fullName */\n  0x00\n    /* \"variables_nativas.sol\":178:235  fullName = string.concat(\"Mi nombre es:\", \" \", _fullname) */\n  swap1\n  dup2\n  tag_8\n  swap2\n  swap1\n  tag_9\n  jump\t// in\ntag_8:\n  pop\n    /* \"variables_nativas.sol\":130:243  constructor(string memory _fullname) {... */\n  pop\n    /* \"variables_nativas.sol\":62:350  contract variables_nativas {... */\n  jump(tag_10)\n    /* \"#utility.yul\":7:82   */\ntag_11:\n    /* \"#utility.yul\":40:46   */\n  0x00\n    /* \"#utility.yul\":73:75   */\n  0x40\n    /* \"#utility.yul\":67:76   */\n  mload\n    /* \"#utility.yul\":57:76   */\n  swap1\n  pop\n    /* \"#utility.yul\":7:82   */\n  swap1\n  jump\t// out\n    /* \"#utility.yul\":88:205   */\ntag_12:\n    /* \"#utility.yul\":197:198   */\n  0x00\n    /* \"#utility.yul\":194:195   */\n  dup1\n    /* \"#utility.yul\":187:199   */\n  revert\n    /* \"#utility.yul\":211:328   */\ntag_13:\n    /* \"#utility.yul\":320:321   */\n  0x00\n    /* \"#utility.yul\":317:318   */\n  dup1\n    /* \"#utility.yul\":310:322   */\n  revert\n    /* \"#utility.yul\":334:451   */\ntag_14:\n    /* \"#utility.yul\":443:444   */\n  0x00\n    /* \"#utility.yul\":440:441   */\n  dup1\n    /* \"#utility.yul\":433:445   */\n  revert\n    /* \"#utility.yul\":457:574   */\ntag_15:\n    /* \"#utility.yul\":566:567   */\n  0x00\n    /* \"#utility.yul\":563:564   */\n  dup1\n    /* \"#utility.yul\":556:568   */\n  revert\n    /* \"#utility.yul\":580:682   */\ntag_16:\n    /* \"#utility.yul\":621:627   */\n  0x00\n    /* \"#utility.yul\":672:674   */\n  0x1f\n    /* \"#utility.yul\":668:675   */\n  not\n    /* \"#utility.yul\":663:665   */\n  0x1f\n    /* \"#utility.yul\":656:661   */\n  dup4\n    /* \"#utility.yul\":652:666   */\n  add\n    /* \"#utility.yul\":648:676   */\n  and\n    /* \"#utility.yul\":638:676   */\n  swap1\n  pop\n    /* \"#utility.yul\":580:682   */\n  swap2\n  swap1\n  pop\n  jump\t// out\n    /* \"#utility.yul\":688:868   */\ntag_17:\n    /* \"#utility.yul\":736:813   */\n  0x4e487b7100000000000000000000000000000000000000000000000000000000\n    /* \"#utility.yul\":733:734   */\n  0x00\n    /* \"#utility.yul\":726:814   */\n  mstore\n    /* \"#utility.yul\":833:837   */\n  0x41\n    /* \"#utility.yul\":830:831   */\n  0x04\n    /* \"#utility.yul\":823:838   */\n  mstore\n    /* \"#utility.yul\":857:861   */\n  0x24\n    /* \"#utility.yul\":854:855   */\n  0x00\n    /* \"#utility.yul\":847:862   */\n  revert\n    /* \"#utility.yul\":874:1155   */\ntag_18:\n    /* \"#utility.yul\":957:984   */\n  tag_56\n    /* \"#utility.yul\":979:983   */\n  dup3\n    /* \"#utility.yul\":957:984   */\n  tag_16\n  jump\t// in\ntag_56:\n    /* \"#utility.yul\":949:955   */\n  dup2\n    /* \"#utility.yul\":945:985   */\n  add\n    /* \"#utility.yul\":1087:1093   */\n  dup2\n    /* \"#utility.yul\":1075:1085   */\n  dup2\n    /* \"#utility.yul\":1072:1094   */\n  lt\n    /* \"#utility.yul\":1051:1069   */\n  0xffffffffffffffff\n    /* \"#utility.yul\":1039:1049   */\n  dup3\n    /* \"#utility.yul\":1036:1070   */\n  gt\n    /* \"#utility.yul\":1033:1095   */\n  or\n    /* \"#utility.yul\":1030:1118   */\n  iszero\n  tag_57\n  jumpi\n    /* \"#utility.yul\":1098:1116   */\n  tag_58\n  tag_17\n  jump\t// in\ntag_58:\n    /* \"#utility.yul\":1030:1118   */\ntag_57:\n    /* \"#utility.yul\":1138:1148   */\n  dup1\n    /* \"#utility.yul\":1134:1136   */\n  0x40\n    /* \"#utility.yul\":1127:1149   */\n  mstore\n    /* \"#utility.yul\":917:1155   */\n  pop\n    /* \"#utility.yul\":874:1155   */\n  pop\n  pop\n  jump\t// out\n    /* \"#utility.yul\":1161:1290   */\ntag_19:\n    /* \"#utility.yul\":1195:1201   */\n  0x00\n    /* \"#utility.yul\":1222:1242   */\n  tag_60\n  tag_11\n  jump\t// in\ntag_60:\n    /* \"#utility.yul\":1212:1242   */\n  swap1\n  pop\n    /* \"#utility.yul\":1251:1284   */\n  tag_61\n    /* \"#utility.yul\":1279:1283   */\n  dup3\n    /* \"#utility.yul\":1271:1277   */\n  dup3\n    /* \"#utility.yul\":1251:1284   */\n  tag_18\n  jump\t// in\ntag_61:\n    /* \"#utility.yul\":1161:1290   */\n  swap2\n  swap1\n  pop\n  jump\t// out\n    /* \"#utility.yul\":1296:1604   */\ntag_20:\n    /* \"#utility.yul\":1358:1362   */\n  0x00\n    /* \"#utility.yul\":1448:1466   */\n  0xffffffffffffffff\n    /* \"#utility.yul\":1440:1446   */\n  dup3\n    /* \"#utility.yul\":1437:1467   */\n  gt\n    /* \"#utility.yul\":1434:1490   */\n  iszero\n  tag_63\n  jumpi\n    /* \"#utility.yul\":1470:1488   */\n  tag_64\n  tag_17\n  jump\t// in\ntag_64:\n    /* \"#utility.yul\":1434:1490   */\ntag_63:\n    /* \"#utility.yul\":1508:1537   */\n  tag_65\n    /* \"#utility.yul\":1530:1536   */\n  dup3\n    /* \"#utility.yul\":1508:1537   */\n  tag_16\n  jump\t// in\ntag_65:\n    /* \"#utility.yul\":1500:1537   */\n  swap1\n  pop\n    /* \"#utility.yul\":1592:1596   */\n  0x20\n    /* \"#utility.yul\":1586:1590   */\n  dup2\n    /* \"#utility.yul\":1582:1597   */\n  add\n    /* \"#utility.yul\":1574:1597   */\n  swap1\n  pop\n    /* \"#utility.yul\":1296:1604   */\n  swap2\n  swap1\n  pop\n  jump\t// out\n    /* \"#utility.yul\":1610:1856   */\ntag_21:\n    /* \"#utility.yul\":1691:1692   */\n  0x00\n    /* \"#utility.yul\":1701:1814   */\ntag_67:\n    /* \"#utility.yul\":1715:1721   */\n  dup4\n    /* \"#utility.yul\":1712:1713   */\n  dup2\n    /* \"#utility.yul\":1709:1722   */\n  lt\n    /* \"#utility.yul\":1701:1814   */\n  iszero\n  tag_69\n  jumpi\n    /* \"#utility.yul\":1800:1801   */\n  dup1\n    /* \"#utility.yul\":1795:1798   */\n  dup3\n    /* \"#utility.yul\":1791:1802   */\n  add\n    /* \"#utility.yul\":1785:1803   */\n  mload\n    /* \"#utility.yul\":1781:1782   */\n  dup2\n    /* \"#utility.yul\":1776:1779   */\n  dup5\n    /* \"#utility.yul\":1772:1783   */\n  add\n    /* \"#utility.yul\":1765:1804   */\n  mstore\n    /* \"#utility.yul\":1737:1739   */\n  0x20\n    /* \"#utility.yul\":1734:1735   */\n  dup2\n    /* \"#utility.yul\":1730:1740   */\n  add\n    /* \"#utility.yul\":1725:1740   */\n  swap1\n  pop\n    /* \"#utility.yul\":1701:1814   */\n  jump(tag_67)\ntag_69:\n    /* \"#utility.yul\":1848:1849   */\n  0x00\n    /* \"#utility.yul\":1839:1845   */\n  dup5\n    /* \"#utility.yul\":1834:1837   */\n  dup5\n    /* \"#utility.yul\":1830:1846   */\n  add\n    /* \"#utility.yul\":1823:1850   */\n  mstore\n    /* \"#utility.yul\":1672:1856   */\n  pop\n    /* \"#utility.yul\":1610:1856   */\n  pop\n  pop\n  pop\n  jump\t// out\n    /* \"#utility.yul\":1862:2296   */\ntag_22:\n    /* \"#utility.yul\":1951:1956   */\n  0x00\n    /* \"#utility.yul\":1976:2042   */\n  tag_71\n    /* \"#utility.yul\":1992:2041   */\n  tag_72\n    /* \"#utility.yul\":2034:2040   */\n  dup5\n    /* \"#utility.yul\":1992:2041   */\n  tag_20\n  jump\t// in\ntag_72:\n    /* \"#utility.yul\":1976:2042   */\n  tag_19\n  jump\t// in\ntag_71:\n    /* \"#utility.yul\":1967:2042   */\n  swap1\n  pop\n    /* \"#utility.yul\":2065:2071   */\n  dup3\n    /* \"#utility.yul\":2058:2063   */\n  dup2\n    /* \"#utility.yul\":2051:2072   */\n  mstore\n    /* \"#utility.yul\":2103:2107   */\n  0x20\n    /* \"#utility.yul\":2096:2101   */\n  dup2\n    /* \"#utility.yul\":2092:2108   */\n  add\n    /* \"#utility.yul\":2141:2144   */\n  dup5\n    /* \"#utility.yul\":2132:2138   */\n  dup5\n    /* \"#utility.yul\":2127:2130   */\n  dup5\n    /* \"#utility.yul\":2123:2139   */\n  add\n    /* \"#utility.yul\":2120:2145   */\n  gt\n    /* \"#utility.yul\":2117:2229   */\n  iszero\n  tag_73\n  jumpi\n    /* \"#utility.yul\":2148:2227   */\n  tag_74\n  tag_15\n  jump\t// in\ntag_74:\n    /* \"#utility.yul\":2117:2229   */\ntag_73:\n    /* \"#utility.yul\":2238:2290   */\n  tag_75\n    /* \"#utility.yul\":2283:2289   */\n  dup5\n    /* \"#utility.yul\":2278:2281   */\n  dup3\n    /* \"#utility.yul\":2273:2276   */\n  dup6\n    /* \"#utility.yul\":2238:2290   */\n  tag_21\n  jump\t// in\ntag_75:\n    /* \"#utility.yul\":1957:2296   */\n  pop\n    /* \"#utility.yul\":1862:2296   */\n  swap4\n  swap3\n  pop\n  pop\n  pop\n  jump\t// out\n    /* \"#utility.yul\":2316:2671   */\ntag_23:\n    /* \"#utility.yul\":2383:2388   */\n  0x00\n    /* \"#utility.yul\":2432:2435   */\n  dup3\n    /* \"#utility.yul\":2425:2429   */\n  0x1f\n    /* \"#utility.yul\":2417:2423   */\n  dup4\n    /* \"#utility.yul\":2413:2430   */\n  add\n    /* \"#utility.yul\":2409:2436   */\n  slt\n    /* \"#utility.yul\":2399:2521   */\n  tag_77\n  jumpi\n    /* \"#utility.yul\":2440:2519   */\n  tag_78\n  tag_14\n  jump\t// in\ntag_78:\n    /* \"#utility.yul\":2399:2521   */\ntag_77:\n    /* \"#utility.yul\":2550:2556   */\n  dup2\n    /* \"#utility.yul\":2544:2557   */\n  mload\n    /* \"#utility.yul\":2575:2665   */\n  tag_79\n    /* \"#utility.yul\":2661:2664   */\n  dup5\n    /* \"#utility.yul\":2653:2659   */\n  dup3\n    /* \"#utility.yul\":2646:2650   */\n  0x20\n    /* \"#utility.yul\":2638:2644   */\n  dup7\n    /* \"#utility.yul\":2634:2651   */\n  add\n    /* \"#utility.yul\":2575:2665   */\n  tag_22\n  jump\t// in\ntag_79:\n    /* \"#utility.yul\":2566:2665   */\n  swap2\n  pop\n    /* \"#utility.yul\":2389:2671   */\n  pop\n    /* \"#utility.yul\":2316:2671   */\n  swap3\n  swap2\n  pop\n  pop\n  jump\t// out\n    /* \"#utility.yul\":2677:3201   */\ntag_3:\n    /* \"#utility.yul\":2757:2763   */\n  0x00\n    /* \"#utility.yul\":2806:2808   */\n  0x20\n    /* \"#utility.yul\":2794:2803   */\n  dup3\n    /* \"#utility.yul\":2785:2792   */\n  dup5\n    /* \"#utility.yul\":2781:2804   */\n  sub\n    /* \"#utility.yul\":2777:2809   */\n  slt\n    /* \"#utility.yul\":2774:2893   */\n  iszero\n  tag_81\n  jumpi\n    /* \"#utility.yul\":2812:2891   */\n  tag_82\n  tag_12\n  jump\t// in\ntag_82:\n    /* \"#utility.yul\":2774:2893   */\ntag_81:\n    /* \"#utility.yul\":2953:2954   */\n  0x00\n    /* \"#utility.yul\":2942:2951   */\n  dup3\n    /* \"#utility.yul\":2938:2955   */\n  add\n    /* \"#utility.yul\":2932:2956   */\n  mload\n    /* \"#utility.yul\":2983:3001   */\n  0xffffffffffffffff\n    /* \"#utility.yul\":2975:2981   */\n  dup2\n    /* \"#utility.yul\":2972:3002   */\n  gt\n    /* \"#utility.yul\":2969:3086   */\n  iszero\n  tag_83\n  jumpi\n    /* \"#utility.yul\":3005:3084   */\n  tag_84\n  tag_13\n  jump\t// in\ntag_84:\n    /* \"#utility.yul\":2969:3086   */\ntag_83:\n    /* \"#utility.yul\":3110:3184   */\n  tag_85\n    /* \"#utility.yul\":3176:3183   */\n  dup5\n    /* \"#utility.yul\":3167:3173   */\n  dup3\n    /* \"#utility.yul\":3156:3165   */\n  dup6\n    /* \"#utility.yul\":3152:3174   */\n  add\n    /* \"#utility.yul\":3110:3184   */\n  tag_23\n  jump\t// in\ntag_85:\n    /* \"#utility.yul\":3100:3184   */\n  swap2\n  pop\n    /* \"#utility.yul\":2903:3194   */\n  pop\n    /* \"#utility.yul\":2677:3201   */\n  swap3\n  swap2\n  pop\n  pop\n  jump\t// out\n    /* \"#utility.yul\":3207:3398   */\ntag_24:\n    /* \"#utility.yul\":3376:3391   */\n  0x4d69206e6f6d6272652065733a00000000000000000000000000000000000000\n    /* \"#utility.yul\":3371:3374   */\n  dup2\n    /* \"#utility.yul\":3364:3392   */\n  mstore\n    /* \"#utility.yul\":3207:3398   */\n  pop\n  jump\t// out\n    /* \"#utility.yul\":3404:3582   */\ntag_25:\n    /* \"#utility.yul\":3572:3575   */\n  0x2000000000000000000000000000000000000000000000000000000000000000\n    /* \"#utility.yul\":3567:3570   */\n  dup2\n    /* \"#utility.yul\":3560:3576   */\n  mstore\n    /* \"#utility.yul\":3404:3582   */\n  pop\n  jump\t// out\n    /* \"#utility.yul\":3588:3687   */\ntag_26:\n    /* \"#utility.yul\":3640:3646   */\n  0x00\n    /* \"#utility.yul\":3674:3679   */\n  dup2\n    /* \"#utility.yul\":3668:3680   */\n  mload\n    /* \"#utility.yul\":3658:3680   */\n  swap1\n  pop\n    /* \"#utility.yul\":3588:3687   */\n  swap2\n  swap1\n  pop\n  jump\t// out\n    /* \"#utility.yul\":3693:3841   */\ntag_27:\n    /* \"#utility.yul\":3795:3806   */\n  0x00\n    /* \"#utility.yul\":3832:3835   */\n  dup2\n    /* \"#utility.yul\":3817:3835   */\n  swap1\n  pop\n    /* \"#utility.yul\":3693:3841   */\n  swap3\n  swap2\n  pop\n  pop\n  jump\t// out\n    /* \"#utility.yul\":3847:4237   */\ntag_28:\n    /* \"#utility.yul\":3953:3956   */\n  0x00\n    /* \"#utility.yul\":3981:4020   */\n  tag_91\n    /* \"#utility.yul\":4014:4019   */\n  dup3\n    /* \"#utility.yul\":3981:4020   */\n  tag_26\n  jump\t// in\ntag_91:\n    /* \"#utility.yul\":4036:4125   */\n  tag_92\n    /* \"#utility.yul\":4118:4124   */\n  dup2\n    /* \"#utility.yul\":4113:4116   */\n  dup6\n    /* \"#utility.yul\":4036:4125   */\n  tag_27\n  jump\t// in\ntag_92:\n    /* \"#utility.yul\":4029:4125   */\n  swap4\n  pop\n    /* \"#utility.yul\":4134:4199   */\n  tag_93\n    /* \"#utility.yul\":4192:4198   */\n  dup2\n    /* \"#utility.yul\":4187:4190   */\n  dup6\n    /* \"#utility.yul\":4180:4184   */\n  0x20\n    /* \"#utility.yul\":4173:4178   */\n  dup7\n    /* \"#utility.yul\":4169:4185   */\n  add\n    /* \"#utility.yul\":4134:4199   */\n  tag_21\n  jump\t// in\ntag_93:\n    /* \"#utility.yul\":4224:4230   */\n  dup1\n    /* \"#utility.yul\":4219:4222   */\n  dup5\n    /* \"#utility.yul\":4215:4231   */\n  add\n    /* \"#utility.yul\":4208:4231   */\n  swap2\n  pop\n    /* \"#utility.yul\":3957:4237   */\n  pop\n    /* \"#utility.yul\":3847:4237   */\n  swap3\n  swap2\n  pop\n  pop\n  jump\t// out\n    /* \"#utility.yul\":4243:5049   */\ntag_7:\n    /* \"#utility.yul\":4556:4559   */\n  0x00\n    /* \"#utility.yul\":4571:4709   */\n  tag_95\n    /* \"#utility.yul\":4705:4708   */\n  dup3\n    /* \"#utility.yul\":4571:4709   */\n  tag_24\n  jump\t// in\ntag_95:\n    /* \"#utility.yul\":4734:4736   */\n  0x0d\n    /* \"#utility.yul\":4729:4732   */\n  dup3\n    /* \"#utility.yul\":4725:4737   */\n  add\n    /* \"#utility.yul\":4718:4737   */\n  swap2\n  pop\n    /* \"#utility.yul\":4747:4884   */\n  tag_96\n    /* \"#utility.yul\":4880:4883   */\n  dup3\n    /* \"#utility.yul\":4747:4884   */\n  tag_25\n  jump\t// in\ntag_96:\n    /* \"#utility.yul\":4909:4910   */\n  0x01\n    /* \"#utility.yul\":4904:4907   */\n  dup3\n    /* \"#utility.yul\":4900:4911   */\n  add\n    /* \"#utility.yul\":4893:4911   */\n  swap2\n  pop\n    /* \"#utility.yul\":4928:5023   */\n  tag_97\n    /* \"#utility.yul\":5019:5022   */\n  dup3\n    /* \"#utility.yul\":5010:5016   */\n  dup5\n    /* \"#utility.yul\":4928:5023   */\n  tag_28\n  jump\t// in\ntag_97:\n    /* \"#utility.yul\":4921:5023   */\n  swap2\n  pop\n    /* \"#utility.yul\":5040:5043   */\n  dup2\n    /* \"#utility.yul\":5033:5043   */\n  swap1\n  pop\n    /* \"#utility.yul\":4243:5049   */\n  swap3\n  swap2\n  pop\n  pop\n  jump\t// out\n    /* \"#utility.yul\":5055:5235   */\ntag_29:\n    /* \"#utility.yul\":5103:5180   */\n  0x4e487b7100000000000000000000000000000000000000000000000000000000\n    /* \"#utility.yul\":5100:5101   */\n  0x00\n    /* \"#utility.yul\":5093:5181   */\n  mstore\n    /* \"#utility.yul\":5200:5204   */\n  0x22\n    /* \"#utility.yul\":5197:5198   */\n  0x04\n    /* \"#utility.yul\":5190:5205   */\n  mstore\n    /* \"#utility.yul\":5224:5228   */\n  0x24\n    /* \"#utility.yul\":5221:5222   */\n  0x00\n    /* \"#utility.yul\":5214:5229   */\n  revert\n    /* \"#utility.yul\":5241:5561   */\ntag_30:\n    /* \"#utility.yul\":5285:5291   */\n  0x00\n    /* \"#utility.yul\":5322:5323   */\n  0x02\n    /* \"#utility.yul\":5316:5320   */\n  dup3\n    /* \"#utility.yul\":5312:5324   */\n  div\n    /* \"#utility.yul\":5302:5324   */\n  swap1\n  pop\n    /* \"#utility.yul\":5369:5370   */\n  0x01\n    /* \"#utility.yul\":5363:5367   */\n  dup3\n    /* \"#utility.yul\":5359:5371   */\n  and\n    /* \"#utility.yul\":5390:5408   */\n  dup1\n    /* \"#utility.yul\":5380:5461   */\n  tag_100\n  jumpi\n    /* \"#utility.yul\":5446:5450   */\n  0x7f\n    /* \"#utility.yul\":5438:5444   */\n  dup3\n    /* \"#utility.yul\":5434:5451   */\n  and\n    /* \"#utility.yul\":5424:5451   */\n  swap2\n  pop\n    /* \"#utility.yul\":5380:5461   */\ntag_100:\n    /* \"#utility.yul\":5508:5510   */\n  0x20\n    /* \"#utility.yul\":5500:5506   */\n  dup3\n    /* \"#utility.yul\":5497:5511   */\n  lt\n    /* \"#utility.yul\":5477:5495   */\n  dup2\n    /* \"#utility.yul\":5474:5512   */\n  sub\n    /* \"#utility.yul\":5471:5555   */\n  tag_101\n  jumpi\n    /* \"#utility.yul\":5527:5545   */\n  tag_102\n  tag_29\n  jump\t// in\ntag_102:\n    /* \"#utility.yul\":5471:5555   */\ntag_101:\n    /* \"#utility.yul\":5292:5561   */\n  pop\n    /* \"#utility.yul\":5241:5561   */\n  swap2\n  swap1\n  pop\n  jump\t// out\n    /* \"#utility.yul\":5567:5708   */\ntag_31:\n    /* \"#utility.yul\":5616:5620   */\n  0x00\n    /* \"#utility.yul\":5639:5642   */\n  dup2\n    /* \"#utility.yul\":5631:5642   */\n  swap1\n  pop\n    /* \"#utility.yul\":5662:5665   */\n  dup2\n    /* \"#utility.yul\":5659:5660   */\n  0x00\n    /* \"#utility.yul\":5652:5666   */\n  mstore\n    /* \"#utility.yul\":5696:5700   */\n  0x20\n    /* \"#utility.yul\":5693:5694   */\n  0x00\n    /* \"#utility.yul\":5683:5701   */\n  keccak256\n    /* \"#utility.yul\":5675:5701   */\n  swap1\n  pop\n    /* \"#utility.yul\":5567:5708   */\n  swap2\n  swap1\n  pop\n  jump\t// out\n    /* \"#utility.yul\":5714:5807   */\ntag_32:\n    /* \"#utility.yul\":5751:5757   */\n  0x00\n    /* \"#utility.yul\":5798:5800   */\n  0x20\n    /* \"#utility.yul\":5793:5795   */\n  0x1f\n    /* \"#utility.yul\":5786:5791   */\n  dup4\n    /* \"#utility.yul\":5782:5796   */\n  add\n    /* \"#utility.yul\":5778:5801   */\n  div\n    /* \"#utility.yul\":5768:5801   */\n  swap1\n  pop\n    /* \"#utility.yul\":5714:5807   */\n  swap2\n  swap1\n  pop\n  jump\t// out\n    /* \"#utility.yul\":5813:5920   */\ntag_33:\n    /* \"#utility.yul\":5857:5865   */\n  0x00\n    /* \"#utility.yul\":5907:5912   */\n  dup3\n    /* \"#utility.yul\":5901:5905   */\n  dup3\n    /* \"#utility.yul\":5897:5913   */\n  shl\n    /* \"#utility.yul\":5876:5913   */\n  swap1\n  pop\n    /* \"#utility.yul\":5813:5920   */\n  swap3\n  swap2\n  pop\n  pop\n  jump\t// out\n    /* \"#utility.yul\":5926:6319   */\ntag_34:\n    /* \"#utility.yul\":5995:6001   */\n  0x00\n    /* \"#utility.yul\":6045:6046   */\n  0x08\n    /* \"#utility.yul\":6033:6043   */\n  dup4\n    /* \"#utility.yul\":6029:6047   */\n  mul\n    /* \"#utility.yul\":6068:6165   */\n  tag_107\n    /* \"#utility.yul\":6098:6164   */\n  0xffffffffffffffffffffffffffffffffffffffffffffffffffffffffffffffff\n    /* \"#utility.yul\":6087:6096   */\n  dup3\n    /* \"#utility.yul\":6068:6165   */\n  tag_33\n  jump\t// in\ntag_107:\n    /* \"#utility.yul\":6186:6225   */\n  tag_108\n    /* \"#utility.yul\":6216:6224   */\n  dup7\n    /* \"#utility.yul\":6205:6214   */\n  dup4\n    /* \"#utility.yul\":6186:6225   */\n  tag_33\n  jump\t// in\ntag_108:\n    /* \"#utility.yul\":6174:6225   */\n  swap6\n  pop\n    /* \"#utility.yul\":6258:6262   */\n  dup1\n    /* \"#utility.yul\":6254:6263   */\n  not\n    /* \"#utility.yul\":6247:6252   */\n  dup5\n    /* \"#utility.yul\":6243:6264   */\n  and\n    /* \"#utility.yul\":6234:6264   */\n  swap4\n  pop\n    /* \"#utility.yul\":6307:6311   */\n  dup1\n    /* \"#utility.yul\":6297:6305   */\n  dup7\n    /* \"#utility.yul\":6293:6312   */\n  and\n    /* \"#utility.yul\":6286:6291   */\n  dup5\n    /* \"#utility.yul\":6283:6313   */\n  or\n    /* \"#utility.yul\":6273:6313   */\n  swap3\n  pop\n    /* \"#utility.yul\":6002:6319   */\n  pop\n  pop\n    /* \"#utility.yul\":5926:6319   */\n  swap4\n  swap3\n  pop\n  pop\n  pop\n  jump\t// out\n    /* \"#utility.yul\":6325:6402   */\ntag_35:\n    /* \"#utility.yul\":6362:6369   */\n  0x00\n    /* \"#utility.yul\":6391:6396   */\n  dup2\n    /* \"#utility.yul\":6380:6396   */\n  swap1\n  pop\n    /* \"#utility.yul\":6325:6402   */\n  swap2\n  swap1\n  pop\n  jump\t// out\n    /* \"#utility.yul\":6408:6468   */\ntag_36:\n    /* \"#utility.yul\":6436:6439   */\n  0x00\n    /* \"#utility.yul\":6457:6462   */\n  dup2\n    /* \"#utility.yul\":6450:6462   */\n  swap1\n  pop\n    /* \"#utility.yul\":6408:6468   */\n  swap2\n  swap1\n  pop\n  jump\t// out\n    /* \"#utility.yul\":6474:6616   */\ntag_37:\n    /* \"#utility.yul\":6524:6533   */\n  0x00\n    /* \"#utility.yul\":6557:6610   */\n  tag_112\n    /* \"#utility.yul\":6575:6609   */\n  tag_113\n    /* \"#utility.yul\":6584:6608   */\n  tag_114\n    /* \"#utility.yul\":6602:6607   */\n  dup5\n    /* \"#utility.yul\":6584:6608   */\n  tag_35\n  jump\t// in\ntag_114:\n    /* \"#utility.yul\":6575:6609   */\n  tag_36\n  jump\t// in\ntag_113:\n    /* \"#utility.yul\":6557:6610   */\n  tag_35\n  jump\t// in\ntag_112:\n    /* \"#utility.yul\":6544:6610   */\n  swap1\n  pop\n    /* \"#utility.yul\":6474:6616   */\n  swap2\n  swap1\n  pop\n  jump\t// out\n    /* \"#utility.yul\":6622:6697   */\ntag_38:\n    /* \"#utility.yul\":6665:6668   */\n  0x00\n    /* \"#utility.yul\":6686:6691   */\n  dup2\n    /* \"#utility.yul\":6679:6691   */\n  swap1\n  pop\n    /* \"#utility.yul\":6622:6697   */\n  swap2\n  swap1\n  pop\n  jump\t// out\n    /* \"#utility.yul\":6703:6972   */\ntag_39:\n    /* \"#utility.yul\":6813:6852   */\n  tag_117\n    /* \"#utility.yul\":6844:6851   */\n  dup4\n    /* \"#utility.yul\":6813:6852   */\n  tag_37\n  jump\t// in\ntag_117:\n    /* \"#utility.yul\":6874:6965   */\n  tag_118\n    /* \"#utility.yul\":6923:6964   */\n  tag_119\n    /* \"#utility.yul\":6947:6963   */\n  dup3\n    /* \"#utility.yul\":6923:6964   */\n  tag_38\n  jump\t// in\ntag_119:\n    /* \"#utility.yul\":6915:6921   */\n  dup5\n    /* \"#utility.yul\":6908:6912   */\n  dup5\n    /* \"#utility.yul\":6902:6913   */\n  sload\n    /* \"#utility.yul\":6874:6965   */\n  tag_34\n  jump\t// in\ntag_118:\n    /* \"#utility.yul\":6868:6872   */\n  dup3\n    /* \"#utility.yul\":6861:6966   */\n  sstore\n    /* \"#utility.yul\":6779:6972   */\n  pop\n    /* \"#utility.yul\":6703:6972   */\n  pop\n  pop\n  pop\n  jump\t// out\n    /* \"#utility.yul\":6978:7051   */\ntag_40:\n    /* \"#utility.yul\":7023:7026   */\n  0x00\n    /* \"#utility.yul\":6978:7051   */\n  swap1\n  jump\t// out\n    /* \"#utility.yul\":7057:7246   */\ntag_41:\n    /* \"#utility.yul\":7134:7166   */\n  tag_122\n  tag_40\n  jump\t// in\ntag_122:\n    /* \"#utility.yul\":7175:7240   */\n  tag_123\n    /* \"#utility.yul\":7233:7239   */\n  dup2\n    /* \"#utility.yul\":7225:7231   */\n  dup5\n    /* \"#utility.yul\":7219:7223   */\n  dup5\n    /* \"#utility.yul\":7175:7240   */\n  tag_39\n  jump\t// in\ntag_123:\n    /* \"#utility.yul\":7110:7246   */\n  pop\n    /* \"#utility.yul\":7057:7246   */\n  pop\n  pop\n  jump\t// out\n    /* \"#utility.yul\":7252:7438   */\ntag_42:\n    /* \"#utility.yul\":7312:7432   */\ntag_125:\n    /* \"#utility.yul\":7329:7332   */\n  dup2\n    /* \"#utility.yul\":7322:7327   */\n  dup2\n    /* \"#utility.yul\":7319:7333   */\n  lt\n    /* \"#utility.yul\":7312:7432   */\n  iszero\n  tag_127\n  jumpi\n    /* \"#utility.yul\":7383:7422   */\n  tag_128\n    /* \"#utility.yul\":7420:7421   */\n  0x00\n    /* \"#utility.yul\":7413:7418   */\n  dup3\n    /* \"#utility.yul\":7383:7422   */\n  tag_41\n  jump\t// in\ntag_128:\n    /* \"#utility.yul\":7356:7357   */\n  0x01\n    /* \"#utility.yul\":7349:7354   */\n  dup2\n    /* \"#utility.yul\":7345:7358   */\n  add\n    /* \"#utility.yul\":7336:7358   */\n  swap1\n  pop\n    /* \"#utility.yul\":7312:7432   */\n  jump(tag_125)\ntag_127:\n    /* \"#utility.yul\":7252:7438   */\n  pop\n  pop\n  jump\t// out\n    /* \"#utility.yul\":7444:7987   */\ntag_43:\n    /* \"#utility.yul\":7545:7547   */\n  0x1f\n    /* \"#utility.yul\":7540:7543   */\n  dup3\n    /* \"#utility.yul\":7537:7548   */\n  gt\n    /* \"#utility.yul\":7534:7980   */\n  iszero\n  tag_130\n  jumpi\n    /* \"#utility.yul\":7579:7617   */\n  tag_131\n    /* \"#utility.yul\":7611:7616   */\n  dup2\n    /* \"#utility.yul\":7579:7617   */\n  tag_31\n  jump\t// in\ntag_131:\n    /* \"#utility.yul\":7663:7692   */\n  tag_132\n    /* \"#utility.yul\":7681:7691   */\n  dup5\n    /* \"#utility.yul\":7663:7692   */\n  tag_32\n  jump\t// in\ntag_132:\n    /* \"#utility.yul\":7653:7661   */\n  dup2\n    /* \"#utility.yul\":7649:7693   */\n  add\n    /* \"#utility.yul\":7846:7848   */\n  0x20\n    /* \"#utility.yul\":7834:7844   */\n  dup6\n    /* \"#utility.yul\":7831:7849   */\n  lt\n    /* \"#utility.yul\":7828:7877   */\n  iszero\n  tag_133\n  jumpi\n    /* \"#utility.yul\":7867:7875   */\n  dup2\n    /* \"#utility.yul\":7852:7875   */\n  swap1\n  pop\n    /* \"#utility.yul\":7828:7877   */\ntag_133:\n    /* \"#utility.yul\":7890:7970   */\n  tag_134\n    /* \"#utility.yul\":7946:7968   */\n  tag_135\n    /* \"#utility.yul\":7964:7967   */\n  dup6\n    /* \"#utility.yul\":7946:7968   */\n  tag_32\n  jump\t// in\ntag_135:\n    /* \"#utility.yul\":7936:7944   */\n  dup4\n    /* \"#utility.yul\":7932:7969   */\n  add\n    /* \"#utility.yul\":7919:7930   */\n  dup3\n    /* \"#utility.yul\":7890:7970   */\n  tag_42\n  jump\t// in\ntag_134:\n    /* \"#utility.yul\":7549:7980   */\n  pop\n  pop\n    /* \"#utility.yul\":7534:7980   */\ntag_130:\n    /* \"#utility.yul\":7444:7987   */\n  pop\n  pop\n  pop\n  jump\t// out\n    /* \"#utility.yul\":7993:8110   */\ntag_44:\n    /* \"#utility.yul\":8047:8055   */\n  0x00\n    /* \"#utility.yul\":8097:8102   */\n  dup3\n    /* \"#utility.yul\":8091:8095   */\n  dup3\n    /* \"#utility.yul\":8087:8103   */\n  shr\n    /* \"#utility.yul\":8066:8103   */\n  swap1\n  pop\n    /* \"#utility.yul\":7993:8110   */\n  swap3\n  swap2\n  pop\n  pop\n  jump\t// out\n    /* \"#utility.yul\":8116:8285   */\ntag_45:\n    /* \"#utility.yul\":8160:8166   */\n  0x00\n    /* \"#utility.yul\":8193:8244   */\n  tag_138\n    /* \"#utility.yul\":8241:8242   */\n  0x00\n    /* \"#utility.yul\":8237:8243   */\n  not\n    /* \"#utility.yul\":8229:8234   */\n  dup5\n    /* \"#utility.yul\":8226:8227   */\n  0x08\n    /* \"#utility.yul\":8222:8235   */\n  mul\n    /* \"#utility.yul\":8193:8244   */\n  tag_44\n  jump\t// in\ntag_138:\n    /* \"#utility.yul\":8189:8245   */\n  not\n    /* \"#utility.yul\":8274:8278   */\n  dup1\n    /* \"#utility.yul\":8268:8272   */\n  dup4\n    /* \"#utility.yul\":8264:8279   */\n  and\n    /* \"#utility.yul\":8254:8279   */\n  swap2\n  pop\n    /* \"#utility.yul\":8167:8285   */\n  pop\n    /* \"#utility.yul\":8116:8285   */\n  swap3\n  swap2\n  pop\n  pop\n  jump\t// out\n    /* \"#utility.yul\":8290:8585   */\ntag_46:\n    /* \"#utility.yul\":8366:8370   */\n  0x00\n    /* \"#utility.yul\":8512:8541   */\n  tag_140\n    /* \"#utility.yul\":8537:8540   */\n  dup4\n    /* \"#utility.yul\":8531:8535   */\n  dup4\n    /* \"#utility.yul\":8512:8541   */\n  tag_45\n  jump\t// in\ntag_140:\n    /* \"#utility.yul\":8504:8541   */\n  swap2\n  pop\n    /* \"#utility.yul\":8574:8577   */\n  dup3\n    /* \"#utility.yul\":8571:8572   */\n  0x02\n    /* \"#utility.yul\":8567:8578   */\n  mul\n    /* \"#utility.yul\":8561:8565   */\n  dup3\n    /* \"#utility.yul\":8558:8579   */\n  or\n    /* \"#utility.yul\":8550:8579   */\n  swap1\n  pop\n    /* \"#utility.yul\":8290:8585   */\n  swap3\n  swap2\n  pop\n  pop\n  jump\t// out\n    /* \"#utility.yul\":8590:9985   */\ntag_9:\n    /* \"#utility.yul\":8707:8744   */\n  tag_142\n    /* \"#utility.yul\":8740:8743   */\n  dup3\n    /* \"#utility.yul\":8707:8744   */\n  tag_26\n  jump\t// in\ntag_142:\n    /* \"#utility.yul\":8809:8827   */\n  0xffffffffffffffff\n    /* \"#utility.yul\":8801:8807   */\n  dup2\n    /* \"#utility.yul\":8798:8828   */\n  gt\n    /* \"#utility.yul\":8795:8851   */\n  iszero\n  tag_143\n  jumpi\n    /* \"#utility.yul\":8831:8849   */\n  tag_144\n  tag_17\n  jump\t// in\ntag_144:\n    /* \"#utility.yul\":8795:8851   */\ntag_143:\n    /* \"#utility.yul\":8875:8913   */\n  tag_145\n    /* \"#utility.yul\":8907:8911   */\n  dup3\n    /* \"#utility.yul\":8901:8912   */\n  sload\n    /* \"#utility.yul\":8875:8913   */\n  tag_30\n  jump\t// in\ntag_145:\n    /* \"#utility.yul\":8960:9027   */\n  tag_146\n    /* \"#utility.yul\":9020:9026   */\n  dup3\n    /* \"#utility.yul\":9012:9018   */\n  dup3\n    /* \"#utility.yul\":9006:9010   */\n  dup6\n    /* \"#utility.yul\":8960:9027   */\n  tag_43\n  jump\t// in\ntag_146:\n    /* \"#utility.yul\":9054:9055   */\n  0x00\n    /* \"#utility.yul\":9078:9082   */\n  0x20\n    /* \"#utility.yul\":9065:9082   */\n  swap1\n  pop\n    /* \"#utility.yul\":9110:9112   */\n  0x1f\n    /* \"#utility.yul\":9102:9108   */\n  dup4\n    /* \"#utility.yul\":9099:9113   */\n  gt\n    /* \"#utility.yul\":9127:9128   */\n  0x01\n    /* \"#utility.yul\":9122:9740   */\n  dup2\n  eq\n  tag_148\n  jumpi\n    /* \"#utility.yul\":9784:9785   */\n  0x00\n    /* \"#utility.yul\":9801:9807   */\n  dup5\n    /* \"#utility.yul\":9798:9875   */\n  iszero\n  tag_149\n  jumpi\n    /* \"#utility.yul\":9850:9859   */\n  dup3\n    /* \"#utility.yul\":9845:9848   */\n  dup8\n    /* \"#utility.yul\":9841:9860   */\n  add\n    /* \"#utility.yul\":9835:9861   */\n  mload\n    /* \"#utility.yul\":9826:9861   */\n  swap1\n  pop\n    /* \"#utility.yul\":9798:9875   */\ntag_149:\n    /* \"#utility.yul\":9901:9968   */\n  tag_150\n    /* \"#utility.yul\":9961:9967   */\n  dup6\n    /* \"#utility.yul\":9954:9959   */\n  dup3\n    /* \"#utility.yul\":9901:9968   */\n  tag_46\n  jump\t// in\ntag_150:\n    /* \"#utility.yul\":9895:9899   */\n  dup7\n    /* \"#utility.yul\":9888:9969   */\n  sstore\n    /* \"#utility.yul\":9757:9979   */\n  pop\n    /* \"#utility.yul\":9092:9979   */\n  jump(tag_147)\n    /* \"#utility.yul\":9122:9740   */\ntag_148:\n    /* \"#utility.yul\":9174:9178   */\n  0x1f\n    /* \"#utility.yul\":9170:9179   */\n  not\n    /* \"#utility.yul\":9162:9168   */\n  dup5\n    /* \"#utility.yul\":9158:9180   */\n  and\n    /* \"#utility.yul\":9208:9245   */\n  tag_151\n    /* \"#utility.yul\":9240:9244   */\n  dup7\n    /* \"#utility.yul\":9208:9245   */\n  tag_31\n  jump\t// in\ntag_151:\n    /* \"#utility.yul\":9267:9268   */\n  0x00\n    /* \"#utility.yul\":9281:9489   */\ntag_152:\n    /* \"#utility.yul\":9295:9302   */\n  dup3\n    /* \"#utility.yul\":9292:9293   */\n  dup2\n    /* \"#utility.yul\":9289:9303   */\n  lt\n    /* \"#utility.yul\":9281:9489   */\n  iszero\n  tag_154\n  jumpi\n    /* \"#utility.yul\":9374:9383   */\n  dup5\n    /* \"#utility.yul\":9369:9372   */\n  dup10\n    /* \"#utility.yul\":9365:9384   */\n  add\n    /* \"#utility.yul\":9359:9385   */\n  mload\n    /* \"#utility.yul\":9351:9357   */\n  dup3\n    /* \"#utility.yul\":9344:9386   */\n  sstore\n    /* \"#utility.yul\":9425:9426   */\n  0x01\n    /* \"#utility.yul\":9417:9423   */\n  dup3\n    /* \"#utility.yul\":9413:9427   */\n  add\n    /* \"#utility.yul\":9403:9427   */\n  swap2\n  pop\n    /* \"#utility.yul\":9472:9474   */\n  0x20\n    /* \"#utility.yul\":9461:9470   */\n  dup6\n    /* \"#utility.yul\":9457:9475   */\n  add\n    /* \"#utility.yul\":9444:9475   */\n  swap5\n  pop\n    /* \"#utility.yul\":9318:9322   */\n  0x20\n    /* \"#utility.yul\":9315:9316   */\n  dup2\n    /* \"#utility.yul\":9311:9323   */\n  add\n    /* \"#utility.yul\":9306:9323   */\n  swap1\n  pop\n    /* \"#utility.yul\":9281:9489   */\n  jump(tag_152)\ntag_154:\n    /* \"#utility.yul\":9517:9523   */\n  dup7\n    /* \"#utility.yul\":9508:9515   */\n  dup4\n    /* \"#utility.yul\":9505:9524   */\n  lt\n    /* \"#utility.yul\":9502:9681   */\n  iszero\n  tag_155\n  jumpi\n    /* \"#utility.yul\":9575:9584   */\n  dup5\n    /* \"#utility.yul\":9570:9573   */\n  dup10\n    /* \"#utility.yul\":9566:9585   */\n  add\n    /* \"#utility.yul\":9560:9586   */\n  mload\n    /* \"#utility.yul\":9618:9666   */\n  tag_156\n    /* \"#utility.yul\":9660:9664   */\n  0x1f\n    /* \"#utility.yul\":9652:9658   */\n  dup10\n    /* \"#utility.yul\":9648:9665   */\n  and\n    /* \"#utility.yul\":9637:9646   */\n  dup3\n    /* \"#utility.yul\":9618:9666   */\n  tag_45\n  jump\t// in\ntag_156:\n    /* \"#utility.yul\":9610:9616   */\n  dup4\n    /* \"#utility.yul\":9603:9667   */\n  sstore\n    /* \"#utility.yul\":9525:9681   */\n  pop\n    /* \"#utility.yul\":9502:9681   */\ntag_155:\n    /* \"#utility.yul\":9727:9728   */\n  0x01\n    /* \"#utility.yul\":9723:9724   */\n  0x02\n    /* \"#utility.yul\":9715:9721   */\n  dup9\n    /* \"#utility.yul\":9711:9725   */\n  mul\n    /* \"#utility.yul\":9707:9729   */\n  add\n    /* \"#utility.yul\":9701:9705   */\n  dup9\n    /* \"#utility.yul\":9694:9730   */\n  sstore\n    /* \"#utility.yul\":9129:9740   */\n  pop\n  pop\n  pop\n    /* \"#utility.yul\":9092:9979   */\ntag_147:\n  pop\n    /* \"#utility.yul\":8682:9985   */\n  pop\n  pop\n  pop\n    /* \"#utility.yul\":8590:9985   */\n  pop\n  pop\n  jump\t// out\n    /* \"variables_nativas.sol\":62:350  contract variables_nativas {... */\ntag_10:\n  dataSize(sub_0)\n  dup1\n  dataOffset(sub_0)\n  0x00\n  codecopy\n  0x00\n  return\nstop\n\nsub_0: assembly {\n        /* \"variables_nativas.sol\":62:350  contract variables_nativas {... */\n      mstore(0x40, 0x80)\n      callvalue\n      dup1\n      iszero\n      tag_1\n      jumpi\n      0x00\n      dup1\n      revert\n    tag_1:\n      pop\n      jumpi(tag_2, lt(calldatasize, 0x04))\n      shr(0xe0, calldataload(0x00))\n      dup1\n      0x17d7de7c\n      eq\n      tag_3\n      jumpi\n    tag_2:\n      0x00\n      dup1\n      revert\n        /* \"variables_nativas.sol\":251:339  function getName() public view returns (string memory){... */\n    tag_3:\n      tag_4\n      tag_5\n      jump\t// in\n    tag_4:\n      mload(0x40)\n      tag_6\n      swap2\n      swap1\n      tag_7\n      jump\t// in\n    tag_6:\n      mload(0x40)\n      dup1\n      swap2\n      sub\n      swap1\n      return\n    tag_5:\n        /* \"variables_nativas.sol\":291:304  string memory */\n      0x60\n        /* \"variables_nativas.sol\":323:331  fullName */\n      0x00\n        /* \"variables_nativas.sol\":316:331  return fullName */\n      dup1\n      sload\n      tag_9\n      swap1\n      tag_10\n      jump\t// in\n    tag_9:\n      dup1\n      0x1f\n      add\n      0x20\n      dup1\n      swap2\n      div\n      mul\n      0x20\n      add\n      mload(0x40)\n      swap1\n      dup2\n      add\n      0x40\n      mstore\n      dup1\n      swap3\n      swap2\n      swap1\n      dup2\n      dup2\n      mstore\n      0x20\n      add\n      dup3\n      dup1\n      sload\n      tag_11\n      swap1\n      tag_10\n      jump\t// in\n    tag_11:\n      dup1\n      iszero\n      tag_12\n      jumpi\n      dup1\n      0x1f\n      lt\n      tag_13\n      jumpi\n      0x0100\n      dup1\n      dup4\n      sload\n      div\n      mul\n      dup4\n      mstore\n      swap2\n      0x20\n      add\n      swap2\n      jump(tag_12)\n    tag_13:\n      dup3\n      add\n      swap2\n      swap1\n      0x00\n      mstore\n      keccak256(0x00, 0x20)\n      swap1\n    tag_14:\n      dup2\n      sload\n      dup2\n      mstore\n      swap1\n      0x01\n      add\n      swap1\n      0x20\n      add\n      dup1\n      dup4\n      gt\n      tag_14\n      jumpi\n      dup3\n      swap1\n      sub\n      0x1f\n      and\n      dup3\n      add\n      swap2\n    tag_12:\n      pop\n      pop\n      pop\n      pop\n      pop\n      swap1\n      pop\n        /* \"variables_nativas.sol\":251:339  function getName() public view returns (string memory){... */\n      swap1\n      jump\t// out\n        /* \"#utility.yul\":7:106   */\n    tag_15:\n        /* \"#utility.yul\":59:65   */\n      0x00\n        /* \"#utility.yul\":93:98   */\n      dup2\n        /* \"#utility.yul\":87:99   */\n      mload\n        /* \"#utility.yul\":77:99   */\n      swap1\n      pop\n        /* \"#utility.yul\":7:106   */\n      swap2\n      swap1\n      pop\n      jump\t// out\n        /* \"#utility.yul\":112:281   */\n    tag_16:\n        /* \"#utility.yul\":196:207   */\n      0x00\n        /* \"#utility.yul\":230:236   */\n      dup3\n        /* \"#utility.yul\":225:228   */\n      dup3\n        /* \"#utility.yul\":218:237   */\n      mstore\n        /* \"#utility.yul\":270:274   */\n      0x20\n        /* \"#utility.yul\":265:268   */\n      dup3\n        /* \"#utility.yul\":261:275   */\n      add\n        /* \"#utility.yul\":246:275   */\n      swap1\n      pop\n        /* \"#utility.yul\":112:281   */\n      swap3\n      swap2\n      pop\n      pop\n      jump\t// out\n        /* \"#utility.yul\":287:533   */\n    tag_17:\n        /* \"#utility.yul\":368:369   */\n      0x00\n        /* \"#utility.yul\":378:491   */\n    tag_25:\n        /* \"#utility.yul\":392:398   */\n      dup4\n        /* \"#utility.yul\":389:390   */\n      dup2\n        /* \"#utility.yul\":386:399   */\n      lt\n        /* \"#utility.yul\":378:491   */\n      iszero\n      tag_27\n      jumpi\n        /* \"#utility.yul\":477:478   */\n      dup1\n        /* \"#utility.yul\":472:475   */\n      dup3\n        /* \"#utility.yul\":468:479   */\n      add\n        /* \"#utility.yul\":462:480   */\n      mload\n        /* \"#utility.yul\":458:459   */\n      dup2\n        /* \"#utility.yul\":453:456   */\n      dup5\n        /* \"#utility.yul\":449:460   */\n      add\n        /* \"#utility.yul\":442:481   */\n      mstore\n        /* \"#utility.yul\":414:416   */\n      0x20\n        /* \"#utility.yul\":411:412   */\n      dup2\n        /* \"#utility.yul\":407:417   */\n      add\n        /* \"#utility.yul\":402:417   */\n      swap1\n      pop\n        /* \"#utility.yul\":378:491   */\n      jump(tag_25)\n    tag_27:\n        /* \"#utility.yul\":525:526   */\n      0x00\n        /* \"#utility.yul\":516:522   */\n      dup5\n        /* \"#utility.yul\":511:514   */\n      dup5\n        /* \"#utility.yul\":507:523   */\n      add\n        /* \"#utility.yul\":500:527   */\n      mstore\n        /* \"#utility.yul\":349:533   */\n      pop\n        /* \"#utility.yul\":287:533   */\n      pop\n      pop\n      pop\n      jump\t// out\n        /* \"#utility.yul\":539:641   */\n    tag_18:\n        /* \"#utility.yul\":580:586   */\n      0x00\n        /* \"#utility.yul\":631:633   */\n      0x1f\n        /* \"#utility.yul\":627:634   */\n      not\n        /* \"#utility.yul\":622:624   */\n      0x1f\n        /* \"#utility.yul\":615:620   */\n      dup4\n        /* \"#utility.yul\":611:625   */\n      add\n        /* \"#utility.yul\":607:635   */\n      and\n        /* \"#utility.yul\":597:635   */\n      swap1\n      pop\n        /* \"#utility.yul\":539:641   */\n      swap2\n      swap1\n      pop\n      jump\t// out\n        /* \"#utility.yul\":647:1024   */\n    tag_19:\n        /* \"#utility.yul\":735:738   */\n      0x00\n        /* \"#utility.yul\":763:802   */\n      tag_30\n        /* \"#utility.yul\":796:801   */\n      dup3\n        /* \"#utility.yul\":763:802   */\n      tag_15\n      jump\t// in\n    tag_30:\n        /* \"#utility.yul\":818:889   */\n      tag_31\n        /* \"#utility.yul\":882:888   */\n      dup2\n        /* \"#utility.yul\":877:880   */\n      dup6\n        /* \"#utility.yul\":818:889   */\n      tag_16\n      jump\t// in\n    tag_31:\n        /* \"#utility.yul\":811:889   */\n      swap4\n      pop\n        /* \"#utility.yul\":898:963   */\n      tag_32\n        /* \"#utility.yul\":956:962   */\n      dup2\n        /* \"#utility.yul\":951:954   */\n      dup6\n        /* \"#utility.yul\":944:948   */\n      0x20\n        /* \"#utility.yul\":937:942   */\n      dup7\n        /* \"#utility.yul\":933:949   */\n      add\n        /* \"#utility.yul\":898:963   */\n      tag_17\n      jump\t// in\n    tag_32:\n        /* \"#utility.yul\":988:1017   */\n      tag_33\n        /* \"#utility.yul\":1010:1016   */\n      dup2\n        /* \"#utility.yul\":988:1017   */\n      tag_18\n      jump\t// in\n    tag_33:\n        /* \"#utility.yul\":983:986   */\n      dup5\n        /* \"#utility.yul\":979:1018   */\n      add\n        /* \"#utility.yul\":972:1018   */\n      swap2\n      pop\n        /* \"#utility.yul\":739:1024   */\n      pop\n        /* \"#utility.yul\":647:1024   */\n      swap3\n      swap2\n      pop\n      pop\n      jump\t// out\n        /* \"#utility.yul\":1030:1343   */\n    tag_7:\n        /* \"#utility.yul\":1143:1147   */\n      0x00\n        /* \"#utility.yul\":1181:1183   */\n      0x20\n        /* \"#utility.yul\":1170:1179   */\n      dup3\n        /* \"#utility.yul\":1166:1184   */\n      add\n        /* \"#utility.yul\":1158:1184   */\n      swap1\n      pop\n        /* \"#utility.yul\":1230:1239   */\n      dup2\n        /* \"#utility.yul\":1224:1228   */\n      dup2\n        /* \"#utility.yul\":1220:1240   */\n      sub\n        /* \"#utility.yul\":1216:1217   */\n      0x00\n        /* \"#utility.yul\":1205:1214   */\n      dup4\n        /* \"#utility.yul\":1201:1218   */\n      add\n        /* \"#utility.yul\":1194:1241   */\n      mstore\n        /* \"#utility.yul\":1258:1336   */\n      tag_35\n        /* \"#utility.yul\":1331:1335   */\n      dup2\n        /* \"#utility.yul\":1322:1328   */\n      dup5\n        /* \"#utility.yul\":1258:1336   */\n      tag_19\n      jump\t// in\n    tag_35:\n        /* \"#utility.yul\":1250:1336   */\n      swap1\n      pop\n        /* \"#utility.yul\":1030:1343   */\n      swap3\n      swap2\n      pop\n      pop\n      jump\t// out\n        /* \"#utility.yul\":1349:1529   */\n    tag_20:\n        /* \"#utility.yul\":1397:1474   */\n      0x4e487b7100000000000000000000000000000000000000000000000000000000\n        /* \"#utility.yul\":1394:1395   */\n      0x00\n        /* \"#utility.yul\":1387:1475   */\n      mstore\n        /* \"#utility.yul\":1494:1498   */\n      0x22\n        /* \"#utility.yul\":1491:1492   */\n      0x04\n        /* \"#utility.yul\":1484:1499   */\n      mstore\n        /* \"#utility.yul\":1518:1522   */\n      0x24\n        /* \"#utility.yul\":1515:1516   */\n      0x00\n        /* \"#utility.yul\":1508:1523   */\n      revert\n        /* \"#utility.yul\":1535:1855   */\n    tag_10:\n        /* \"#utility.yul\":1579:1585   */\n      0x00\n        /* \"#utility.yul\":1616:1617   */\n      0x02\n        /* \"#utility.yul\":1610:1614   */\n      dup3\n        /* \"#utility.yul\":1606:1618   */\n      div\n        /* \"#utility.yul\":1596:1618   */\n      swap1\n      pop\n        /* \"#utility.yul\":1663:1664   */\n      0x01\n        /* \"#utility.yul\":1657:1661   */\n      dup3\n        /* \"#utility.yul\":1653:1665   */\n      and\n        /* \"#utility.yul\":1684:1702   */\n      dup1\n        /* \"#utility.yul\":1674:1755   */\n      tag_38\n      jumpi\n        /* \"#utility.yul\":1740:1744   */\n      0x7f\n        /* \"#utility.yul\":1732:1738   */\n      dup3\n        /* \"#utility.yul\":1728:1745   */\n      and\n        /* \"#utility.yul\":1718:1745   */\n      swap2\n      pop\n        /* \"#utility.yul\":1674:1755   */\n    tag_38:\n        /* \"#utility.yul\":1802:1804   */\n      0x20\n        /* \"#utility.yul\":1794:1800   */\n      dup3\n        /* \"#utility.yul\":1791:1805   */\n      lt\n        /* \"#utility.yul\":1771:1789   */\n      dup2\n        /* \"#utility.yul\":1768:1806   */\n      sub\n        /* \"#utility.yul\":1765:1849   */\n      tag_39\n      jumpi\n        /* \"#utility.yul\":1821:1839   */\n      tag_40\n      tag_20\n      jump\t// in\n    tag_40:\n        /* \"#utility.yul\":1765:1849   */\n    tag_39:\n        /* \"#utility.yul\":1586:1855   */\n      pop\n        /* \"#utility.yul\":1535:1855   */\n      swap2\n      swap1\n      pop\n      jump\t// out\n\n    auxdata: 0xa2646970667358221220fb7a9e7aa27bde6bea5bd23b5a200cb1bf236b398c2328b8262fc9153a82e99564736f6c63430008180033\n}\n",
				"bytecode": {
					"linkReferences": {},
					"object": "608060405234801561000f575f80fd5b506040516107cd3803806107cd833981810160405281019061003191906101cc565b8060405160200161004291906102a3565b6040516020818303038152906040525f908161005e91906104da565b50506105a9565b5f604051905090565b5f80fd5b5f80fd5b5f80fd5b5f80fd5b5f601f19601f8301169050919050565b7f4e487b71000000000000000000000000000000000000000000000000000000005f52604160045260245ffd5b6100c48261007e565b810181811067ffffffffffffffff821117156100e3576100e261008e565b5b80604052505050565b5f6100f5610065565b905061010182826100bb565b919050565b5f67ffffffffffffffff8211156101205761011f61008e565b5b6101298261007e565b9050602081019050919050565b5f5b83811015610153578082015181840152602081019050610138565b5f8484015250505050565b5f61017061016b84610106565b6100ec565b90508281526020810184848401111561018c5761018b61007a565b5b610197848285610136565b509392505050565b5f82601f8301126101b3576101b2610076565b5b81516101c384826020860161015e565b91505092915050565b5f602082840312156101e1576101e061006e565b5b5f82015167ffffffffffffffff8111156101fe576101fd610072565b5b61020a8482850161019f565b91505092915050565b7f4d69206e6f6d6272652065733a00000000000000000000000000000000000000815250565b7f2000000000000000000000000000000000000000000000000000000000000000815250565b5f81519050919050565b5f81905092915050565b5f61027d8261025f565b6102878185610269565b9350610297818560208601610136565b80840191505092915050565b5f6102ad82610213565b600d820191506102bc82610239565b6001820191506102cc8284610273565b915081905092915050565b7f4e487b71000000000000000000000000000000000000000000000000000000005f52602260045260245ffd5b5f600282049050600182168061031b57607f821691505b60208210810361032e5761032d6102d7565b5b50919050565b5f819050815f5260205f209050919050565b5f6020601f8301049050919050565b5f82821b905092915050565b5f600883026103907fffffffffffffffffffffffffffffffffffffffffffffffffffffffffffffffff82610355565b61039a8683610355565b95508019841693508086168417925050509392505050565b5f819050919050565b5f819050919050565b5f6103de6103d96103d4846103b2565b6103bb565b6103b2565b9050919050565b5f819050919050565b6103f7836103c4565b61040b610403826103e5565b848454610361565b825550505050565b5f90565b61041f610413565b61042a8184846103ee565b505050565b5b8181101561044d576104425f82610417565b600181019050610430565b5050565b601f8211156104925761046381610334565b61046c84610346565b8101602085101561047b578190505b61048f61048785610346565b83018261042f565b50505b505050565b5f82821c905092915050565b5f6104b25f1984600802610497565b1980831691505092915050565b5f6104ca83836104a3565b9150826002028217905092915050565b6104e38261025f565b67ffffffffffffffff8111156104fc576104fb61008e565b5b6105068254610304565b610511828285610451565b5f60209050601f831160018114610542575f8415610530578287015190505b61053a85826104bf565b8655506105a1565b601f19841661055086610334565b5f5b8281101561057757848901518255600182019150602085019450602081019050610552565b868310156105945784890151610590601f8916826104a3565b8355505b6001600288020188555050505b505050505050565b610217806105b65f395ff3fe608060405234801561000f575f80fd5b5060043610610029575f3560e01c806317d7de7c1461002d575b5f80fd5b61003561004b565b6040516100429190610164565b60405180910390f35b60605f8054610059906101b1565b80601f0160208091040260200160405190810160405280929190818152602001828054610085906101b1565b80156100d05780601f106100a7576101008083540402835291602001916100d0565b820191905f5260205f20905b8154815290600101906020018083116100b357829003601f168201915b5050505050905090565b5f81519050919050565b5f82825260208201905092915050565b5f5b838110156101115780820151818401526020810190506100f6565b5f8484015250505050565b5f601f19601f8301169050919050565b5f610136826100da565b61014081856100e4565b93506101508185602086016100f4565b6101598161011c565b840191505092915050565b5f6020820190508181035f83015261017c818461012c565b905092915050565b7f4e487b71000000000000000000000000000000000000000000000000000000005f52602260045260245ffd5b5f60028204905060018216806101c857607f821691505b6020821081036101db576101da610184565b5b5091905056fea2646970667358221220fb7a9e7aa27bde6bea5bd23b5a200cb1bf236b398c2328b8262fc9153a82e99564736f6c63430008180033",
					"opcodes": "PUSH1 0x80 PUSH1 0x40 MSTORE CALLVALUE DUP1 ISZERO PUSH2 0xF JUMPI PUSH0 DUP1 REVERT JUMPDEST POP PUSH1 0x40 MLOAD PUSH2 0x7CD CODESIZE SUB DUP1 PUSH2 0x7CD DUP4 CODECOPY DUP2 DUP2 ADD PUSH1 0x40 MSTORE DUP2 ADD SWAP1 PUSH2 0x31 SWAP2 SWAP1 PUSH2 0x1CC JUMP JUMPDEST DUP1 PUSH1 0x40 MLOAD PUSH1 0x20 ADD PUSH2 0x42 SWAP2 SWAP1 PUSH2 0x2A3 JUMP JUMPDEST PUSH1 0x40 MLOAD PUSH1 0x20 DUP2 DUP4 SUB SUB DUP2 MSTORE SWAP1 PUSH1 0x40 MSTORE PUSH0 SWAP1 DUP2 PUSH2 0x5E SWAP2 SWAP1 PUSH2 0x4DA JUMP JUMPDEST POP POP PUSH2 0x5A9 JUMP JUMPDEST PUSH0 PUSH1 0x40 MLOAD SWAP1 POP SWAP1 JUMP JUMPDEST PUSH0 DUP1 REVERT JUMPDEST PUSH0 DUP1 REVERT JUMPDEST PUSH0 DUP1 REVERT JUMPDEST PUSH0 DUP1 REVERT JUMPDEST PUSH0 PUSH1 0x1F NOT PUSH1 0x1F DUP4 ADD AND SWAP1 POP SWAP2 SWAP1 POP JUMP JUMPDEST PUSH32 0x4E487B7100000000000000000000000000000000000000000000000000000000 PUSH0 MSTORE PUSH1 0x41 PUSH1 0x4 MSTORE PUSH1 0x24 PUSH0 REVERT JUMPDEST PUSH2 0xC4 DUP3 PUSH2 0x7E JUMP JUMPDEST DUP2 ADD DUP2 DUP2 LT PUSH8 0xFFFFFFFFFFFFFFFF DUP3 GT OR ISZERO PUSH2 0xE3 JUMPI PUSH2 0xE2 PUSH2 0x8E JUMP JUMPDEST JUMPDEST DUP1 PUSH1 0x40 MSTORE POP POP POP JUMP JUMPDEST PUSH0 PUSH2 0xF5 PUSH2 0x65 JUMP JUMPDEST SWAP1 POP PUSH2 0x101 DUP3 DUP3 PUSH2 0xBB JUMP JUMPDEST SWAP2 SWAP1 POP JUMP JUMPDEST PUSH0 PUSH8 0xFFFFFFFFFFFFFFFF DUP3 GT ISZERO PUSH2 0x120 JUMPI PUSH2 0x11F PUSH2 0x8E JUMP JUMPDEST JUMPDEST PUSH2 0x129 DUP3 PUSH2 0x7E JUMP JUMPDEST SWAP1 POP PUSH1 0x20 DUP2 ADD SWAP1 POP SWAP2 SWAP1 POP JUMP JUMPDEST PUSH0 JUMPDEST DUP4 DUP2 LT ISZERO PUSH2 0x153 JUMPI DUP1 DUP3 ADD MLOAD DUP2 DUP5 ADD MSTORE PUSH1 0x20 DUP2 ADD SWAP1 POP PUSH2 0x138 JUMP JUMPDEST PUSH0 DUP5 DUP5 ADD MSTORE POP POP POP POP JUMP JUMPDEST PUSH0 PUSH2 0x170 PUSH2 0x16B DUP5 PUSH2 0x106 JUMP JUMPDEST PUSH2 0xEC JUMP JUMPDEST SWAP1 POP DUP3 DUP2 MSTORE PUSH1 0x20 DUP2 ADD DUP5 DUP5 DUP5 ADD GT ISZERO PUSH2 0x18C JUMPI PUSH2 0x18B PUSH2 0x7A JUMP JUMPDEST JUMPDEST PUSH2 0x197 DUP5 DUP3 DUP6 PUSH2 0x136 JUMP JUMPDEST POP SWAP4 SWAP3 POP POP POP JUMP JUMPDEST PUSH0 DUP3 PUSH1 0x1F DUP4 ADD SLT PUSH2 0x1B3 JUMPI PUSH2 0x1B2 PUSH2 0x76 JUMP JUMPDEST JUMPDEST DUP2 MLOAD PUSH2 0x1C3 DUP5 DUP3 PUSH1 0x20 DUP7 ADD PUSH2 0x15E JUMP JUMPDEST SWAP2 POP POP SWAP3 SWAP2 POP POP JUMP JUMPDEST PUSH0 PUSH1 0x20 DUP3 DUP5 SUB SLT ISZERO PUSH2 0x1E1 JUMPI PUSH2 0x1E0 PUSH2 0x6E JUMP JUMPDEST JUMPDEST PUSH0 DUP3 ADD MLOAD PUSH8 0xFFFFFFFFFFFFFFFF DUP2 GT ISZERO PUSH2 0x1FE JUMPI PUSH2 0x1FD PUSH2 0x72 JUMP JUMPDEST JUMPDEST PUSH2 0x20A DUP5 DUP3 DUP6 ADD PUSH2 0x19F JUMP JUMPDEST SWAP2 POP POP SWAP3 SWAP2 POP POP JUMP JUMPDEST PUSH32 0x4D69206E6F6D6272652065733A00000000000000000000000000000000000000 DUP2 MSTORE POP JUMP JUMPDEST PUSH32 0x2000000000000000000000000000000000000000000000000000000000000000 DUP2 MSTORE POP JUMP JUMPDEST PUSH0 DUP2 MLOAD SWAP1 POP SWAP2 SWAP1 POP JUMP JUMPDEST PUSH0 DUP2 SWAP1 POP SWAP3 SWAP2 POP POP JUMP JUMPDEST PUSH0 PUSH2 0x27D DUP3 PUSH2 0x25F JUMP JUMPDEST PUSH2 0x287 DUP2 DUP6 PUSH2 0x269 JUMP JUMPDEST SWAP4 POP PUSH2 0x297 DUP2 DUP6 PUSH1 0x20 DUP7 ADD PUSH2 0x136 JUMP JUMPDEST DUP1 DUP5 ADD SWAP2 POP POP SWAP3 SWAP2 POP POP JUMP JUMPDEST PUSH0 PUSH2 0x2AD DUP3 PUSH2 0x213 JUMP JUMPDEST PUSH1 0xD DUP3 ADD SWAP2 POP PUSH2 0x2BC DUP3 PUSH2 0x239 JUMP JUMPDEST PUSH1 0x1 DUP3 ADD SWAP2 POP PUSH2 0x2CC DUP3 DUP5 PUSH2 0x273 JUMP JUMPDEST SWAP2 POP DUP2 SWAP1 POP SWAP3 SWAP2 POP POP JUMP JUMPDEST PUSH32 0x4E487B7100000000000000000000000000000000000000000000000000000000 PUSH0 MSTORE PUSH1 0x22 PUSH1 0x4 MSTORE PUSH1 0x24 PUSH0 REVERT JUMPDEST PUSH0 PUSH1 0x2 DUP3 DIV SWAP1 POP PUSH1 0x1 DUP3 AND DUP1 PUSH2 0x31B JUMPI PUSH1 0x7F DUP3 AND SWAP2 POP JUMPDEST PUSH1 0x20 DUP3 LT DUP2 SUB PUSH2 0x32E JUMPI PUSH2 0x32D PUSH2 0x2D7 JUMP JUMPDEST JUMPDEST POP SWAP2 SWAP1 POP JUMP JUMPDEST PUSH0 DUP2 SWAP1 POP DUP2 PUSH0 MSTORE PUSH1 0x20 PUSH0 KECCAK256 SWAP1 POP SWAP2 SWAP1 POP JUMP JUMPDEST PUSH0 PUSH1 0x20 PUSH1 0x1F DUP4 ADD DIV SWAP1 POP SWAP2 SWAP1 POP JUMP JUMPDEST PUSH0 DUP3 DUP3 SHL SWAP1 POP SWAP3 SWAP2 POP POP JUMP JUMPDEST PUSH0 PUSH1 0x8 DUP4 MUL PUSH2 0x390 PUSH32 0xFFFFFFFFFFFFFFFFFFFFFFFFFFFFFFFFFFFFFFFFFFFFFFFFFFFFFFFFFFFFFFFF DUP3 PUSH2 0x355 JUMP JUMPDEST PUSH2 0x39A DUP7 DUP4 PUSH2 0x355 JUMP JUMPDEST SWAP6 POP DUP1 NOT DUP5 AND SWAP4 POP DUP1 DUP7 AND DUP5 OR SWAP3 POP POP POP SWAP4 SWAP3 POP POP POP JUMP JUMPDEST PUSH0 DUP2 SWAP1 POP SWAP2 SWAP1 POP JUMP JUMPDEST PUSH0 DUP2 SWAP1 POP SWAP2 SWAP1 POP JUMP JUMPDEST PUSH0 PUSH2 0x3DE PUSH2 0x3D9 PUSH2 0x3D4 DUP5 PUSH2 0x3B2 JUMP JUMPDEST PUSH2 0x3BB JUMP JUMPDEST PUSH2 0x3B2 JUMP JUMPDEST SWAP1 POP SWAP2 SWAP1 POP JUMP JUMPDEST PUSH0 DUP2 SWAP1 POP SWAP2 SWAP1 POP JUMP JUMPDEST PUSH2 0x3F7 DUP4 PUSH2 0x3C4 JUMP JUMPDEST PUSH2 0x40B PUSH2 0x403 DUP3 PUSH2 0x3E5 JUMP JUMPDEST DUP5 DUP5 SLOAD PUSH2 0x361 JUMP JUMPDEST DUP3 SSTORE POP POP POP POP JUMP JUMPDEST PUSH0 SWAP1 JUMP JUMPDEST PUSH2 0x41F PUSH2 0x413 JUMP JUMPDEST PUSH2 0x42A DUP2 DUP5 DUP5 PUSH2 0x3EE JUMP JUMPDEST POP POP POP JUMP JUMPDEST JUMPDEST DUP2 DUP2 LT ISZERO PUSH2 0x44D JUMPI PUSH2 0x442 PUSH0 DUP3 PUSH2 0x417 JUMP JUMPDEST PUSH1 0x1 DUP2 ADD SWAP1 POP PUSH2 0x430 JUMP JUMPDEST POP POP JUMP JUMPDEST PUSH1 0x1F DUP3 GT ISZERO PUSH2 0x492 JUMPI PUSH2 0x463 DUP2 PUSH2 0x334 JUMP JUMPDEST PUSH2 0x46C DUP5 PUSH2 0x346 JUMP JUMPDEST DUP2 ADD PUSH1 0x20 DUP6 LT ISZERO PUSH2 0x47B JUMPI DUP2 SWAP1 POP JUMPDEST PUSH2 0x48F PUSH2 0x487 DUP6 PUSH2 0x346 JUMP JUMPDEST DUP4 ADD DUP3 PUSH2 0x42F JUMP JUMPDEST POP POP JUMPDEST POP POP POP JUMP JUMPDEST PUSH0 DUP3 DUP3 SHR SWAP1 POP SWAP3 SWAP2 POP POP JUMP JUMPDEST PUSH0 PUSH2 0x4B2 PUSH0 NOT DUP5 PUSH1 0x8 MUL PUSH2 0x497 JUMP JUMPDEST NOT DUP1 DUP4 AND SWAP2 POP POP SWAP3 SWAP2 POP POP JUMP JUMPDEST PUSH0 PUSH2 0x4CA DUP4 DUP4 PUSH2 0x4A3 JUMP JUMPDEST SWAP2 POP DUP3 PUSH1 0x2 MUL DUP3 OR SWAP1 POP SWAP3 SWAP2 POP POP JUMP JUMPDEST PUSH2 0x4E3 DUP3 PUSH2 0x25F JUMP JUMPDEST PUSH8 0xFFFFFFFFFFFFFFFF DUP2 GT ISZERO PUSH2 0x4FC JUMPI PUSH2 0x4FB PUSH2 0x8E JUMP JUMPDEST JUMPDEST PUSH2 0x506 DUP3 SLOAD PUSH2 0x304 JUMP JUMPDEST PUSH2 0x511 DUP3 DUP3 DUP6 PUSH2 0x451 JUMP JUMPDEST PUSH0 PUSH1 0x20 SWAP1 POP PUSH1 0x1F DUP4 GT PUSH1 0x1 DUP2 EQ PUSH2 0x542 JUMPI PUSH0 DUP5 ISZERO PUSH2 0x530 JUMPI DUP3 DUP8 ADD MLOAD SWAP1 POP JUMPDEST PUSH2 0x53A DUP6 DUP3 PUSH2 0x4BF JUMP JUMPDEST DUP7 SSTORE POP PUSH2 0x5A1 JUMP JUMPDEST PUSH1 0x1F NOT DUP5 AND PUSH2 0x550 DUP7 PUSH2 0x334 JUMP JUMPDEST PUSH0 JUMPDEST DUP3 DUP2 LT ISZERO PUSH2 0x577 JUMPI DUP5 DUP10 ADD MLOAD DUP3 SSTORE PUSH1 0x1 DUP3 ADD SWAP2 POP PUSH1 0x20 DUP6 ADD SWAP5 POP PUSH1 0x20 DUP2 ADD SWAP1 POP PUSH2 0x552 JUMP JUMPDEST DUP7 DUP4 LT ISZERO PUSH2 0x594 JUMPI DUP5 DUP10 ADD MLOAD PUSH2 0x590 PUSH1 0x1F DUP10 AND DUP3 PUSH2 0x4A3 JUMP JUMPDEST DUP4 SSTORE POP JUMPDEST PUSH1 0x1 PUSH1 0x2 DUP9 MUL ADD DUP9 SSTORE POP POP POP JUMPDEST POP POP POP POP POP POP JUMP JUMPDEST PUSH2 0x217 DUP1 PUSH2 0x5B6 PUSH0 CODECOPY PUSH0 RETURN INVALID PUSH1 0x80 PUSH1 0x40 MSTORE CALLVALUE DUP1 ISZERO PUSH2 0xF JUMPI PUSH0 DUP1 REVERT JUMPDEST POP PUSH1 0x4 CALLDATASIZE LT PUSH2 0x29 JUMPI PUSH0 CALLDATALOAD PUSH1 0xE0 SHR DUP1 PUSH4 0x17D7DE7C EQ PUSH2 0x2D JUMPI JUMPDEST PUSH0 DUP1 REVERT JUMPDEST PUSH2 0x35 PUSH2 0x4B JUMP JUMPDEST PUSH1 0x40 MLOAD PUSH2 0x42 SWAP2 SWAP1 PUSH2 0x164 JUMP JUMPDEST PUSH1 0x40 MLOAD DUP1 SWAP2 SUB SWAP1 RETURN JUMPDEST PUSH1 0x60 PUSH0 DUP1 SLOAD PUSH2 0x59 SWAP1 PUSH2 0x1B1 JUMP JUMPDEST DUP1 PUSH1 0x1F ADD PUSH1 0x20 DUP1 SWAP2 DIV MUL PUSH1 0x20 ADD PUSH1 0x40 MLOAD SWAP1 DUP2 ADD PUSH1 0x40 MSTORE DUP1 SWAP3 SWAP2 SWAP1 DUP2 DUP2 MSTORE PUSH1 0x20 ADD DUP3 DUP1 SLOAD PUSH2 0x85 SWAP1 PUSH2 0x1B1 JUMP JUMPDEST DUP1 ISZERO PUSH2 0xD0 JUMPI DUP1 PUSH1 0x1F LT PUSH2 0xA7 JUMPI PUSH2 0x100 DUP1 DUP4 SLOAD DIV MUL DUP4 MSTORE SWAP2 PUSH1 0x20 ADD SWAP2 PUSH2 0xD0 JUMP JUMPDEST DUP3 ADD SWAP2 SWAP1 PUSH0 MSTORE PUSH1 0x20 PUSH0 KECCAK256 SWAP1 JUMPDEST DUP2 SLOAD DUP2 MSTORE SWAP1 PUSH1 0x1 ADD SWAP1 PUSH1 0x20 ADD DUP1 DUP4 GT PUSH2 0xB3 JUMPI DUP3 SWAP1 SUB PUSH1 0x1F AND DUP3 ADD SWAP2 JUMPDEST POP POP POP POP POP SWAP1 POP SWAP1 JUMP JUMPDEST PUSH0 DUP2 MLOAD SWAP1 POP SWAP2 SWAP1 POP JUMP JUMPDEST PUSH0 DUP3 DUP3 MSTORE PUSH1 0x20 DUP3 ADD SWAP1 POP SWAP3 SWAP2 POP POP JUMP JUMPDEST PUSH0 JUMPDEST DUP4 DUP2 LT ISZERO PUSH2 0x111 JUMPI DUP1 DUP3 ADD MLOAD DUP2 DUP5 ADD MSTORE PUSH1 0x20 DUP2 ADD SWAP1 POP PUSH2 0xF6 JUMP JUMPDEST PUSH0 DUP5 DUP5 ADD MSTORE POP POP POP POP JUMP JUMPDEST PUSH0 PUSH1 0x1F NOT PUSH1 0x1F DUP4 ADD AND SWAP1 POP SWAP2 SWAP1 POP JUMP JUMPDEST PUSH0 PUSH2 0x136 DUP3 PUSH2 0xDA JUMP JUMPDEST PUSH2 0x140 DUP2 DUP6 PUSH2 0xE4 JUMP JUMPDEST SWAP4 POP PUSH2 0x150 DUP2 DUP6 PUSH1 0x20 DUP7 ADD PUSH2 0xF4 JUMP JUMPDEST PUSH2 0x159 DUP2 PUSH2 0x11C JUMP JUMPDEST DUP5 ADD SWAP2 POP POP SWAP3 SWAP2 POP POP JUMP JUMPDEST PUSH0 PUSH1 0x20 DUP3 ADD SWAP1 POP DUP2 DUP2 SUB PUSH0 DUP4 ADD MSTORE PUSH2 0x17C DUP2 DUP5 PUSH2 0x12C JUMP JUMPDEST SWAP1 POP SWAP3 SWAP2 POP POP JUMP JUMPDEST PUSH32 0x4E487B7100000000000000000000000000000000000000000000000000000000 PUSH0 MSTORE PUSH1 0x22 PUSH1 0x4 MSTORE PUSH1 0x24 PUSH0 REVERT JUMPDEST PUSH0 PUSH1 0x2 DUP3 DIV SWAP1 POP PUSH1 0x1 DUP3 AND DUP1 PUSH2 0x1C8 JUMPI PUSH1 0x7F DUP3 AND SWAP2 POP JUMPDEST PUSH1 0x20 DUP3 LT DUP2 SUB PUSH2 0x1DB JUMPI PUSH2 0x1DA PUSH2 0x184 JUMP JUMPDEST JUMPDEST POP SWAP2 SWAP1 POP JUMP INVALID LOG2 PUSH5 0x6970667358 0x22 SLT KECCAK256 0xFB PUSH27 0x9E7AA27BDE6BEA5BD23B5A200CB1BF236B398C2328B8262FC9153A DUP3 0xE9 SWAP6 PUSH5 0x736F6C6343 STOP ADDMOD XOR STOP CALLER "
				},
				"gasEstimates": {
					"creation": {
						"codeDepositCost": "107000",
						"executionCost": "infinite",
						"totalCost": "infinite"
					},
					"external": {
						"getName()": "infinite"
					}
				},
				"methodIdentifiers": {
					"getName()": "17d7de7c"
				}
			},
			"storageLayout": {
				"storage": [
					{
						"astId": 3,
						"contract": "variables_nativas.sol:variables_nativas",
						"label": "fullName",
						"offset": 0,
						"slot": "0",
						"type": "t_string_storage"
					}
				],
				"types": {
					"t_string_storage": {
						"encoding": "bytes",
						"label": "string",
						"numberOfBytes": "32"
					}
				}
			},
			"userdoc": {
				"kind": "user",
				"methods": {},
				"version": 1
			}
		}
	}
}