{
	"loop.sol": {
		"Loop": {
			"abi": [
				{
					"inputs": [],
					"name": "loop",
					"outputs": [],
					"stateMutability": "pure",
					"type": "function"
				}
			],
			"devdoc": {
				"kind": "dev",
				"methods": {},
				"version": 1
			},
			"evm": {
				"assembly": "    /* \"loop.sol\":61:344  contract Loop {... */\n  mstore(0x40, 0x80)\n  callvalue\n  dup1\n  iszero\n  tag_1\n  jumpi\n  0x00\n  dup1\n  revert\ntag_1:\n  pop\n  dataSize(sub_0)\n  dup1\n  dataOffset(sub_0)\n  0x00\n  codecopy\n  0x00\n  return\nstop\n\nsub_0: assembly {\n        /* \"loop.sol\":61:344  contract Loop {... */\n      mstore(0x40, 0x80)\n      callvalue\n      dup1\n      iszero\n      tag_1\n      jumpi\n      0x00\n      dup1\n      revert\n    tag_1:\n      pop\n      jumpi(tag_2, lt(calldatasize, 0x04))\n      shr(0xe0, calldataload(0x00))\n      dup1\n      0xa92100cb\n      eq\n      tag_3\n      jumpi\n    tag_2:\n      0x00\n      dup1\n      revert\n        /* \"loop.sol\":82:337  function loop() pure public  {... */\n    tag_3:\n      tag_4\n      tag_5\n      jump\t// in\n    tag_4:\n      stop\n    tag_5:\n        /* \"loop.sol\":148:157  uint256 i */\n      0x00\n        /* \"loop.sol\":143:330  for (uint256 i=0; i < 10; i++) ... */\n    tag_7:\n        /* \"loop.sol\":165:167  10 */\n      0x0a\n        /* \"loop.sol\":161:162  i */\n      dup2\n        /* \"loop.sol\":161:167  i < 10 */\n      lt\n        /* \"loop.sol\":143:330  for (uint256 i=0; i < 10; i++) ... */\n      iszero\n      tag_8\n      jumpi\n        /* \"loop.sol\":208:209  3 */\n      0x03\n        /* \"loop.sol\":203:204  i */\n      dup2\n        /* \"loop.sol\":203:209  i == 3 */\n      sub\n        /* \"loop.sol\":199:253  if (i == 3){... */\n      iszero\n        /* \"loop.sol\":229:237  continue */\n      tag_9\n        /* \"loop.sol\":199:253  if (i == 3){... */\n      jumpi\n        /* \"loop.sol\":276:277  5 */\n      0x05\n        /* \"loop.sol\":271:272  i */\n      dup2\n        /* \"loop.sol\":271:277  i == 5 */\n      sub\n        /* \"loop.sol\":267:319  if (i == 5) {... */\n      iszero\n        /* \"loop.sol\":298:303  break */\n      tag_8\n        /* \"loop.sol\":267:319  if (i == 5) {... */\n      jumpi\n        /* \"loop.sol\":143:330  for (uint256 i=0; i < 10; i++) ... */\n    tag_9:\n        /* \"loop.sol\":169:172  i++ */\n      dup1\n      dup1\n      0x01\n      add\n      swap2\n      pop\n      pop\n        /* \"loop.sol\":143:330  for (uint256 i=0; i < 10; i++) ... */\n      jump(tag_7)\n    tag_8:\n      pop\n        /* \"loop.sol\":82:337  function loop() pure public  {... */\n      jump\t// out\n\n    auxdata: 0xa264697066735822122064af4748efc672465fb858cf90279c9229e53abdcbbcc0c7e03ff49cbbe92dec64736f6c634300081a0033\n}\n",
				"bytecode": {
					"linkReferences": {},
					"object": "6080604052348015600e575f80fd5b50609280601a5f395ff3fe6080604052348015600e575f80fd5b50600436106026575f3560e01c8063a92100cb14602a575b5f80fd5b60306032565b005b5f5b600a8110156059576003810315604d5760058103156059575b80806001019150506034565b5056fea264697066735822122064af4748efc672465fb858cf90279c9229e53abdcbbcc0c7e03ff49cbbe92dec64736f6c634300081a0033",
					"opcodes": "PUSH1 0x80 PUSH1 0x40 MSTORE CALLVALUE DUP1 ISZERO PUSH1 0xE JUMPI PUSH0 DUP1 REVERT JUMPDEST POP PUSH1 0x92 DUP1 PUSH1 0x1A PUSH0 CODECOPY PUSH0 RETURN INVALID PUSH1 0x80 PUSH1 0x40 MSTORE CALLVALUE DUP1 ISZERO PUSH1 0xE JUMPI PUSH0 DUP1 REVERT JUMPDEST POP PUSH1 0x4 CALLDATASIZE LT PUSH1 0x26 JUMPI PUSH0 CALLDATALOAD PUSH1 0xE0 SHR DUP1 PUSH4 0xA92100CB EQ PUSH1 0x2A JUMPI JUMPDEST PUSH0 DUP1 REVERT JUMPDEST PUSH1 0x30 PUSH1 0x32 JUMP JUMPDEST STOP JUMPDEST PUSH0 JUMPDEST PUSH1 0xA DUP2 LT ISZERO PUSH1 0x59 JUMPI PUSH1 0x3 DUP2 SUB ISZERO PUSH1 0x4D JUMPI PUSH1 0x5 DUP2 SUB ISZERO PUSH1 0x59 JUMPI JUMPDEST DUP1 DUP1 PUSH1 0x1 ADD SWAP2 POP POP PUSH1 0x34 JUMP JUMPDEST POP JUMP INVALID LOG2 PUSH5 0x6970667358 0x22 SLT KECCAK256 PUSH5 0xAF4748EFC6 PUSH19 0x465FB858CF90279C9229E53ABDCBBCC0C7E03F DELEGATECALL SWAP13 0xBB 0xE9 0x2D 0xEC PUSH5 0x736F6C6343 STOP ADDMOD BYTE STOP CALLER "
				},
				"gasEstimates": {
					"creation": {
						"codeDepositCost": "29200",
						"executionCost": "79",
						"totalCost": "29279"
					},
					"external": {
						"loop()": "infinite"
					}
				},
				"methodIdentifiers": {
					"loop()": "a92100cb"
				}
			},
			"storageLayout": {
				"storage": [],
				"types": null
			},
			"userdoc": {
				"kind": "user",
				"methods": {},
				"version": 1
			}
		}
	}
}